:10000000F8050020AF1A00001B1500001B150000AA
:100010001B1500001B1500001B1500000000000050
:100020000000000000000000000000001B150000A0
:100030001B150000000000001B1500001B15000030
:1000400081B000F5E0700268914203D343681A441E
:10005000914202D380680028F5D101B07047DFF8E3
:100060006817086890B94FF4805048604FF48032A8
:100070004FF0FF308A60C86008610420DFF84C2729
:10008000DFF84C374861C2F8BC010B6001207047B3
:1000900001F1080313F0070F0EBF0023C3F108039B
:1000A00003F007031944D21A8161C26042F00103D0
:1000B0004B60091D28238B50DFF80C170A69C261B9
:1000C00070472DE9FC4B074601F1080010F0070FBF
:1000D0000FBF8946C0F1080000F0070001EB0009DE
:1000E00002F1080111F0070F06D002F10800C0F17B
:1000F000080000F0070002441546A5EB090009EBD3
:100100000306A0EB030B43F00303C9F80430AE422F
:1001100028BF01F0FFF92879C10758BF01F0FAF9AB
:10012000BBF1100F38BF01F0F5F9B869854207D16E
:10013000F8685844F860BE6140F00100706050E11A
:10014000786985420AD1B8688344C7F808B07E61EF
:100150004BF00100706046F80BB042E1686800F0B7
:100160000301012940F0AB80C008C0000190C00825
:100170001F2839D8AC68D5F80C800090454508BFD9
:1001800001F0C8F9A54208BF01F0C4F968680099F8
:10019000C008C000B0EBC10F18BF01F0BBF9009957
:1001A00007F1280000EBC100844206D03A6994426E
:1001B000C0F08080E168A9427CD1A04506D10098BA
:1001C0003968012282409143396075E0804506D04C
:1001D000386980456ED3D8F80800A8426AD1C4F8BF
:1001E0000C80C8F8084067E0EC68D5F81880AC428D
:1001F0000CD0A8683969884222D3C168A94204BFDB
:10020000A168A9421CD1C460A0601BE005F11402E2
:10021000146834B905F1100214689CB101E01A4663
:10022000146804F114031968002902BF04F11003D3
:1002300018680028F3D139698A4228BF106001D2BA
:1002400001F068F9B8F1000F36D0E96907F5987048
:1002500000EB81000268954208D10460A4B9E86906
:100260007968012282409143796025E038698045B0
:1002700008D3D8F81000A84214BFC8F81440C8F832
:10028000104001E001F046F9B4B139698C4211D354
:10029000C4F81880286928B1884226BF206184618B
:1002A00001F038F9686938B13969884202D3606170
:1002B000846101E001F02EF901982D1883446868EB
:1002C0004008400068604BF0010171604FEADB04B8
:1002D00046F80BB01F2C23D807F1280000EBC40808
:1002E0004546BBF1100F38BF01F014F9386820FA09
:1002F00004F1C90705D4012101FA04F404433C6068
:1003000007E0D8F80800396988422CBF054601F09B
:1003100001F9C8F80860EE60B560C6F80C8060E0CE
:100320005FEA1B2008BF002123D0B0F5803F28BF23
:100330001F211ED2A0F58072120C02F0080290401C
:10034000A0F58051090C01F004018840A0F580431C
:100350001B0CC2F10E0203F00203521AD21A98408B
:1003600002EBD032D01D2BFA00F101F0010101EBBC
:10037000420107F5987202EB8100F161002272617F
:1003800032617A6822FA01F3DB0707D4012303FA0A
:1003900001F1114379600660B0611DE002681F2918
:1003A0001DBF4908C1F119010BFA01F1594600E0DE
:1003B00002465068C008C000584516D002F110032C
:1003C000CC0F03EB8403490018680028F0D138698A
:1003D000834204D31E60B261F660B66001E001F0B2
:1003E00099F809F10800BDE8F68B396990688A42EE
:1003F00028BF8842F3D3C6609660B060F2600020E8
:10040000B061EEE72DE9FE4F04468B46A5692E4606
:10041000904699463146FFF713FEA8F1280201687D
:10042000406801EB000AAAF1270111F007000EBF96
:100430000021C1F1080101F007010AEB0100A0F160
:100440002F0706F11000874238BF374607F1180022
:1004500001905946002000902046FFF719FE07F151
:10046000080010F0070F18BF01F054F81B20786047
:1004700007F1080104F5E07090E80C5081E80C5099
:10048000C0F800B0C0F80480C0F80C9081600198FA
:10049000009900E0001D07224260491C00F108029B
:1004A0005245F7D30129D8BF01F034F8B74200F024
:1004B0009580BF1B301D311DC05940084000C851F8
:1004C00047F0010171604FEAD70BF751BBF11F0FE5
:1004D00021D804EBCB0000F12805A846102F38BF27
:1004E00001F018F8206820FA0BF1C90705D40121A2
:1004F00001FA0BF10843206006E0A86821698842F0
:100500002CBF804601F006F8AE60C8F80C60C6F853
:100510000880F5606FE0380A08BF002123D0B0F5ED
:10052000803F28BF1F211ED2A0F58072120C02F05E
:1005300008029040A0F58051090C01F004018840A8
:10054000A0F580431B0CC2F10E0203F00203521A05
:10055000D21A984002EBD032D01D27FA00F101F0F8
:10056000010101EB420104EB8102002302F59870C6
:10057000F16173613361626822FA01F3DB0707D42A
:10058000012303FA01F1114361600660B0611DE0CF
:1005900002681F291DBF4908C1F1190107FA01F1BD
:1005A000394600E002465068C008C000B84216D084
:1005B00002F11003C80F03EB8003490018680028FC
:1005C000F0D12069834204D31E60B261F660B56049
:1005D00011E003B0BDE8F04F00F09CBF0BE02169D3
:1005E00090688A4228BF8842F3D3C6609560B060A5
:1005F000F2600020B06103B0BDE8F08F2DE9F0415A
:10060000714F05463868884608B9FFF728FDB96874
:1006100001EB08002F30491E20EA010188457DD2F8
:1006200005F5D876B06828B1326889188A4275D243
:10063000884273D300F072FF01001CBF0C6811F1F7
:10064000010F6BD03068201805F5D8723060536800
:10065000984238BF18467060A86960BB286908B125
:10066000814200D22961316174610020F06105F19D
:100670002802386868624FF0FF3028620020D2609C
:10068000926002F1080353611361801C103220282C
:10069000F5D34E48854208BFA4F1280228D055F86A
:1006A000040CC00805EBC002A2F108000A19121AD6
:1006B000283A01461CE005F5E070024600E0926829
:1006C0007AB3136857683B449942F8D1137B1F07EC
:1006D00027D4AB691768BB4223D3D2F804C0674460
:1006E000BB421ED2A444C2F804C0E868A96922181B
:1006F0002846FFF7CDFC1FE08068C0B10368934235
:10070000FAD1027B130712D4026801604368E4182F
:10071000446043462846BDE8F041D2E40020BDE8ED
:10072000F0812A69914238BF29610A19E5E700235F
:1007300022462846FFF766FEE8688045EED2A0EB29
:100740000800A969E86001EB0802AA6140F0010015
:10075000506048F00300486001F10800BDE8F081F6
:1007600038B4194B1A6882B94FF480525A604FF46A
:1007700080344FF0FF329C60DA601A610422134C1F
:10078000134D5A61C4F8BC211D6011F1400F17D2FE
:100790008269AAB1C368283199420BD200F5E07191
:1007A0000C68A24203D34D682C44A24202D389684C
:1007B0000029F5D1C16999423CBF4FF0FF31C161B9
:1007C00032BC002070470000D8010020000000204B
:1007D0006859883C2DE9F84F00258946090AC9F176
:1007E000000B08BF002323D0B1F5803F28BF1F2393
:1007F0001ED2A1F58072120C02F008029140A1F500
:1008000080531B0C03F004039940A1F58044240C91
:10081000C2F10E0204F00204D21A121BA14002EB34
:10082000D132D11D29FA01F303F0010303EB420396
:10083000074607F5987858F8230030B31F2B0FBFF1
:100840004C465C08C4F1190409FA04F4AC46594654
:1008500000E064004268D208D200A2EB09028A429A
:1008600003D21100054600F06881426910304FEA5A
:10087000D47B50F82B00002A1CBF824294460028EB
:10088000E7D18B466046B0BBBDBB012000FA03F345
:100890005B00584203437868034000F04D815842A2
:1008A00003405B1E180B00F01000C340590901F013
:1008B0000801CB409A0802F00402D3405C0804F01F
:1008C00002040818E3401018C3F34006201830440F
:1008D000F3401B1858F823000DE008464168C9088A
:1008E000C900A1EB090159453CBF8B46054601698A
:1008F0000029F2D140690028F0D1002D00F01C81C0
:10090000B868A0EB0900834580F0168138698542FC
:10091000C0F010816868C008C00009EB0B01884274
:1009200018BF00F0F7FD05EB0906B54280F0028123
:10093000EC68D5F818A0AC420CD0A8683969884298
:1009400022D3C168A94204BFA168A9421CD1C460D6
:10095000A0601BE005F11402146834B905F110021F
:1009600014689CB101E01A46146804F11403196874
:10097000002902BF04F1100318680028F3D1396977
:100980008A4228BF106001D200F0C4FDBAF1000F06
:1009900036D0E96908EB81000268954209D104600C
:1009A000200014D1E869796801228240914379607E
:1009B00026E03869824508D3DAF81000A84214BF4F
:1009C000CAF81440CAF8104001E000F0A3FDBCB121
:1009D0003869844212D3C4F818A0286930B1396943
:1009E000884226BF2061846100F094FD686938B1B7
:1009F0003969884202D36061846101E000F08AFDB8
:100A0000BBF1100F0CD2D94449F003006860291DD6
:100A1000281D50F8090040F0010041F8090088E065
:100A200049F0030068604BF0010070604FEADB00A2
:100A300046F80BB01F281DD807EBC00101F12804B0
:100A4000396821FA00F2D207A34605D4012202FA3E
:100A500000F00843386006E0A068396988422CBF7E
:100A6000834600F057FDA660CBF80C60C6F808B0CE
:100A7000F4605EE05FEA1B2008BF002123D0B0F5E0
:100A8000803F28BF1F211ED2A0F58072120C02F0F9
:100A900008029040A0F58051090C01F00401884043
:100AA000A0F580431B0CC2F10E0203F00203521AA0
:100AB000D21A984002EBD032D01D2BFA00F101F08F
:100AC000010101EB4201F16100227261326108EB28
:100AD00081007A6822FA01F3DB0707D4012303FAC5
:100AE00001F1114379600660B0611DE002681F29C1
:100AF0001DBF4908C1F119010BFA01F1594600E087
:100B000002465068C008C000584518D002F11003D2
:100B1000CC0F03EB8403490018680028F0D1386932
:100B2000834204D31E60B261F660B66001E000F05B
:100B3000F1FC13E100F0EEFC0DE18B46A3E6396910
:100B400090688A4228BF8842F1D3C6609660B06040
:100B5000F2600020B061ECE72DE9F84F06468846C8
:100B6000716848420140491E080B00F01000C14066
:100B70004A0902F00802D1408B0803F00403D9406F
:100B80004D0805F002051018E9401818C1F340049B
:100B9000281806F5987A2044E14009185AF82110DF
:100BA0004868C008C0000D46A0EB080909E00146EE
:100BB0004868C008C000A0EB080048453CBF81461B
:100BC0000D4608690028F2D149690029F0D1306941
:100BD0008542C0F0BE806868C00808EB090BC00001
:100BE000584518BF00F096FC05EB080085420090C0
:100BF00080F0AF80EF68AC69AF420CD0A868316973
:100C0000884222D3C168A94204BFB968A9421CD155
:100C1000C760B8601BE005F11402176837B905F129
:100C2000100217689FB101E01A46176807F1140314
:100C30001968002902BF07F1100318680028F3D1D2
:100C400031698A4228BF106001D200F063FC002C99
:100C500031D0E9690AEB81000268954208D107604A
:100C60008FB9E8697168012282409143716022E086
:100C70003069844205D32069A84214BF67612761A7
:100C800001E000F047FCB7B13069874211D3BC6185
:100C9000286930B13169884226BF3861876100F028
:100CA00039FC686938B13169884202D3786187615B
:100CB00001E000F02FFCB9F1100F0BD24BF0030054
:100CC0006860291D281D50F80B0040F0010041F814
:100CD0000B003DE048F00301696049F00100291D67
:100CE00041F80800009840F80990D6F808804FEACB
:100CF000D80BBBF1200F28BF00F00CFCB8F1000F9F
:100D000022D006EBCB00776900F12804A246B8F1A7
:100D1000100F38BF00F0FEFB306820FA0BF1C90756
:100D200005D4012101FA0BF10843306006E0A06808
:100D3000316988422CBF824600F0ECFBA760CAF8FC
:100D40000C70C7F808A0FC60C6F8089000987061A5
:100D500004E000F0DFFB0020BDE8F28F05F10800A1
:100D6000BDE8F28F2DE9FE4F0546AFF30080F52D6B
:100D7000DFF89C6780F004810B2D31BF10250B3507
:100D8000ED08ED003068EC08E04010F0030F46D0AD
:100D9000C04300F00100041906F1280000EBC4086C
:100DA000E700D8F808506868C008C000B84218BF0B
:100DB00000F0B0FBD5F80890454508BF00F0AAFB4D
:100DC0004D4508BF00F0A6FB6868C008C000B842E7
:100DD00018BF00F09FFBC84507D13168012000FA19
:100DE00004F421EA040434600DE03069814508D33D
:100DF000D9F80C00A84204D1C8F80890C9F80C80B2
:100E000001E000F087FB47F003006860291D281D02
:100E100005F10804C05940F00100C851F8E0B1687C
:100E2000A94280F0BE80002800F0A1804FF00108A8
:100E300008FA04F1490000FA04F4484201430C4066
:100E400060420440641E200B00F01000C4406109A1
:100E500001F00801CC40A20802F00402D44063086B
:100E600003F002030818DC401018C4F340071818F8
:100E70003818FC40241806F1280000EBC40AE700EB
:100E8000DAF80890D9F80400C008C000B84218BFCA
:100E900000F040FBD9F808B0D14508BF00F03AFB9C
:100EA000D94508BF00F036FBD9F80400C008C000DF
:100EB000B84218BF00F02EFBDA4506D1316808FAB7
:100EC00004F421EA040434600DE03069834508D35A
:100ED000DBF80C00484504D1CAF808B0CBF80CA0E8
:100EE00001E000F017FB45F00300C9F804007F1B88
:100EF00009F1040147F00100485109EB0500019098
:100F0000C751B4684FEAD40ABAF1200F28BF00F0E5
:100F100001FB34B3CDF800A006F12800756900EBA1
:100F2000CA0AD346102C38BF00F0F4FA3168009892
:100F300021FA00F2D30704D408FA00F00843306025
:100F400007E0DAF80800316988422CBF834600F0D8
:100F5000E1FACAF80850CBF80C50C5F808B0C5F84B
:100F60000CA0B76009F108040198706150E0706846
:100F7000C0B329463046FFF7EFFD040011D047E02B
:100F800015F1400F28BF4FF0FF350AD20B35ED08A1
:100F90007068ED0028B129463046FFF71BFC0400BD
:100FA00036D1B068A8421DD3411B726910290AD3FB
:100FB00050197061B16041F001034360415045F048
:100FC000030555600BE00021B1607161131D40F015
:100FD00003015160111D095841F00101195002F13E
:100FE000080415E0F06885420DD2401BB169F0603D
:100FF0004A19B26140F00100506045F003054D60B0
:1010000001F1080404E029463046FFF7F7FA0446E8
:10101000AFF300802046FFF7EEBA002800D17047FA
:101020002DE9FC47A0F10805AFF30080DFF8E0648C
:1010300032699542C0F05982686800F003010129C5
:1010400000F05382C1084FEAC109C10705EB090846
:1010500039D42C6810F0030F00F049826042054437
:101060009542A144C0F041827069854200F0C7807A
:10107000E408202C5ED2D5F80CA0AF68554508BF17
:1010800000F048FABD4208BF00F044FA6868C008A2
:10109000C000B0EBC40F18BF00F03CFA06F1280006
:1010A00000EBC400874205D031698F423FD3F96815
:1010B000A9423CD1BA452CD13068012101FA04F48F
:1010C00020EA04043460454580F00F82D8F80440DB
:1010D000E00740F10A82A00700F16881B06980450D
:1010E00040F0A080F068B5618144C6F80C9049F0EA
:1010F000010068607069854202D100207061B060B3
:10110000F069484580F0F38100213046FFF728FB65
:10111000EDE1824506D03069824508D3DAF808004F
:10112000A84204D1C7F80CA0CAF80870CBE700F0B9
:10113000F1F9C8E7EC68AF69AC420BD0A8689042FF
:1011400023D3C168A94204BFA168A9421DD1C460CC
:10115000A0601CE005F114031C6834B905F110030C
:101160001C68A4B101E063461C6804F1140CDCF8AF
:101170000010002902BF04F1100CDCF80000002868
:10118000F1D1934228BF196001D200F0C3F9002FBA
:1011900099D0E96906F5987000EB810002689542E4
:1011A00009D10460200011D1E869716801228240F0
:1011B0009143716087E73069874205D33869A84257
:1011C00014BF7C613C6101E000F0A4F9002C3FF405
:1011D0007AAF31698C42AAD3A761286928B18842C5
:1011E00026BF2061846100F095F9686900283FF40A
:1011F0006AAF316988429AD36061846163E798F885
:10120000040000F0030003287FF45DAFC6F80890E7
:1012100049F00101D8F8040040084000C8F8040073
:1012200069600AE0706980450AD1B06875618144DF
:10123000C6F8089049F00100686045F8099056E149
:10124000E408E400A144E408202C3AD2D8F80CA029
:10125000D8F80870D04508BF00F05CF9B84508BF61
:1012600000F058F9D8F80400C008C000B0EBC40F73
:1012700018BF00F04FF906F1280000EBC4008742C8
:1012800007D031698F42C0F08480F968414540F051
:101290008080BA4507D13068012101FA04F420EAC0
:1012A0000404346077E0824506D031698A4570D302
:1012B000DAF8080040456CD1C7F80CA0CAF80870ED
:1012C00069E0D8F80C40D8F8187044450DD0D8F82B
:1012D00008003169884222D3C168414504BFA16832
:1012E00041451CD1C460A0601BE008F114021468E1
:1012F00034B908F1100214689CB101E01A46146870
:1013000004F114031968002902BF04F110031868DE
:101310000028F3D131698A4228BF106001D200F061
:10132000F9F8002F37D0D8F81C1006F5987000EBAC
:101330008100026890450AD10460200012D1D8F8DB
:101340001C007168012282409143716023E0306982
:10135000874205D33869404514BF7C613C6101E098
:1013600000F0D8F8BCB131698C4212D3A761D8F82B
:10137000100028B1884226BF2061846100F0CAF8BD
:10138000D8F8140038B13169884202D360618461B1
:1013900001E000F0BFF849F00100686045F80990ED
:1013A000706985420BD1C6F80890A0E0640864001B
:1013B000C8F8044049F00100686045F809904FEA18
:1013C000D907202F22D206F1280000EBC704A0463F
:1013D000B9F1100F38BF00F09DF8306820FA07F11E
:1013E000C90705D4012101FA07F70743376006E072
:1013F000A068316988422CBF804600F08BF8A56058
:10140000C8F80C50C5F80880EC6070E05FEA19205D
:1014100008BF002123D0B0F5803F28BF1F211ED276
:10142000A0F58072120C02F008029040A0F58051E5
:10143000090C01F004018840A0F580431B0CC2F1A7
:101440000E0203F00203521AD21A984002EBD03275
:10145000D01D29FA00F101F0010101EB420106F56E
:10146000987202EB810000226A612A61E961726868
:1014700022FA01F3DB0707D4012303FA01F1114338
:1014800071600560A8611DE002681F291DBF490841
:10149000C1F1190109FA01F1494600E0024650681C
:1014A000C008C000484526D002F11003CC0F03EB62
:1014B0008403490018680028F0D13069834204D3BE
:1014C0001D60AA61ED60AD6001E000F023F8306AB4
:1014D000401E30620BD1D6F8C80100E080680028B9
:1014E000FCD14FF0FF30306201E000F013F8AFF3B1
:1014F0000080BDE8F387316990688A4228BF88423E
:10150000E3D3C5609560A860EA600020A861DEE7CB
:1015100000000020012000F017B8FEE70749086826
:1015200008B1002070470648C008C000086005499F
:10153000C908C900091A0160704700BFF001002006
:10154000FF050020F80D002080B5AFF30080024AAF
:1015500011001820ABBEFBE72600020000218160CD
:10156000002101600021642905DA002200EB8103DB
:101570005A62491CF7E70022042A05DA002100EB31
:101580008203D960521CF7E70021022905DA002204
:1015900000EB8103DA61491CF7E770472DE9F84F4A
:1015A00004000D0016001F005FF0000800206060BE
:1015B000200000F084F900F0A0F98146494620009F
:1015C00000F06EF90120C9F800000220C9F80400FB
:1015D0000320C9F808000420C9F80C000A20C9F843
:1015E00010001420C9F814000020C9F818000120C8
:1015F000C9F81C0000F081F982465146200000F035
:101600004FF90120CAF800000220CAF804000320A4
:10161000CAF808000420CAF80C000A20CAF8100012
:101620001420CAF814000A20CAF818000020CAF8CA
:101630001C0000F062F983465946200000F030F9A2
:101640000020CBF800000020CBF804000020CBF8ED
:1016500008000020CBF80C000020CBF81000002080
:10166000CBF814000A20CBF818000020CBF81C009F
:1016700003206060BDE8F18F2DE9F04706005FF0C0
:1016800000083768002506EB8700406A002870D004
:1016900006EB8700406AD0F800904946F06800F0F9
:1016A00039F90400002C01D0200063E006EB87002C
:1016B000406AD0F804804146306900F02BF90500FB
:1016C000002D01D0280055E006EB8700406AD0F8D5
:1016D00008904946706900F01DF90400002C01D003
:1016E000200047E006EB8700406AD0F80C804146B6
:1016F000B06900F00FF90500002D01D0280039E095
:1017000006EB8700406AD0F810904946F06900F077
:101710001AF90400002C01D020002BE006EB870012
:10172000406AD0F814A05146306A00F00CF9050068
:10173000002D01D028001DE006EB8700406AD0F89C
:1017400018804146B06800F01CF90400002C01D05C
:1017500020000FE006EB8700406AC069002804D033
:10176000B06800F008F9050003E0B06800F006F981
:1017700005002800BDE8F0872DE9FC4104000D00BC
:1017800016001F00DDF820805FF0FF302060002091
:101790006060200000F024F8CDF800803B003200AB
:1017A00029002000FFF7FAFE6068002804D15FF0EE
:1017B000FF30C4F8B4010FE02068401C2060200016
:1017C000FFF75AFFC4F8B401D4F8B401002803D1DC
:1017D000206861688842EFD3D4F8B401BDE8F6818F
:1017E00070B504000025042D13DA04EB8500C068F1
:1017F000002802D15FF0FF3031E004EB8500C068C3
:1018000000F096F8002802D05FF0FF3027E06D1C52
:10181000E9E70026022E13DA04EB8600C0690028EF
:1018200002D15FF0FF301AE004EB8600C06900F0DF
:1018300097F8002802D05FF0FF3010E0761CE9E74F
:10184000A068002802D15FF0FF3008E0A06800F037
:1018500092F8002802D05FF0FF3000E0002070BD59
:10186000816070470023042B0ADA00EB8302D26800
:10187000002A03D100EB8302D16001E05B1CF2E798
:1018800070470023022B0ADA00EB8302D269002A98
:1018900003D100EB8302D16101E05B1CF2E77047EA
:1018A0000023642B0ADA00EB8302526A002A03D178
:1018B00000EB8302516201E05B1CF2E7704738B530
:1018C00004000025642D0ADA04EB8500406A00F06C
:1018D00019F8002004EB850148626D1CF2E731BD68
:1018E00010B54FF4DC70FFF73DFA0400002C02D075
:1018F0002000FFF733FE200010BD80B52020FFF749
:1019000031FA02BD10B50400002C02D0200000F016
:1019100042F810BD020010684018B0F5B47F04DA38
:10192000106808181060002001E05FF0FF30704779
:101930000100002008600868002801D1002001E0B3
:101940005FF0FF30704702005068884205DA906807
:10195000814202DA1160002001E05FF0FF30704741
:101960000100002008600868002801D0002001E084
:101970005FF0FF3070470100002070470100002039
:101980007047020011601068884201D1002001E018
:101990005FF0FF307047FFF740BB18B593B0FFF71B
:1019A0009FFF040009A92000FFF75CFF07A92000A2
:1019B000FFF758FF05A92000FFF754FF03A92000F7
:1019C000FFF750FF0FA92000FFF75BFF0BA92000D6
:1019D000FFF757FF01A92000FFF742FF0420009006
:1019E0000323022201212000FFF7D8FD2000FFF78A
:1019F00043FE012000900223032204212000FFF770
:101A0000BBFEFEE719E050F8042BD30744BFA9F151
:101A100001039A18091F0023042942F8043BF9D254
:101A20005FEA817C134604D54FF0000CA2F800C099
:101A30009B1CC90744BF0021197050F8041B0029E2
:101A4000E1D1704710B5074979441831064C7C4400
:101A5000163404E00A68081D114488470146A14273
:101A6000F8D110BD080000001400000099FFFFFF2E
:101A7000F4010000000000200000000000F00DF85C
:101A8000002801D0FFF7DEFFAFF300800020AFF3A6
:101A90000080FFF782FF00F002F80120704700F09D
:101AA00001B8000007463846FFF74EFDFBE7AFF3ED
:0A1AB0000080AFF30080FFF7E1FFB4
:0400000500001AAF2E
:00000001FF
