:1000000045C000004BC0000049C0000047C00000D0
:1000100045C0000043C0000041C000003FC00000D8
:100020003DC000003BC0000039C0000037C00000E8
:1000300035C0000033C0000031C000002FC00000F8
:100040002DC000002BC0000029C0000027C0000008
:1000500025C0000023C0000021C000001FC0000018
:100060001DC000001BC0000019C0000017C0000028
:1000700015C0000013C0000011C000000FC0000038
:100080000DC000000BC0000009C0000011241FBEFD
:10009000CFEFD0E4DEBFCDBF02D0F7C0B1CFCF935A
:1000A000DF93CDB7DEB72C970FB6F894DEBF0FBE47
:1000B000CDBF19821A821B821C821D821E821F8262
:1000C000188680E090E0A0E0B0E489879A87AB874B
:1000D000BC872BED3FE049EC50E469857A858B8540
:1000E0009C851FD0DC01CB0189839A83AB83BC83C1
:1000F0002BED3FE049E450E469857A858B859C854A
:1001000010D0DC01CB0129853A854B855C85BC018B
:10011000CD0107D0DC01CB018D839E83AF83B887EF
:10012000FFCF0BD078C069D028F06ED018F095239F
:1001300009F05AC05FC01124A2C07ED0A0F3959FE1
:10014000D1F3950F50E0551F629FF001729FBB27BE
:10015000F00DB11D639FAA27F00DB11DAA1F649F6A
:100160006627B00DA11D661F829F2227B00DA11D1D
:10017000621F739FB00DA11D621F839FA00D611DA3
:10018000221F749F3327A00D611D231F849F600DC4
:10019000211D822F762F6A2F11249F5750408AF0FD
:1001A000E1F088234AF0EE0FFF1FBB1F661F771F89
:1001B000881F91505040A9F79E3F510570F014C020
:1001C0005EC05F3FECF3983EDCF3869577956795CC
:1001D000B795F795E7959F5FC1F7FE2B880F911DA7
:1001E0009695879597F9089597F99F6780E870E04D
:1001F00060E008959FEF80EC089500240A9416169D
:10020000170618060906089500240A941216130604
:10021000140605060895092E0394000C11F4882392
:1002200052F0BB0F40F4BF2B11F460FF04C06F5FAE
:100230007F4F8F4F9F4F089557FD9058440F551F84
:1002400059F05F3F71F04795880F97FB991F61F058
:100250009F3F79F087950895121613061406551FCF
:10026000F2CF4695F1DF08C0161617061806991F3B
:10027000F1CF86957105610508940895E894BB2730
:0E02800066277727CB0197F90895F894FFCFF2
:00000001FF
