S014000054656D706C617465734370702E737265633E
S113000045C000004BC0000049C0000047C00000CC
S113001045C0000043C0000041C000003FC00000D4
S11300203DC000003BC0000039C0000037C00000E4
S113003035C0000033C0000031C000002FC00000F4
S11300402DC000002BC0000029C0000027C0000004
S113005025C0000023C0000021C000001FC0000014
S11300601DC000001BC0000019C0000017C0000024
S113007015C0000013C0000011C000000FC0000034
S11300800DC000000BC0000009C0000011241FBEF9
S1130090CFEFD0E4DEBFCDBF02D039C0B1CFCF9314
S11300A0DF9300D0CDB7DEB761E070E0CE010196FA
S11300B004D0CE0101961AD0FFCFCF93DF9300D0A6
S11300C000D0CDB7DEB79A8389837C836B83898123
S11300D09A812B813C81FC013183208300000F90A5
S11300E00F900F900F90DF91CF910895CF93DF93EE
S11300F000D0CDB7DEB79A83898389819A81FC01C8
S1130100808191810F900F90DF91CF910895F894A1
S1050110FFCF1B
S9030000FC
