:1000000000040020910000007B0000007B00000045
:100010007B0000007B0000007B000000000000006F
:100020000000000000000000000000007B00000055
:100030007B000000000000007B0000007B0000004F
:1000400000F00DF8002801D0AFF30080AFF300807E
:100050000020AFF3008000F004F800F007F8012062
:1000600070470020022203239918FEE700F000B831
:100070000746384600F002F8FBE7FEE780B5AFF32D
:100080000080024A11001820ABBEFBE726000200E8
:0D009000AFF30080AFF30080FFF7D2FF0058
:040000050000009166
:00000001FF
