S01E00004861726477617265416461707465725061747465726E2E7372656339
S113000045C0000061C000005FC000005DC000008A
S11300105BC0000059C0000057C0000055C000007C
S113002053C0000051C000004FC000004DC000008C
S11300304BC0000049C0000047C0000045C000009C
S113004043C0000041C000003FC000003DC00000AC
S11300503BC0000039C0000037C0000035C00000BC
S113006033C0000031C000002FC000002DC00000CC
S11300702BC0000029C0000027C0000025C00000DC
S113008023C0000021C000001FC0000011241FBEB7
S1130090CFEFD0E4DEBFCDBF11E0A0E0B1E0E4E6F5
S11300A0F1E100E00BBF02C007900D92AA32B10744
S11300B0D9F721E0AAE2B1E001C01D92A433B2074E
S11300C0E1F79BD10C94B0089BCFCF93DF9300D082
S11300D0CDB7DEB79A83898389819A81FC018081B7
S11300E09181FC012281338189819A81FC01808183
S11300F09181F90109950F900F90DF91CF910895A7
S1130100CF93DF9300D0CDB7DEB79A8389838981FB
S11301109A81FC0180819181FC012481358189814E
S11301209A81FC0180819181F90109959B01AC01BF
S11301308CE390E0DC011AD4DC01CB0124E630E04E
S113014040E050E0BC01CD01EFD3DA01C9010F90CA
S11301500F90DF91CF910895CF93DF9300D000D01B
S1130160CDB7DEB79A8389837C836B8389819A8137
S11301702B813C81FC013183208300000F900F9080
S11301800F900F90DF91CF910895CF93DF9300D01C
S1130190CDB7DEB786E090E002D49A838983898163
S11301A09A81892B19F089819A811BD089819A813E
S11301B00F900F90DF91CF910895CF93DF9300D0EC
S11301C0CDB7DEB79A83898389819A81892B19F007
S11301D089819A817CD400000F900F90DF91CF9198
S11301E00895CF93DF9300D0CDB7DEB79A83898388
S11301F089819A8125E630E0FC0133832283898159
S11302009A8120E830E0FC013583248300000F90BC
S11302100F90DF91CF910895CF93DF9300D0CDB7A6
S1130220DEB786E090E0BBD39A83898389819A8183
S1130230892B19F089819A811BD089819A810F9029
S11302400F90DF91CF910895CF93DF9300D0CDB776
S1130250DEB79A83898389819A81892B19F08981F0
S11302609A8135D400000F900F90DF91CF910895BB
S1130270CF93DF9300D0CDB7DEB79A83898389818A
S11302809A812CE631E0FC013383228389819A81AF
S11302902AE731E0FC013583248300000F900F909E
S11302A0DF91CF910895CF93DF9300D000D0CDB7E5
S11302B0DEB79A8389837C836B8389819A812B81BE
S11302C03C81FC013183208300000F900F900F903C
S11302D00F90DF91CF910895CF93DF9300D0CDB7E6
S11302E0DEB79A83898384E190E00F900F90DF91C9
S11302F0CF910895CF93DF9300D0CDB7DEB79A8323
S1130300898382E390E0A0E0B0E0BC01CD010F90CE
S11303100F90DF91CF910895CF93DF9300D0CDB7A5
S1130320DEB786E090E03BD39A83898389819A8102
S1130330892B19F089819A811BD089819A810F9028
S11303400F90DF91CF910895CF93DF9300D0CDB775
S1130350DEB79A83898389819A81892B19F08981EF
S11303609A81B5D300000F900F90DF91CF9108953B
S1130370CF93DF9300D0CDB7DEB79A838983898189
S11303809A8123ED31E0FC013383228389819A81B0
S113039028EE31E0FC013583248300000F900F9098
S11303A0DF91CF910895CF93DF9300D0CDB7DEB71F
S11303B09A83898389819A81FC012281338189818D
S11303C09A81F90109950F900F90DF91CF910895CB
S11303D0CF93DF9300D0CDB7DEB79A838983898129
S11303E09A81FC012481358189819A81F9010995D9
S11303F00F900F90DF91CF910895CF93DF93CDB7F6
S1130400DEB762970FB6F894DEBF0FBECDBFCE0144
S113041001962EDFCE010796E4DECE0107969E01FB
S11304202F5F3F4FB90198DECE010D96A1DFCE01BB
S113043007964BDE292F2F938F9386E091E0892F27
S11304408F9386E091E08F93CBD30F900F900F9012
S11304500F90CE01079654DE292F2F938F938CE1B2
S113046091E0892F8F938CE191E08F93B9D30F9012
S11304700F900F900F902F853889CE010796F901C0
S11304800995292F2F938F9386E091E0892F8F93DD
S113049086E091E08F93A4D30F900F900F900F906C
S11304A029893A89CE010796F9010995292F2F93B5
S11304B08F938CE191E0892F8F938CE191E08F935E
S11304C08FD30F900F900F900F90FFCFCF93DF93A8
S11304D000D0CDB7DEB79A83898389819A81FC01E4
S11304E080819181FC012281338189819A81FC017F
S11304F080819181F9010995DC01CB01BC01CD0119
S11305002ED1DC01CB019C0144E6429FC001439FF4
S1130510900D11240F900F90DF91CF910895CF93F8
S1130520DF9300D000D000D0CDB7DEB79E838D839B
S11305308D819E81FC0180819181FC012481358122
S11305408D819E81FC0180819181F9010995DC01F5
S1130550CB0120E030E04AE754E4BC01CD0181D175
S1130560DC01CB0120E030E040E752E4BC01CD01E6
S11305708ED0DC01CB0189839A83AB83BC838D81CC
S11305809E81FC0180819181FC01228133818D81D6
S11305909E81FC0180819181F9010995DC01CB01E7
S11305A029813A814B815C81BC01CD015AD1DC01A6
S11305B0CB01BC01CD01D3D0DC01CB0126960FB613
S11305C0F894DEBF0FBECDBFDF91CF910895CF93D6
S11305D0DF9300D000D0CDB7DEB79A8389837C83C4
S11305E06B8389819A812B813C81FC013183208337
S11305F000000F900F900F900F90DF91CF9108950E
S1130600CF93DF9300D0CDB7DEB786E090E0C7D1BB
S11306109A83898389819A81892B19F089819A81A6
S11306201BD089819A810F900F90DF91CF9108950B
S1130630CF93DF9300D0CDB7DEB79A8389838981C6
S11306409A81892B19F089819A8141D200000F90F7
S11306500F90DF91CF910895CF93DF9300D0CDB762
S1130660DEB79A83898389819A8126E632E0FC0188
S11306703383228389819A812FE832E0FC01358318
S1130680248300000F900F90DF91CF9108950CD038
S1130690AEC0A6D040F09DD030F021F45F3F19F0F9
S11306A08FC05111D8C092C0B3D098F39923C9F325
S11306B05523B1F3951B550BBB27AA276217730764
S11306C0840738F09F5F5F4F220F331F441FAA1F18
S11306D0A9F333D00E2E3AF0E0E830D091505040D8
S11306E0E695001CCAF729D0FE2F27D0660F771F86
S11306F0881FBB1F261737074807AB07B0E809F068
S1130700BB0B802DBF01FF2793585F4F2AF09E3FFC
S1130710510568F055C09FC05F3FECF3983EDCF391
S1130720869577956795B795F7959F5FC9F7880F75
S1130730911D9695879597F90895E1E0660F771FC7
S1130740881FBB1F621773078407BA0720F0621B58
S1130750730B840BBA0BEE1F88F7E095089504D051
S11307606894B11178C008955BD088F09F5790F0D9
S1130770B92F9927B751A0F0D1F0660F771F881FC2
S1130780991F1AF0BA95C9F712C0B13081F062D03E
S1130790B1E008955FC0672F782F8827B85F39F0DC
S11307A0B93FCCF3869577956795B395D9F73EF421
S11307B090958095709561957F4F8F4F9F4F0895C9
S11307C097F99F6780E870E060E008959FEF80EC00
S11307D0089500240A9416161706180609060895A3
S11307E000240A9412161306140605060895092E09
S11307F00394000C11F4882352F0BB0F40F4BF2B78
S113080011F460FF04C06F5F7F4F8F4F9F4F0895B7
S113081057FD9058440F551F59F05F3F71F04795AD
S1130820880F97FB991F61F09F3F79F08795089592
S1130830121613061406551FF2CF4695F1DF08C0B1
S1130840161617061806991FF1CF869571056105CE
S113085008940895E894BB2766277727CB0197F976
S113086008950BD0C4CFB5DF28F0BADF18F0952374
S113087009F0A6CFABCF1124EECFCADFA0F3959F2A
S1130880D1F3950F50E0551F629FF001729FBB2773
S1130890F00DB11D639FAA27F00DB11DAA1F649F1F
S11308A06627B00DA11D661F829F2227B00DA11DD2
S11308B0621F739FB00DA11D621F839FA00D611D58
S11308C0221F749F3327A00D611D231F849F600D79
S11308D0211D822F762F6A2F11249F5750408AF0B2
S11308E0E1F088234AF0EE0FFF1FBB1F661F771F3E
S11308F0881F91505040A9F79E3F510570F060CF7A
S1130900AACF5F3FECF3983EDCF386957795679525
S1130910B795F795E7959F5FC1F7FE2B880F911D5B
S11309209695879597F90895A1E21A2EAA1BBB1BE9
S1130930FD010DC0AA1FBB1FEE1FFF1FA217B307A7
S1130940E407F50720F0A21BB30BE40BF50B661FBD
S1130950771F881F991F1A9469F760957095809581
S113096090959B01AC01BD01CF01089509D0A59FCD
S1130970900DB49F900DA49F800D911D1124089596
S1130980A29FB001B39FC001A39F700D811D1124CC
S1130990911DB29F700D811D1124911D08950F9317
S11309A01F93CF93DF938230910510F482E090E09F
S11309B0E0912C01F0912D0120E030E0A0E0B0E0C6
S11309C0309719F1408151810281138148175907E9
S11309D0C8F08417950769F4109731F012960C93B8
S11309E0129713961C9327C000932C0110932D018A
S11309F022C02115310519F04217530718F49A0142
S1130A00BD01EF01DF01F801DBCF21153105F9F05C
S1130A10281B390B2430310580F48A819B816115B0
S1130A20710521F0FB019383828304C090932D010F
S1130A3080932C01FE01329644C0FE01E20FF31FA5
S1130A408193919322503109398328833AC02091AC
S1130A502A0130912B01232B41F420910201309182
S1130A60030130932B0120932A012091000130913E
S1130A7001012115310541F42DB73EB74091040120
S1130A8050910501241B350BE0912A01F0912B01B3
S1130A90E217F307A0F42E1B3F0B2817390778F051
S1130AA0AC014E5F5F4F2417350748F04E0F5F1FB0
S1130AB050932B0140932A018193919302C0E0E06B
S1130AC0F0E0CF01DF91CF911F910F910895CF9363
S1130AD0DF93009709F481C0FC01329713821282DC
S1130AE0A0912C01B0912D01109781F420813181C6
S1130AF0820F931F20912A0130912B012817390767
S1130B0051F5F0932B01E0932A0167C0ED0120E039
S1130B1030E0CE17DF0740F44A815B819E01411526
S1130B205105F1F0EA01F5CFD383C28340815181AD
S1130B30840F951FC817D90759F488819981840FA8
S1130B40951F0296918380838A819B8193838283FC
S1130B502115310529F4F0932D01E0932C013DC0BA
S1130B60E901FB83EA8349915991C40FD51FEC171E
S1130B70FD0761F480819181840F951F0296E9013C
S1130B8099838883828193819B838A83E0E0F0E068
S1130B9012968D919C911397009719F0FD01DC0139
S1130BA0F7CF8D919C9111979D012E5F3F4F820F3E
S1130BB0931F20912A0130912B012817390769F4DA
S1130BC0309729F410922D0110922C0102C0138247
S1130BD01282B0932B01A0932A01DF91CF91089543
S1130BE0CF93DF93CDB7DEB7AE014B5F5F4FFA0112
S1130BF061917191AF01809130019091310103D0E5
S1130C00DF91CF9108952F923F924F925F926F920E
S1130C107F928F929F92AF92BF92CF92DF92EF9288
S1130C20FF920F931F93CF93DF93CDB7DEB72B972C
S1130C300FB6F894DEBF0FBECDBF6C017B018A01F5
S1130C40FC0117821682838181FFBFC1CE01019608
S1130C503C01F6019381F70193FD859193FF819106
S1130C607F01882309F4ADC1853239F493FD859160
S1130C7093FF81917F01853221F4B60190E0D6D1B2
S1130C80E8CF912C212C312CFFE1F315D8F08B32D5
S1130C9079F038F4803279F08332A1F4232D206185
S1130CA01DC08D3261F0803369F4232D216016C09C
S1130CB0832D8260382EE32DE4603E2E2AC0F32D6E
S1130CC0F8601DC037FC2DC020ED280F2A3040F0FD
S1130CD08E32B9F436FC75C1232D2064322E19C02E
S1130CE036FE06C08AE0989E200D1124922E11C073
S1130CF0EAE02E9E200D1124222EF32DF0623F2EC9
S1130D0008C08C3621F4832D8068382E02C08836C2
S1130D1041F4F70193FD859193FF81917F01811146
S1130D20B3CF982F9F7D9554933028F40C5F1F4FB9
S1130D309FE399830DC0833631F0833771F0833597
S1130D4009F055C020C0F801808189830E5F1F4FD0
S1130D5088248394912C530112C02801F2E04F0E91
S1130D60511CF801A080B18036FE03C0692D70E0EB
S1130D7002C06FEF7FEFC5014ED14C018201F32D0C
S1130D80FF773F2E15C0280122E0420E511CF801C6
S1130D90A080B18036FE03C0692D70E002C06FEF01
S1130DA07FEFC5012DD14C01F32DF0683F2E820158
S1130DB033FC19C0822D90E088169906A0F4B60180
S1130DC080E290E033D12A94F5CFF50137FC859188
S1130DD037FE81915F01B60190E028D121102A9459
S1130DE021E0821A91088114910479F7E1C08436D4
S1130DF011F0893639F5F80137FE07C06081718139
S1130E00828193810C5F1F4F08C060817181072E1E
S1130E10000C880B990B0E5F1F4FF32DFF763F2EAE
S1130E2097FF09C090958095709561957F4F8F4F7E
S1130E309F4FF0683F2E2AE030E0A30133D1882E83
S1130E40861844C0853731F4232D2F7EB22E2AE034
S1130E5030E025C0932D997FB92E8F36C1F018F458
S1130E60883579F0AEC0803719F0883721F0A9C0F1
S1130E70E92FE061BE2EB4FE0DC0FB2DF460BF2E41
S1130E8009C034FE0AC0292F2660B22E06C028E00D
S1130E9030E005C020E130E002C020E132E0F8019A
S1130EA0B7FE07C060817181828193810C5F1F4FFF
S1130EB006C06081718180E090E00E5F1F4FA30146
S1130EC0F1D0882E8618FB2DFF773F2E36FE0DC0FD
S1130ED0232D2E7FA22E891458F434FE0BC032FC2D
S1130EE009C0832D8E7EA82E05C0B82CA32C03C068
S1130EF0B82C01C0B92CA4FE0FC0FE01E80DF11DF1
S1130F008081803321F49A2D997EA92E09C0A2FEF6
S1130F1006C0B394B39404C08A2D867809F0B394C0
S1130F20A3FC10C0A0FE06C0B21480F4280C922CBE
S1130F309B180DC0B21458F4B60180E290E076D04C
S1130F40B394F8CFB21418F42B1802C0982C212CA7
S1130F50A4FE0FC0B60180E390E068D0A2FE16C0E4
S1130F60A1FC03C088E790E002C088E590E0B601E8
S1130F700CC08A2D867851F0A1FE02C08BE201C01C
S1130F8080E2A7FC8DE2B60190E050D0891430F4E1
S1130F90B60180E390E04AD09A94F8CF8A94F301A2
S1130FA0E80DF11D8081B60190E040D08110F6CFAC
S1130FB0222009F44ECEB60180E290E037D02A9484
S1130FC0F7CFF6018681978102C08FEF9FEF2B96B2
S1130FD00FB6F894DEBF0FBECDBFDF91CF911F9146
S1130FE00F91FF90EF90DF90CF90BF90AF909F90C4
S1130FF08F907F906F905F904F903F902F900895C7
S1131000FC010590615070400110D8F780959095CF
S11310108E0F9F1F0895FC016150704001900110D4
S1131020D8F7809590958E0F9F1F08950F931F9367
S1131030CF93DF93FB01238121FD03C08FEF9FEF4B
S11310402CC022FF16C04681578124813581421766
S1131050530744F4A081B1819D012F5F3F4F318339
S113106020838C93268137812F5F3F4F37832683DC
S113107014C08B01EC01FB010084F185E02D09957E
S1131080892BE1F6D80116968D919C9117970196BC
S113109017969C938E931697CE01DF91CF911F9153
S11310A00F910895FA01AA27283051F1203181F1D6
S11310B0E8946F936E7F6E5F7F4F8F4F9F4FAF4F5C
S11310C0B1E03ED0B4E03CD0670F781F891F9A1F6F
S11310D0A11D680F791F8A1F911DA11D6A0F711D23
S11310E0811D911DA11D20D009F468943F912AE02F
S11310F0269F11243019305D3193DEF6CF01089517
S1131100462F4770405D4193B3E00FD0C9F7F6CF47
S1131110462F4F70405D4A3318F0495D31FD40520F
S1131120419302D0A9F7EACFB4E0A69597958795A5
S113113077956795BA95C9F7009761057105089584
S11311409B01AC010A2E0694579547953795279530
S1131150BA95C9F7620F731F841F951FA01D0895C8
S1071160F894FFCF2D
S11311640000340120004F3220436F6E63656E74B7
S1131174726174696F6E3A2025640A004F32204606
S10D11846C6F773A2025640A00001E
S9030000FC
