:1000000010040020E10B0000DF020000DF0200000E
:10001000DF020000DF020000DF020000000000003D
:10002000000000000000000000000000DF020000EF
:10003000DF02000000000000DF020000DF0200001D
:100040001FB504002068002801D1002006E02068C8
:100050000168684600F0FDF89DF8010004B010BD8D
:100060001FB504002068002801D1002005E02068A9
:100070000168684600F0EDF8019804B010BD1FB5A6
:1000800004002068002801D1002006E020680168F3
:10009000684600F0DEF89DF8080004B010BD41602D
:1000A000026070470168002906D001680A684FF6AF
:1000B000FE710A4001680A6070470168002905D096
:1000C0000168096851F001010268116070471FB5AD
:1000D00004002068002825D001208DF800000020B1
:1000E0008DF801000020019000208DF8080000200C
:1000F0008DF8090000208DF80A0000208DF80B0013
:1001000000208DF80C0000208DF80D0000208DF8E7
:100110000E0000208DF80F0068460FC800F04CF864
:10012000216808601FBD2DE9704F86B004000E00E5
:1001300015002068002835D02068016802A800F06A
:1001400088F88DF809606068002824D0280000F045
:10015000B9F880468946606800F0B4F8CDE900013E
:100160004046494600225FF0804300F0B9F80F4A4C
:100170000F4B00F0B5F8DDE9002300F0B1F80022E4
:100180000C4B00F0D1F982468B465046594600F0A0
:100190009DFA039000E0039502A80FC800F00CF848
:1001A0002168086006B0BDE8708F00006E861BF005
:1001B000F9210940000024400FB400209DF80010F0
:1001C000002901D050F001009DF80110012902D151
:1001D00050F0040005E09DF80110022901D150F013
:1001E00002000199202902D2019950EAC1009DF82C
:1001F0000810002901D050F480709DF809100029E2
:1002000001D050F400709DF80A10002901D050F47C
:1002100080609DF80B10002901D050F400609DF81B
:100220000C10002901D050F480509DF80D100029C9
:1002300001D050F400509DF80E10002901D050F468
:1002400080409DF80F10002901D050F4004004B008
:10025000704738B584B00C0014F001018DF800101F
:10026000C4F34105012D03D102218DF8011008E0EE
:10027000022D03D101218DF8011002E000218DF83B
:100280000110C4F3C401019100218DF80810002170
:100290008DF8091000218DF80A1000218DF80B103F
:1002A00000218DF80C1000218DF80D1000218DF823
:1002B0000E1000218DF80F106946102200F024FA6C
:1002C00005B030BD014648B1B0FA80F18840C91C84
:1002D000C1F58461090501EBD02140057047FEE7B7
:1002E000F0B540F2FF7581EA030C0CF0004C15EA02
:1002F00011541DBF15EA1357AC42AF42E5E0BC41B3
:10030000C1F31301C3F31303801A994143F480131B
:1003100004D2641E4000494180185941C90241EA93
:100320005051B1FBF3F603FB1611A2FB0675D7EB98
:10033000C020A94102D2761E80185941C90241EA63
:100340005051B1FBF3FE03FB1E11A2FB0E75D7EB60
:10035000C020A94103D2AEF1010E80185941890293
:1003600041EA9051760546EA8E2EB1FBF3F603FB87
:100370001611A2FB0675D7EB8020A94102D2761E8A
:1003800080185941C90241EA50514EEA060EB1FBAC
:10039000F3F603FB1611A2FB0675D7EBC020A941AB
:1003A00002D2761E80185941C90241EA5051B1FB70
:1003B000F3F703FB1711A2FB0735D3EBC020A941CC
:1003C00067F100070CBF004247F0010766F3D5272D
:1003D0004FEA1E31B80814F5806412DDBD0775F1CF
:1003E000004250EB0E5051EB045111F5801F5CBFE1
:1003F00041EA0C01F0BD4CF07F6141F0E04100208A
:10040000F0BDBD076D0840EA0E5041F48011D4F1F3
:100410000104B4F120060ADAC4F120060200E0402B
:1004200001FA06F3E1401843B24015430EE0342CC4
:1004300013DCC6F1200445EA40056D0820FA06F2F7
:10044000154321FA06F0A1400D43002175F1004249
:1004500050F1000051EB0C01F0BD00205FEA0C01EF
:10046000F0BDCFB992185B41B3FA83F704BFB2FA7B
:1004700082F6BF190B3FB7F120062FBF02FA06F331
:10048000BB40C7F1200622FA06F638BF3343BA4014
:100490001CB1E419641E33E77F4231F00041B1FA28
:1004A00081F404BFB0FA80F6A4190B3CB4F1200625
:1004B0002FBF00FA06F1A140C4F1200620FA06F68B
:1004C00038BF3143A0403C1B1AE7AC421ABF05EAD3
:1004D0001357AF4212E050EA41061CBF52EA4306EE
:1004E000BFE750EA4107304661461CBF41EA05516B
:1004F000F0BD52EA430C08BFC143F0BD00204FF4E9
:10050000001616EB410F98BF16EB430F08BF16EB12
:10051000410F24BFC14305E016EB430F0CBF6146FA
:100520004CEA0551F0BD0000B0B581EA030C0CF0B7
:10053000004C40F2FF7515EA11541DBF15EA135720
:10054000AC42AF4239E0E41923EA455343F4801347
:10055000C90241F0004141EA505EC7021100A7FB09
:10056000020200284FF00000EEFB01204FF00001D6
:10057000E3FB072118BF42F0010240180021494166
:10058000E3FB0E01A4F580640F0302D25200404148
:10059000494154F101046CDD470872F1004250F109
:1005A000000051EB0451A1F580115CBF41EA0C0140
:1005B000B0BD4CEA05510020B0BD05EA1357AC426E
:1005C00014BFAF4241E050EA410E1CBF52EA430E55
:1005D00002E061460020B0BD24423C441BD15FEAEA
:1005E000070EF6D0090302BF01460020AEF1140E3B
:1005F000B1FA81F7AEEB070401FA07FE0C37C7F139
:10060000200100FA07F7C8404EEA000E23EA4553DE
:1006100043F48013A2E733F00043B3FA83F704BF37
:10062000B2FA82FE77440B3FE41BB7F1200E2FBFD6
:1006300002FA0EF3BB40C7F1200E22FA0EFE38BFBD
:1006400043EA0E03BA40641C82E750EA410E14BF2D
:1006500052EA430E6FF000014FF4001717EB430FFF
:100660008ABF194617EB410FB5E74CEA0551002048
:10067000B0BDD4F10104B4F120070FDAC4F12007B2
:10068000520828BF42F0010210FA07F501FA07F7F5
:10069000E1BF2A43E0403843E1400FE0352C98DCCD
:1006A000C7F1200452EA400220FA07F218BF42F0D4
:1006B000010231FA07F0A1400A43002172F1004221
:1006C00050F1000051EB0C01B0BD0000C1F30A5322
:1006D00040F2FE329B1A14DDD3F120034FEAE1729F
:1006E00008DDC90241EA505141F00040D84080186D
:1006F0005040704703F2E13010B1D24382F0004025
:100700007047002070470000103A07D330B4B1E8BA
:100710003810103AA0E83810F9D230BC530724BF83
:10072000B1E80810A0E8081044BF51F8043B40F8B5
:10073000043BD20724BF31F8022B20F8022B44BF20
:100740000B7803707047083A07D3B1E80810083AED
:1007500040F8043B40F804CBF7D25307E4E770B508
:100760001C000546164606D0084616F8011BA84789
:10077000641EFAD10146084670BD2DE9FC4383B0E2
:100780008146884617461D4607E001233A46414602
:100790004846FFF7E4FF80467F1C3878E0B1252803
:1007A000F3D17978BF1C252912D058295AD0632952
:1007B00015D0642918BF692918D06F2952D0702923
:1007C00056D073295BD0752918BF78294AD0E4E741
:1007D0004046C8478046E0E705B0BDE8F08328689A
:1007E000286050F8041B2860C9B2F1E72868286027
:1007F00050F8046B2860002E03D52D214046C847D1
:10080000804664216F2908BF082205D041F02000EE
:10081000782814BF0A2210220B246429304602D102
:10082000002E48BF4042B0FBF2FC02FB1C003030FF
:10083000641EC3B23A2BA4BFA1F1510318180DF8DE
:1008400004005FEA0C0001D0002CECDC0DEB040688
:10085000D4F10B044046BDD016F8011BC847641EF6
:10086000FAD1B7E72868286050F8046B2860C9E718
:1008700028682860782150F8046B2860C2E728684F
:10088000286050F8046B2860304600F009F8040036
:1008900040469FD016F8011BC847641EFAD199E75D
:1008A00000F10103810704D010F8011B89B1810711
:1008B000FAD10268B2F10131914311F0803F04BFD7
:1008C00050F8042FF6E710F8011B11B110F8011BC6
:1008D000FBE7C01A7047000010B500F052F80200A4
:1008E0000023DB4300241068984203D0110002204B
:1008F000ABBE14605068984203D0111D0220ABBEFD
:10090000546010BDF0B583B0040000F03AF8A100C7
:1009100047183D680026F643B54216D100F01AF894
:100920003D68B5420FD100BF09A00090002C01D155
:10093000002000E00420019003200290694601207D
:10094000ABBE05003D6000F014F8280003B0F0BD18
:100950003A7474000C480121BFF35F8FD0E84F3F19
:10096000C0E8421F002AF9D1BFF35F8F002BF3D1FB
:1009700070470548BFF35F8F00210170BFF35F8FA1
:100980007047024870470000080000200000002067
:100990001FB501AC6A4600212000FFF780FB200054
:1009A000FFF795FB0A2201212000FFF7BCFB21681D
:1009B0000F4800F025F82000FFF742FB0100C9B204
:1009C0000C4800F01DF82000FFF74AFB01000A4820
:1009D00000F016F82000FFF752FB0100074800F076
:1009E0000FF82000FFF75EFB2000FFF766FBFEE735
:1009F0006C0B0000840B0000CC0B00009C0B000073
:100A00000EB4C0B5024603A800210190009101ABCD
:100A10000121044878440C30FFF7AFFE06BC5DF8B6
:100A200010FB00BF9101000010B450F8041B79B115
:100A30000268436802440830DC0744BFA9F101049E
:100A4000E31852F8044B43F8044B091FF9D1ECE7C3
:100A500010BC704710B5074979441831064C7C44E6
:100A6000163404E00A68081D114488470146A14273
:100A7000F8D110BD2C0000003C00000018B583B078
:100A80000300140000930191029469460520ABBE57
:100A900001221900201AAFF3008004B010BD00003D
:100AA00089FFFFFF0C00000044010000000000204F
:100AB0000000000080B58DF8000001226946012089
:100AC00000F008F8012802D19DF8000002BD4FF0A7
:100AD000FF3002BD80B5002802D400F003F802BD4B
:100AE000002002BD80B5002901D1002002BD0128EF
:100AF00001D0022802D100F004F802BDFFF7BEFFCA
:100B000002BD30B583B00C0015000120FFF7FAFEDE
:100B100000900194029569460520ABBE281A03B0E7
:100B200030BD000000F00DF8002801D0FFF792FF63
:100B3000AFF300800020AFF30080FFF729FF00F043
:100B400002F80120704700F001B80000074638465F
:100B500000F002F8FBE7000080B5FFF7BDFE024A97
:100B600011001820ABBEFBE7260002004D6F746F2A
:100B70007220616464726573733A20307825580A74
:100B8000000000004D6F746F7220646972656374B9
:100B9000696F6E3A2025640A000000004D6F746F83
:100BA00072206572726F722073746174653A2025C9
:100BB000640A000038B504460D462846FFF77AFF60
:100BC000A84218BF0024204632BD00004D6F746F4C
:100BD000722073706565643A2025640A0000000085
:100BE000AFF30080AFF30080FFF79CFFFFFFFFFF34
:080BF000FFFFFFFF0000000001
:0400000500000BE10B
:00000001FF
