:1000000010040020951900005B0C00005B0C000040
:100010005B0C00005B0C00005B0C000000000000AB
:100020000000000000000000000000005B0C000069
:100030005B0C0000000000005B0C00005B0C00008B
:100040002DE9F0439FB00FF6AC36269CDFF81C89F3
:1000500002918DF83B4000210B914FF0FF37044691
:1000600091461D460AE019F8011B0298A047002896
:10007000029000F0A4800B98401C0B9099F80000AF
:1000800050B12528EFD1002000210590069107905E
:10009000089109900A9103E00B98A3E041F0010157
:1000A00019F8010F2028F9D023280CD02B2804D0D0
:1000B0002D2805D0302809D083E041F00201EFE778
:1000C00041F00401ECE741F00801E9E741F01001DB
:1000D000E6E700200D900AE00D98404505DA00EBB8
:1000E000800302EB4302303A0D9209F1010999F8BD
:1000F0000020A2F130000A28EED399F800002E2843
:1001000018BF0C9726D119F8010F2A2808D12868A2
:10011000286009F1010950F8042B28600C9219E0BD
:100120002D280CBF19F8010B002000220C920BE0C7
:1001300040B90C9A424505DA02EB820203EB420316
:10014000303B0C9309F1010999F80030A3F130021A
:100150000A2AEDD3ADF83810304699F8001000F0B7
:100160007DFD08B119F8010B8DF83A009DF83A00B1
:10017000682804BF99F80010682903D162208DF81F
:100180003A0008E06C2804BF99F800006C2804D1FC
:1001900071218DF83A1009F1010910A804902A463E
:1001A00019F8013B6946204600F05CF838B910AAFE
:1001B0006946204600F084F900287FF55FAF384695
:1001C00010E02A2885D12A682A6052F8040B2A6098
:1001D00000280D9003D540420D9041F0040109F133
:1001E00001098AE71FB0BDE8F083622820D06828A3
:1001F00011D06A2803D06C2827D0712825D108682F
:10020000C01D20F007000860D0E900230830086016
:10021000194610467047002A0A680A60106803D021
:10022000121D0A6000B217E0121D0A6080B217E0CA
:10023000002A0A680A60106803D0121D0A6040B2E2
:100240000AE0121D0A60C0B20AE0002A0A680A60C9
:10025000106803D0121D0A60C1177047121D0A6092
:100260000021704770B51C460D46B4F125002E697B
:10027000114600F013812038022865D9133841D087
:100280000B3816D0401E1ED0401E02285CD9001F1D
:1002900019D0401F00F08380401E33D0401E00F074
:1002A000CD80C01E00F0D880801E2BD0C01E29D06B
:1002B000FAE06869421C6A610A680A6052F8043B05
:1002C0000A603354FAE095F83A000122FFF78DFFF7
:1002D000C5E900010023994204DA6869411C69619B
:1002E0002D210DE0288F810704D56869411C6961C3
:1002F0002B2105E0C00722D56869411C69612021D6
:1003000031541CE095F83A000022FFF76EFFC5E972
:10031000000195F83800010711D5D5E90023002028
:10032000834208BF82420AD044F02000782806D1D8
:10033000686930213154401C411C696134542146A4
:1003400068693044E86083E00868C01D20F0070059
:100350000860D0E9002308300860C5E90023D5E92A
:100360000001C80F04D06869411C69612D210DE0AE
:10037000288F810704D56869411C69612B2105E03C
:10038000C00704D56869411C69612021315468693E
:100390003044E8602146284600F0C4F98EE005F1BB
:1003A0003A02507820B14FF0FF340FF650005EE073
:1003B0001078622808D0682824D06A2812D06C28C7
:1003C0002ED071280ED02BE00A680A6052F8040B78
:1003D0000A6020B94FF0FF340FF6380047E0E96AB1
:1003E00001706BE00A680A6052F8040B0A6020B9D9
:1003F0004FF0FF340FF61C0039E0EA6AD317C0E96A
:1004000000235BE00A680A6052F8040B0A6020B916
:100410004FF0FF340FF2FC7029E0E96A01804DE0F3
:100420000A680A6052F8040B0A6020B94FF0FF34E2
:100430000FF2E0701BE0E96A01603FE00A680A60C1
:1004400052F8040B0A600021C5E90001EE60782132
:10045000284600F0BBF831E00868086050F8044B0B
:100460000860EC603CB94FF0FF340FF2C07000F050
:1004700001FC201A70BD2E6B002E04D5204600F022
:1004800019FC044608E032460021204600F02EFC0C
:10049000002814BF041B3446AC610FE06869411C9E
:1004A00069612521315409E06969481C6861252288
:1004B0007254210002D0411C69613454002070BD87
:1004C0002DE9FC410F460646796B7869BC6A091A2A
:1004D000386A091AB869091A786A091AF869091A8A
:1004E00097F838000C1B410790460FD42021002CB0
:1004F0008DF800100ADD254601236A46394630464C
:1005000000F060FB00285DD16D1EF5D17B6942468D
:100510003946304600F056FB002853D130208DF884
:1005200000003D6A002D09DD01236A463946304648
:1005300000F048FB002845D16D1EF5D1BB69FA6873
:100540003946304600F03EFB00283BD130208DF884
:1005500000007D6A002D08DD01236A4639463046D9
:1005600000F030FB70BB6D1EF6D1F868B969FB690D
:1005700042183946304600F025FB18BB30208DF874
:100580000000BD6A002D08DD01236A463946304669
:1005900000F018FBB0B96D1EF6D197F8380041078E
:1005A0000DD52021002C8DF8001008DD01236A46AE
:1005B0003946304600F006FB20B9641EF6D1002013
:1005C000BDE8F6814FF0FF30BDE8F6812DE9FC472C
:1005D00007468A463E69BAF16F0F08BF082405D066
:1005E0004AF02001782914BF0A2410243C25D7E9B9
:1005F0000023BAF1640F18BFBAF1690F904699460B
:1006000006D100218B4203DAD8F1000869EB4909D1
:100610000020814508BF80451FD1386BE8B9082C00
:100620004CD197F83800010748D530203B2586F893
:100630003B0043E000280ED597F8380000F0140086
:10064000102808D17A6B7869121A386A121A511A6E
:100650000029C8BF3962BDE8F3878DF800A0404685
:1006600049462246E31700F06DFB3032D0B26D1ED2
:100670003A28019504DB9DF80000A0F151018A1889
:100680007255404649462246E31700F05BFB804620
:1006900089460020814508BF804503D0F86871195C
:1006A0008842DCD3082C09D197F83800010705D51A
:1006B000715D302902D06D1E30207055C5F13C01AE
:1006C000B9617019F860386B8142B3DA411A396246
:1006D0004FF6EF70398F01403987BDE8F3872DE978
:1006E000D04306460F4614464FF00008DFF88092CC
:1006F00012E0E00707D542464B463046394600F047
:1007000039FC06460F464046494642464B4600F0F5
:1007100031FC641080468946002CEAD130463946C7
:10072000BDE8D0832DE9F84F05468CB0286BD5E99C
:10073000009B00288A4602AF02D50620286305E008
:1007400001BF4AF02000672801212963D5E9008410
:1007500060004015401C0DD121030BD0AAF16101AE
:1007600003201A29A86102D20FF2DC4110E00FF237
:10077000DC410DE060004015401C0ED121030CD17E
:10078000AAF1610103201A29A86116D30FF2C4410E
:10079000E868032200F0C0FCE4E024F00043B3F575
:1007A000801F28F0000211D20026B34208BFB242D7
:1007B000019605D14046214618E00FF29441E7E743
:1007C00001AA4046214600F0E3FC08E069486A4976
:1007D00000EB135001900C40684940462143019BB7
:1007E000674E47F29752534393FBF6F6C5E9000173
:1007F00020F0000221F000430020834204BF824227
:10080000002300F0A780484659460022002300F04C
:10081000F7FC38BF8BF0004B3246D2F1070201964D
:1008200003DD5946FFF75BFF0AE0524200205549BD
:10083000FFF755FF02460B464846594600F0F8FCC4
:1008400081464AF0200000906628286B06BF019F71
:100850000A3706273F18142FC8BF142730208B46AD
:100860008DF808000DF10906002F34DD4846594681
:1008700000F002FE01460B4606F1080204200A269B
:10088000B3FBF6F606EB8604A3EB4403303302F821
:10089000013C0A23B6FBF3F303EB8304A6EB440607
:1008A0003036401E02F8026DE9D1083F002F02F1F8
:1008B0000806D9DD084600F0F3FD02460B4648461F
:1008C000594600F0FBFD304C0022234600F052FB5D
:1008D00081468B46CAE70DF10900361A0DF109076A
:1008E00004E00198401E761E01907F1C3878302865
:1008F000F7D00099662902D10198401C03E06529D0
:100900000CBF012000202B6BC3189E42B8BF731E82
:10091000002B1ED4B34204DAF85C3528A8BF392076
:1009200000DA302019467A1E02EB010900E05B1E56
:1009300019F801B9491E8345F9D0392802D1785CEC
:10094000401C7854002904D50198401C17465B1CB4
:100950000190019800B200901BB23A4651462846D9
:1009600000F014F80DB0BDE8F08F0000CBCCCC0C3B
:100970000000244002FCFFFFFFFF0F800000E03F6B
:10098000A08601000000F03F84D797412DE9FC4389
:10099000054683B01F462E6B002F904602DC0127D0
:1009A0000FF2B4288946BDF9304049F0200066288E
:1009B00008BF641C13D0672840F08D8014F1040F29
:1009C00078DBB44276DA95F83800641C010702D46B
:1009D000B742B8BF3E4620B2361A48BF00260FFACB
:1009E00084F9E868A969B9F1000F23DC4A1C3023B7
:1009F0004354002E03DC95F83800010703D5E8685E
:100A00002E218154521C16EB090FB8BF744224B238
:100A100060426862A619BE42AA61B8BF3746E8685C
:100A2000AB693FB2EF613A464146184400F074FBAF
:100A3000F61B19E022B29742084417DA3A464146BB
:100A400000F06AFBA8693818A9EB0707002EA86117
:100A50006F6203DC95F838100A0705D5E9682E2285
:100A60000A54E869401CE861AE6294E0414600F037
:100A700053FBA8693F1B002E484403DC95F838104F
:100A80000A0703D5E9682E220A54401CA86138B22F
:100A90008642E868AB69B8BF37463AB208EB09014D
:100AA000184400F039FBA8693FB23818F71BA86159
:100AB0006F6270E0B74204DA95F838100A0758BF41
:100AC0003E46761E48BF0026B9F1670F0CBF4FF0B7
:100AD00065094FF04509A969EB68481CA861002E1B
:100AE00018F8012B5A5403DC95F838100A0717D56B
:100AF000EA68431CAB612E211154002E10DD7F1ECD
:100B000038B28642E868B8BF37463AB24146184420
:100B100000F002FBA8693FB23818F61BA8616E62AC
:100B2000E868A9690844002C80F8009003D42B21C0
:100B30004170811C03E02D2141706442811C002022
:100B40006A460AE023460A2493FBF4F404EB840685
:100B5000A3EB460302F8013B401C24B2002CF1DC5D
:100B6000012806DC49F02002652A04BF302201F882
:100B7000012B48B9302001F8010B07E0401E1DF899
:100B80000020303201F8012B0028F7DCE868AA6960
:100B90001044091AE96195F8380000F01400102893
:100BA0000DD16969A8694118686A4118E869411856
:100BB000A86A4118686B8142BCBF411A296205B01E
:100BC000BDE8F083F8B505460E4617461C460020E2
:100BD00074B117F8011BB068A847B06030B1F06A73
:100BE000401CF0620020641EF3D1F2BD4FF0FF30D4
:100BF000F2BD0000686A6C747A4C00007072696E15
:100C000074665F733A20256E20646973616C6C6F43
:100C1000776564007072696E74663A206261642060
:100C2000256E20617267756D656E74007072696EF5
:100C300074665F733A206261642025732061726775
:100C4000756D656E740000006E616E004E414E0061
:100C5000696E6600494E46003000FEE70278C9B270
:100C60008A421AB11CBF10F8012FF9E718BF002003
:100C70007047000080B500B906A005490B681BB19C
:100C800022220021984701E000F089FC222002BDC9
:100C900008000020636F6E73747261696E7420685F
:100CA000616E646C65723A20626164206D65737375
:100CB0006167650000F10103810704D010F8011B92
:100CC00089B18107FAD10268B2F10131914311F083
:100CD000803F04BF50F8042FF6E710F8011B11B154
:100CE00010F8011BFBE7C01A70470000C9B2830768
:100CF00006D0521E22D310F8013B9942F7D11FE0D3
:100D0000083A13D302F1040241EA012141EA014108
:100D100050F8043B121F21BF4B40A3F1013C2CEAC9
:100D2000030C1CF0803FF3D0C9B2001F083210F84A
:100D3000013B521E28BF91EA030FF8D818BF0120CB
:100D4000401E7047B3BBD9B1B2F5803F7DD2022AB5
:100D50001ED98C46B1FBF2F102FB11C31B0443EA1E
:100D60001043B3FBF2FC02FB1C3380B240EA0343A6
:100D7000B3FBF2F002FB103240EA0C400023704754
:100D8000022A05D98446B0FBF2F002FB10C270477C
:100D90004AB105D100F0010249085FEA300070470E
:100DA00000220023704700F0FDBB0B000200002171
:100DB00000207047904271EB030CF6D3B3F5803FEF
:100DC0002FD2F0B5B3FA83F7B1FA81F4A7F10F0E81
:100DD0003D1B5340CEF1200602FA0EF2F341534080
:100DE000B5F10F0746D80F3C2C444140C4F1200612
:100DF000A040F1414140B1FBF3F603FB1611A2FB09
:100E00000645001BA94102D2761E8018594180EA8E
:100E1000010221FA0EF362FA0EF200215A40304626
:100E2000F0BD30B4B1FBF3FC03FB1C11A2FB0C457D
:100E3000001BA94103D2ACF1010C8018594130BC10
:100E400002460B46604600217047B2F1807F65D3B1
:100E5000F0B5B2FA82F7B1FA81F4C7F10F063D1B83
:100E600022FA06F307F1110EF24120355A40B5F18E
:100E70000F07B8D94140C4F12006A040F1414140DC
:100E8000B1FBF3FC03FB1C11A2FB0C45001BA941A9
:100E900003D2BCF1010C801859410F2F12D30F3F20
:100EA000C90341EA5041B1FBF3F603FB1611A2FB63
:100EB0000645D4EBC030A94102D2761E80185941B4
:100EC00046EACC3C07B34140C7F12006B840F141A7
:100ED0004140B1FBF3F603FB1611A2FB0645001BD4
:100EE000A94102D2761E8018594180EA010221FAF6
:100EF0000EF3C7F1200462FA0EF20CFA07F05A4022
:100F00002CFA04F13043F0BD80EA010221FA0EF31D
:100F1000002162FA0EF260465A40F0BD8C46B1FBE9
:100F2000F2F102FB11C31B0243EA1063B3FBF2FCB4
:100F300002FB1C331B024CEA002043EA1063B3FBA4
:100F4000F2FC02FB1C331B024CEA002043EA106354
:100F5000B3FBF2FC02FB1C331B024CEA002043EA09
:100F60001063B3FBF2FC02FB1C324CEA00200023AE
:100F700070470000B0B581EA030C0CF0004C40F261
:100F8000FF7515EA11541DBF15EA1357AC42AF4265
:100F900039E0E41923EA455343F48013C90241F0D0
:100FA000004141EA505EC7021100A7FB020200287F
:100FB0004FF00000EEFB01204FF00001E3FB0721A2
:100FC00018BF42F00102401800214941E3FB0E0125
:100FD000A4F580640F0302D252004041494154F10C
:100FE00001046CDD470872F1004250F1000051EB42
:100FF0000451A1F580115CBF41EA0C01B0BD4CEA7F
:1010000005510020B0BD05EA1357AC4214BFAF42F2
:1010100041E050EA410E1CBF52EA430E02E0614635
:101020000020B0BD24423C441BD15FEA070EF6D03D
:10103000090302BF01460020AEF1140EB1FA81F798
:10104000AEEB070401FA07FE0C37C7F1200100FAE6
:1010500007F7C8404EEA000E23EA455343F48013D5
:10106000A2E733F00043B3FA83F704BFB2FA82FE7B
:1010700077440B3FE41BB7F1200E2FBF02FA0EF3AB
:10108000BB40C7F1200E22FA0EFE38BF43EA0E0322
:10109000BA40641C82E750EA410E14BF52EA430E84
:1010A0006FF000014FF4001717EB430F8ABF19468A
:1010B00017EB410FB5E74CEA05510020B0BDD4F164
:1010C0000104B4F120070FDAC4F12007520828BF49
:1010D00042F0010210FA07F501FA07F7E1BF2A43CF
:1010E000E0403843E1400FE0352C98DCC7F12004A4
:1010F00052EA400220FA07F218BF42F0010231FA28
:1011000007F0A1400A43002172F1004250F10000B3
:1011100051EB0C01B0BD000062B38B0708D0521E2A
:1011200011F8013B00F8013B00F024808B07F6D159
:10113000830740F0208000BF103A07D330B4B1E8F5
:101140003810103AA0E83810F9D230BC530724BF49
:10115000B1E80810A0E8081044BF51F8043B40F87B
:10116000043BD20724BF31F8022B20F8022B44BFE6
:101170000B7803707047083A07D3B1E80810083AB3
:1011800040F8043B40F804CBF7D25307E4E70000F3
:1011900010B5144600F002F8226010BDC1F30A53E6
:1011A00043B14A0012F5001F28D2A3F2FE32A1EB90
:1011B0000251704750EA410C20D001F0004C31EA56
:1011C0000C01B1FA81F204BFB0FA80F3D2180B3AE5
:1011D000B2F120032CBF00FA03F1914041EA0C0167
:1011E0003EBFC2F1200C20FA0CF31943904052424A
:1011F00040F2FD33D21A01EB0351704700227047D1
:101200004FF4001C1CEB410F94BF1CEB430F09E093
:1012100041EA030C50EA4C0C52EA0C0C03D29942FE
:1012200008BF9042704714BF8B4282427047000053
:10123000F0B540F2FF7581EA030C0CF0004C15EAA2
:1012400011541DBF15EA1357AC42AF42E5E0BC4153
:10125000C1F31301C3F31303801A994143F48013BC
:1012600004D2641E4000494180185941C90241EA34
:101270005051B1FBF3F603FB1611A2FB0675D7EB39
:10128000C020A94102D2761E80185941C90241EA04
:101290005051B1FBF3FE03FB1E11A2FB0E75D7EB01
:1012A000C020A94103D2AEF1010E80185941890234
:1012B00041EA9051760546EA8E2EB1FBF3F603FB28
:1012C0001611A2FB0675D7EB8020A94102D2761E2B
:1012D00080185941C90241EA50514EEA060EB1FB4D
:1012E000F3F603FB1611A2FB0675D7EBC020A9414C
:1012F00002D2761E80185941C90241EA5051B1FB11
:10130000F3F703FB1711A2FB0735D3EBC020A9416C
:1013100067F100070CBF004247F0010766F3D527CD
:101320004FEA1E31B80814F5806412DDBD0775F16F
:10133000004250EB0E5051EB045111F5801F5CBF81
:1013400041EA0C01F0BD4CF07F6141F0E04100202A
:10135000F0BDBD076D0840EA0E5041F48011D4F194
:101360000104B4F120060ADAC4F120060200E040CC
:1013700001FA06F3E1401843B24015430EE0342C65
:1013800013DCC6F1200445EA40056D0820FA06F298
:10139000154321FA06F0A1400D43002175F10042EA
:1013A00050F1000051EB0C01F0BD00205FEA0C0190
:1013B000F0BDCFB992185B41B3FA83F704BFB2FA1C
:1013C00082F6BF190B3FB7F120062FBF02FA06F3D2
:1013D000BB40C7F1200622FA06F638BF3343BA40B5
:1013E0001CB1E419641E33E77F4231F00041B1FAC9
:1013F00081F404BFB0FA80F6A4190B3CB4F12006C6
:101400002FBF00FA06F1A140C4F1200620FA06F62B
:1014100038BF3143A0403C1B1AE7AC421ABF05EA73
:101420001357AF4212E050EA41061CBF52EA43068E
:10143000BFE750EA4107304661461CBF41EA05510B
:10144000F0BD52EA430C08BFC143F0BD00204FF489
:10145000001616EB410F98BF16EB430F08BF16EBB3
:10146000410F24BFC14305E016EB430F0CBF61469B
:101470004CEA0551F0BD0000400D491840EA8120BA
:101480000CD2490DA1F58061491C40F0004005DBFC
:10149000D1F11F0154BFC840C017704700207047EA
:1014A000014648B1B0FA80F18840C91CC1F5846199
:1014B000090501EBD02140057047000070B44FF0E2
:1014C000004591EA030F40F16F806B40841A71EB85
:1014D000030603D2001BB141121973414FF4001CE3
:1014E0001CEB410F34BF7CEB430442E00C0DA4EB3A
:1014F0001356352E4FDC45EAC323DB0A45EAC121EA
:10150000C912B6F120050DDD63FA05F6EB4086EA57
:101510000305124218BF45F00105C01851F1000142
:101520000CD213E062FA06F5F2405540F3415A40FE
:10153000B340F3405A408018594107D349085FEA45
:1015400030005FEA350528BF45F0010501F580113F
:10155000420875F1004250F1000041EB04514E0089
:1015600016F5001F70BC38BF70470020090D090533
:1015700070471CEB410F10D252EA43060BD0BCEB74
:10158000410F05D80C0DAB43661E342EB6DD02E0CC
:10159000AB438018594170BC704770BC7047012044
:1015A00000F0B6B870470000841A71EB030604D24D
:1015B0006E40001BB141121973414FF4001C1CEB2B
:1015C000410F34BF7CEB430682E00C0DA4EB1356B5
:1015D000362E7BDC012E45EAC32341DC43EA52531D
:1015E00012BFD20292025B08240545EAC12141EAFA
:1015F0005051D2EBC020994125D407D1B0FA80F6E2
:1016000010FA06F162D00020203608E0B1FA81F627
:10161000B140C6F1200220FA02F21143B0404FEA75
:10162000F474B4EB465434F001064FEA74040AD85B
:10163000D6F50016760D04F00044F04061FA06F28B
:101640005040F1404840C00A40EA415021F000417A
:1016500028BF5FEA500550F1000044EBD12135E08E
:10166000DB0A45EAC121C90AB6F120050EDD42EACE
:101670000242120CC5F1200603FA06F6EB4042EADC
:1016800006056D42984161F100010DE062FA06F530
:10169000F240554063FA06FC82EA0C02F3405A40DD
:1016A0006D42904161EB030111F4801F05D1641E6E
:1016B000620502D06D004041494121F48011430888
:1016C00075F1004350F1000041EB045170BC7047CC
:1016D0001CEB410F15D223F0004352EA43060BD016
:1016E0004FEA4C0CBCEB410F04D80C0D661E342E97
:1016F000B7DDEBE7801A994150EA410608BF0021A7
:10170000E4E708BF1CEB430F28BF6FF00001DDE7E3
:1017100080B500F007F8024A11001820ABBEFBE7C5
:101720002600020010B500F052F802000023DB434F
:1017300000241068984203D011000220ABBE146050
:101740005068984203D0111D0220ABBE546010BDFA
:10175000F0B583B0040000F03AF8A10047183D68E6
:101760000026F643B54216D100F01AF83D68B5429E
:101770000FD100BF09A00090002C01D1002000E093
:10178000042001900320029069460120ABBE0500B1
:101790003D6000F014F8280003B0F0BD3A74740006
:1017A0000C480121BFF35F8FD0E84F3FC0E8421FD4
:1017B000002AF9D1BFF35F8F002BF3D170470548A2
:1017C000BFF35F8F00210170BFF35F8F7047024846
:1017D000704700000C0000200000002010B504003D
:1017E00021000BA000F01CF810BD38B504000D005E
:1017F00022002B0007A000F013F831BD80B50220B5
:10180000FFF7ECFF04480549FFF7EFFFFEE7000094
:1018100025640000256600001F85EB51B81E0940B5
:101820000EB4C0B5024603A800210190009101AB9F
:101830000121044878440C30FEF702FC06BC5DF838
:1018400010FB00BF3B01000030B5016884684218FE
:10185000416802EB5103C9070BD54C4409E012F96A
:10186000011B12F8015B002904F8015B05D5491C36
:10187000F9D19A42F3D10C3030BD491EF1D5F8E7C9
:1018800010B5074979441831064C7C44163404E0FD
:101890000A68081D114488470146A142F8D110BDCD
:1018A0002C0000003800000018B583B003001400BD
:1018B00000930191029469460520ABBE01221900F4
:1018C000201AAFF3008004B010BD00007DFFFFFFC1
:1018D000D0000000080000000000002080B58DF856
:1018E000000001226946012000F008F8012802D119
:1018F0009DF8000002BD4FF0FF3002BD80B500280A
:1019000002D400F003F802BD002002BD80B500291A
:1019100001D1002002BD012801D0022802D100F02F
:1019200004F802BDFFF7C0FF02BD30B583B00C0064
:1019300015000120FFF70CFF009001940295694605
:101940000520ABBE281A03B030BD000000F00DF832
:10195000002801D0FFF794FFAFF300800020AFF321
:101960000080FFF74BFF00F002F80120704700F005
:1019700001B8000007463846FFF7CAFEFBE738B556
:1019800004460D462846FFF7A9FFA84218BF0024C9
:10199000204632BDAFF30080AFF30080FFF7D6FFE3
:0419A000F8FFFB0051
:040000050000199549
:00000001FF
