S01C0000486172647761726550726F78795061747465726E2E73726563DA
S113000045C0000061C000005FC000005DC000008A
S11300105BC0000059C0000057C0000055C000007C
S113002053C0000051C000004FC000004DC000008C
S11300304BC0000049C0000047C0000045C000009C
S113004043C0000041C000003FC000003DC00000AC
S11300503BC0000039C0000037C0000035C00000BC
S113006033C0000031C000002FC000002DC00000CC
S11300702BC0000029C0000027C0000025C00000DC
S113008023C0000021C000001FC0000011241FBEB7
S1130090CFEFD0E4DEBFCDBF11E0A0E0B1E0ECE5EE
S11300A0F3E100E00BBF02C007900D92A835B10741
S11300B0D9F721E0A8E5B1E001C01D92A236B2074C
S11300C0E1F76DD30C94AC099BCFCF93DF9300D0B1
S11300D0CDB7DEB79A83898389819A81FC01118225
S11300E0108200000F900F90DF91CF910895CF936D
S11300F0DF9300D0CDB7DEB79A83898300000F90D9
S11301000F90DF91CF910895CF93DF93CDB7DEB7F2
S11301102F970FB6F894DEBF0FBECDBF9F878E8793
S11301208E859F85FC0180819181892B19F480E063
S113013090E00EC08E859F85FC0180819181FC0139
S113014080819181BC01CE010196A4D28A819B81D8
S11301502F960FB6F894DEBF0FBECDBFDF91CF91BF
S11301600895CF93DF93CDB7DEB72F970FB6F894EA
S1130170DEBF0FBECDBF9F878E878E859F85FC0116
S113018080819181892B19F480E090E00EC08E85E6
S11301909F85FC0180819181FC0180819181BC015A
S11301A0CE01019677D28C819D812F960FB6F8945B
S11301B0DEBF0FBECDBFDF91CF910895CF93DF9304
S11301C0CDB7DEB72F970FB6F894DEBF0FBECDBF05
S11301D09F878E878E859F85FC0180819181892BE5
S11301E019F480E090E00FC08E859F85FC0180812A
S11301F09181FC0180819181BC01CE0101964AD29A
S11302008E81882F90E02F960FB6F894DEBF0FBE34
S1130210CDBFDF91CF910895CF93DF9300D0CDB7B9
S1130220DEB79A83898389819A81FC0180819181D7
S1130230892B91F089819A81FC01808191812981A6
S11302403A81F90120813181F901208131813327FB
S1130250FC013183208301C000000F900F90DF91D7
S1130260CF910895CF93DF9300D000D000D0CDB7C5
S1130270DEB79A8389837C836B835E834D83898114
S11302809A812B813C81FC013383228389819A8169
S11302902D813E81FC0131832083000026960FB618
S11302A0F894DEBF0FBECDBFDF91CF910895CF93F9
S11302B0DF9300D0CDB7DEB79A83898389819A8191
S11302C0FC0180819181892B91F089819A81FC01C3
S11302D08081918129813A81F90120813181F9015B
S11302E0208131812E7FFC013183208301C00000F5
S11302F00F900F90DF91CF910895CF93DF9300D0AB
S1130300CDB7DEB79A83898389819A81FC01808184
S11303109181892B91F089819A81FC01808191815D
S113032029813A81F90120813181F90120813181CA
S11303302160FC013183208301C000000F900F90E5
S1130340DF91CF910895AF92BF92CF92DF92EF9257
S1130350FF920F931F93CF93DF93CDB7DEB72F9701
S11303600FB6F894DEBF0FBECDBF9F878E878E85F4
S11303709F85FC0180819181892B29F181E089830A
S11303801B821A821D821C821E821F821886198675
S11303901A861B861C861D868E859F85FC01A0807F
S11303A0B180C980DA80EB80FC800D811E812F81B1
S11303B0388549855A856B857C858D85CED0F50138
S11303C09183808301C000002F960FB6F894DEBF9E
S11303D00FBECDBFDF91CF911F910F91FF90EF9092
S11303E0DF90CF90BF90AF900895AF92BF92CF921D
S11303F0DF92EF92FF920F931F93CF93DF93CDB7CA
S1130400DEB76F970FB6F894DEBF0FBECDBF9B8FDC
S11304108A8F7D8F6C8F5F8F4E8F8A8D9B8DFC01B1
S113042080819181892B09F486C08A8D9B8DFC0182
S113043080819181FC0120813181CE010D96B90129
S113044029D18C8D9D8D9F878E878A8D9B8DFC01F4
S113045082819381892B09F453C08E8D9F8DCC01A9
S1130460A0E0B0E0BC01CD01A5D2DC01CB018983C1
S11304709A83AB83BC838A8D9B8DFC01828193819B
S1130480CC01A0E0B0E0BC01CD0194D2DC01CB01F1
S11304908D839E83AF83B88720E030E040E050E452
S11304A069817A818B819C81ECD1DC01CB0120EDC7
S11304B03FE049E450E4BC01CD01E3D1DC01CB01D0
S11304C02D813E814F815885BC01CD01DAD1DC01FB
S11304D0CB0120E030E040E251E4BC01CD01F8D290
S11304E0DC01CB0189879A87AB87BC8769857A85CC
S11304F08B859C852ED2DC01CB01998B888B04C023
S11305008E8D9F8D998B888B8A8D9B8DFC01A0800D
S1130510B180CD84DE84EF84F88809891A892B8917
S11305203C894D895E896F89788D898D16D0F50156
S11305309183808301C000006F960FB6F894DEBFEC
S11305400FBECDBFDF91CF911F910F91FF90EF9020
S1130550DF90CF90BF90AF900895CF92DF92EF924B
S1130560FF920F931F93CF93DF93CDB7DEB72F97EF
S11305700FB6F894DEBF0FBECDBFCB82DC82ED8216
S1130580FE820F83188729873A874B875C876D879C
S11305907E878F871A8219828B81882329F089812B
S11305A09A8181609A8389838C819D81019731F43A
S11305B089819A8184609A83898309C08C819D8111
S11305C0029729F489819A8182609A8389838E8132
S11305D09F81809770F48E819F81880F991F880F67
S11305E0991F880F991F29813A81822B932B9A8313
S11305F089838885882329F089819A8191609A83E7
S113060089838985882329F089819A8192609A83D4
S113061089838A85882329F089819A8194609A83C1
S113062089838B85882329F089819A8198609A83AC
S113063089838C85882329F089819A8190619A83A2
S113064089838D85882329F089819A8190629A8390
S113065089838E85882329F089819A8190649A837D
S113066089838F85882329F089819A8190689A8368
S1130670898389819A812F960FB6F894DEBF0FBEC5
S1130680CDBFDF91CF911F910F91FF90EF90DF903D
S1130690CF900895CF93DF93CDB7DEB763970FB6AE
S11306A0F894DEBF0FBECDBF998B888B7B8B6A8B92
S11306B08A8981708B838A899B898670992796950C
S11306C087959A83898389819A81019729F482E0A5
S11306D090E09D838C830BC089819A81029729F4D1
S11306E081E090E09D838C8302C01D821C828A89F4
S11306F09B89887F99279695879596958795969552
S113070087959F838E83188619861A861B861C8676
S11307101D861E861F86888999892DE0FE013396E1
S1130720DC0101900D922A95E1F7888999896396F5
S11307300FB6F894DEBF0FBECDBFDF91CF91089501
S1130740CF93DF9300D0CDB7DEB784E090E023D21F
S11307509A83898389819A81892B19F089819A8165
S1130760B4DC89819A810F900F90DF91CF91089525
S1130770CF93DF9300D0CDB7DEB79A838983898185
S11307809A81892B19F089819A81B1DC89819A81B6
S11307909AD200000F900F90DF91CF910895CF93DC
S11307A0DF93CDB7DEB728970FB6F894DEBF0FBE40
S11307B0CDBFCE0103969A8389839E01295F3F4F63
S11307C089819A81A90160E070E04CDD89819A8178
S11307D0BADD89819A814AE050E061E070E005DE8B
S11307E089819A81FC0180819181292F2F938F9394
S11307F086E091E0892F8F9386E091E08F93ECD28D
S11308000F900F900F900F9089819A817DDC292F92
S11308102F938F938BE191E0892F8F938BE191E05C
S11308208F93DAD20F900F900F900F9089819A8155
S113083098DC292F2F938F9380E391E0892F8F9356
S113084080E391E08F93C8D20F900F900F900F9098
S113085089819A81B3DC292F2F938F9381E491E0CE
S1130860892F8F9381E491E08F93B6D20F900F90EC
S11308700F900F9089819A811ADD89819A813DDDDB
S1130880FFCF0CD0EBC0E3D040F0DAD030F021F44D
S11308905F3F19F0CCC0511115C1CFC0F0D098F30F
S11308A09923C9F35523B1F3951B550BBB27AA27ED
S11308B062177307840738F09F5F5F4F220F331F5F
S11308C0441FAA1FA9F333D00E2E3AF0E0E830D02B
S11308D091505040E695001CCAF729D0FE2F27D02E
S11308E0660F771F881FBB1F261737074807AB07FC
S11308F0B0E809F0BB0B802DBF01FF2793585F4F71
S11309002AF09E3F510568F092C0DCC05F3FECF3D3
S1130910983EDCF3869577956795B795F7959F5F35
S1130920C9F7880F911D9695879597F90895E1E089
S1130930660F771F881FBB1F621773078407BA07E8
S113094020F0621B730B840BBA0BEE1F88F7E09543
S1130950089504D06894B111B5C0089598D088F072
S11309609F5790F0B92F9927B751A0F0D1F0660F97
S1130970771F881F991F1AF0BA95C9F712C0B130B2
S113098081F09FD0B1E008959CC0672F782F88270D
S1130990B85F39F0B93FCCF3869577956795B395F1
S11309A0D9F73EF490958095709561957F4F8F4F60
S11309B09F4F0895E89409C097FB3EF49095809565
S11309C0709561957F4F8F4F9F4F9923A9F0F92F11
S11309D096E9BB279395F695879577956795B7958F
S11309E0F111F8CFFAF4BB0F11F460FF1BC06F5F75
S11309F07F4F8F4F9F4F16C0882311F096E911C087
S1130A00772321F09EE8872F762F05C0662371F0A7
S1130A1096E8862F70E060E02AF09A95660F771FBB
S1130A20881FDAF7880F9695879597F9089597F9AF
S1130A309F6780E870E060E008959FEF80EC089580
S1130A4000240A94161617061806090608950024A9
S1130A500A9412161306140605060895092E039423
S1130A60000C11F4882352F0BB0F40F4BF2B11F497
S1130A7060FF04C06F5F7F4F8F4F9F4F089557FDF6
S1130A809058440F551F59F05F3F71F04795880FF8
S1130A9097FB991F61F09F3F79F08795089512168F
S1130AA013061406551FF2CF4695F1DF08C016163B
S1130AB017061806991FF1CF8695710561050894EC
S1130AC00895E894BB2766277727CB0197F9089503
S1130AD00BD0C4CFB5DF28F0BADF18F0952309F0A6
S1130AE0A6CFABCF1124EECFCADFA0F3959FD1F3ED
S1130AF0950F50E0551F629FF001729FBB27F00DC8
S1130B00B11D639FAA27F00DB11DAA1F649F66271C
S1130B10B00DA11D661F829F2227B00DA11D621F6B
S1130B20739FB00DA11D621F839FA00D611D221F25
S1130B30749F3327A00D611D231F849F600D211D09
S1130B40822F762F6A2F11249F5750408AF0E1F0AC
S1130B5088234AF0EE0FFF1FBB1F661F771F881FF5
S1130B6091505040A9F79E3F510570F060CFAACF35
S1130B705F3FECF3983EDCF3869577956795B795E0
S1130B80F795E7959F5FC1F7FE2B880F911D96950A
S1130B90879597F908950F931F93CF93DF9382302E
S1130BA0910510F482E090E0E0915A01F0915B012C
S1130BB020E030E0A0E0B0E0309719F140815181AD
S1130BC00281138148175907C8F08417950769F4FF
S1130BD0109731F012960C93129713961C9327C01A
S1130BE000935A0110935B0122C02115310519F0BD
S1130BF04217530718F49A01BD01EF01DF01F80110
S1130C00DBCF21153105F9F0281B390B24303105D0
S1130C1080F48A819B816115710521F0FB01938326
S1130C20828304C090935B0180935A01FE01329643
S1130C3044C0FE01E20FF31F8193919322503109C6
S1130C40398328833AC02091580130915901232BCC
S1130C5041F4209102013091030130935901209312
S1130C60580120910001309101012115310541F411
S1130C702DB73EB74091040150910501241B350B5B
S1130C80E0915801F0915901E217F307A0F42E1BEB
S1130C903F0B2817390778F0AC014E5F5F4F2417DC
S1130CA0350748F04E0F5F1F509359014093580188
S1130CB08193919302C0E0E0F0E0CF01DF91CF9106
S1130CC01F910F910895CF93DF93009709F481C08A
S1130CD0FC01329713821282A0915A01B0915B01F8
S1130CE0109781F420813181820F931F2091580144
S1130CF0309159012817390751F5F0935901E093C0
S1130D00580167C0ED0120E030E0CE17DF0740F462
S1130D104A815B819E0141155105F1F0EA01F5CF4D
S1130D20D383C28340815181840F951FC817D9078B
S1130D3059F488819981840F951F02969183808349
S1130D408A819B81938382832115310529F4F09351
S1130D505B01E0935A013DC0E901FB83EA834991B9
S1130D605991C40FD51FEC17FD0761F4808191815F
S1130D70840F951F0296E901998388838281938168
S1130D809B838A83E0E0F0E012968D919C91139707
S1130D90009719F0FD01DC01F7CF8D919C9111971B
S1130DA09D012E5F3F4F820F931F20915801309178
S1130DB059012817390769F4309729F410925B0117
S1130DC010925A0102C013821282B0935901A09367
S1130DD05801DF91CF910895CF93DF93CDB7DEB75C
S1130DE0AE014B5F5F4FFA0161917191AF01809148
S1130DF05E0190915F0103D0DF91CF9108952F920E
S1130E003F924F925F926F927F928F929F92AF9296
S1130E10BF92CF92DF92EF92FF920F931F93CF93E3
S1130E20DF93CDB7DEB72B970FB6F894DEBF0FBEB6
S1130E30CDBF6C017B018A01FC011782168283817C
S1130E4081FFBFC1CE0101963C01F6019381F701F8
S1130E5093FD859193FF81917F01882309F4ADC1AE
S1130E60853239F493FD859193FF81917F01853219
S1130E7021F4B60190E0D6D1E8CF912C212C312C6D
S1130E80FFE1F315D8F08B3279F038F4803279F041
S1130E908332A1F4232D20611DC08D3261F0803393
S1130EA069F4232D216016C0832D8260382EE32D32
S1130EB0E4603E2E2AC0F32DF8601DC037FC2DC01F
S1130EC020ED280F2A3040F08E32B9F436FC75C17B
S1130ED0232D2064322E19C036FE06C08AE0989E67
S1130EE0200D1124922E11C0EAE02E9E200D112413
S1130EF0222EF32DF0623F2E08C08C3621F4832D70
S1130F008068382E02C0883641F4F70193FD85913C
S1130F1093FF81917F018111B3CF982F9F7D9554C9
S1130F20933028F40C5F1F4F9FE399830DC08336E1
S1130F3031F0833771F0833509F055C020C0F801D2
S1130F40808189830E5F1F4F88248394912C5301E1
S1130F5012C02801F2E04F0E511CF801A080B180AC
S1130F6036FE03C0692D70E002C06FEF7FEFC5014C
S1130F704ED14C018201F32DFF773F2E15C028017D
S1130F8022E0420E511CF801A080B18036FE03C05D
S1130F90692D70E002C06FEF7FEFC5012DD14C01C8
S1130FA0F32DF0683F2E820133FC19C0822D90E0AE
S1130FB088169906A0F4B60180E290E033D12A9411
S1130FC0F5CFF50137FC859137FE81915F01B601BC
S1130FD090E028D121102A9421E0821A91088114EA
S1130FE0910479F7E1C0843611F0893639F5F801B6
S1130FF037FE07C060817181828193810C5F1F4F2E
S113100008C060817181072E000C880B990B0E5F5C
S11310101F4FF32DFF763F2E97FF09C090958095C3
S1131020709561957F4F8F4F9F4FF0683F2E2AE058
S113103030E0A30133D1882E861844C0853731F4BB
S1131040232D2F7EB22E2AE030E025C0932D997FE8
S1131050B92E8F36C1F018F4883579F0AEC08037D8
S113106019F0883721F0A9C0E92FE061BE2EB4FE43
S11310700DC0FB2DF460BF2E09C034FE0AC0292F19
S11310802660B22E06C028E030E005C020E130E042
S113109002C020E132E0F801B7FE07C0608171812F
S11310A0828193810C5F1F4F06C06081718180E053
S11310B090E00E5F1F4FA301F1D0882E8618FB2D00
S11310C0FF773F2E36FE0DC0232D2E7FA22E8914CE
S11310D058F434FE0BC032FC09C0832D8E7EA82E3A
S11310E005C0B82CA32C03C0B82C01C0B92CA4FE95
S11310F00FC0FE01E80DF11D8081803321F49A2D8B
S1131100997EA92E09C0A2FE06C0B394B39404C06C
S11311108A2D867809F0B394A3FC10C0A0FE06C003
S1131120B21480F4280C922C9B180DC0B21458F4FD
S1131130B60180E290E076D0B394F8CFB21418F4FC
S11311402B1802C0982C212CA4FE0FC0B60180E3FA
S113115090E068D0A2FE16C0A1FC03C088E790E02E
S113116002C088E590E0B6010CC08A2D867851F063
S1131170A1FE02C08BE201C080E2A7FC8DE2B601B1
S113118090E050D0891430F4B60180E390E04AD066
S11311909A94F8CF8A94F301E80DF11D8081B60189
S11311A090E040D08110F6CF222009F44ECEB60153
S11311B080E290E037D02A94F7CFF60186819781B8
S11311C002C08FEF9FEF2B960FB6F894DEBF0FBED1
S11311D0CDBFDF91CF911F910F91FF90EF90DF90E2
S11311E0CF90BF90AF909F908F907F906F905F90C3
S11311F04F903F902F900895FC01059061507040EE
S11312000110D8F7809590958E0F9F1F0895FC01CB
S11312106150704001900110D8F7809590958E0F21
S11312209F1F08950F931F93CF93DF93FB01238197
S113123021FD03C08FEF9FEF2CC022FF16C0468113
S11312405781248135814217530744F4A081B18129
S11312509D012F5F3F4F318320838C9326813781FB
S11312602F5F3F4F3783268314C08B01EC01FB01B2
S11312700084F185E02D0995892BE1F6D8011696B5
S11312808D919C911797019617969C938E93169720
S1131290CE01DF91CF911F910F910895FA01AA27F2
S11312A0283051F1203181F1E8946F936E7F6E5FA5
S11312B07F4F8F4F9F4FAF4FB1E03ED0B4E03CD053
S11312C0670F781F891F9A1FA11D680F791F8A1F36
S11312D0911DA11D6A0F711D811D911DA11D20D09D
S11312E009F468943F912AE0269F11243019305D57
S11312F03193DEF6CF010895462F4770405D419348
S1131300B3E00FD0C9F7F6CF462F4F70405D4A3394
S113131018F0495D31FD4052419302D0A9F7EACF5C
S1131320B4E0A6959795879577956795BA95C9F78B
S113133000976105710508959B01AC010A2E06947E
S11313405795479537952795BA95C9F7620F731F37
S10F1350841F951FA01D0895F894FFCF82
S113135C0000620120004D6F746F7220616464722E
S113136C6573733A20307825580A004D6F746F7288
S113137C20646972656374696F6E3A2025640A008F
S113138C4D6F746F722073706565643A2025640A1E
S113139C004D6F746F72206572726F72207374617A
S10B13AC74653A2025640A006F
S9030000FC
