:1000000060060020F51F0000C70F0000C70F0000AA
:10001000C70F0000C70F0000C70F0000000000005E
:10002000000000000000000000000000C70F0000FA
:10003000C70F000000000000C70F0000C70F00003E
:1000400000231DE001231BE0022319E00146087A8A
:1000500068B9487A08B9B0207047401E48724868AD
:10006000001D486050F8042D0A6004220A72087AC4
:10007000421E0A720A68100E12020A6070470000DF
:100080002DE9F94F87B00C4600210491904607985E
:10009000002818BF012810D0022840F08D81A06BE5
:1000A000A064E66B276C089802280FD13D68002DEC
:1000B00046D0D7F804B008370EE094F85000E66C4C
:1000C000C1073DD40898002833D1371D3D88002D45
:1000D00036D0B7F802B03F1D4FEA4B0101F00201E4
:1000E00005F0010001430329DDD8DFE811F0050028
:1000F0004800BB006501D6E7079800283DD0A16CF9
:1001000005A800908B4400230F220021404600F0F8
:10011000EDFA0598584530D35D44A8422DD2A06C25
:10012000A063E663381D2064204600F0B7FCF0B9F8
:1001300042E13168301DC1F3074100EB8107B2E7AE
:1001400030680190311D08980291002840F0068126
:10015000002101988DF80D10000201900321454601
:100160009DF813809DF812908DF80C1018E13868F6
:10017000400007EB60070497DCE03F1D93E707981A
:1001800000284AD1A16C05A800908B4400230F22BF
:100190000021404600F0AAFA0598584560D35D4416
:1001A0006D1EA8425CD2786810F1020F00F0048145
:1001B00010F1010F10D104F15800059004A900912D
:1001C00000230D220021404600F090FA049820629E
:1001D000E762059860627DE03A68014605ABD20FA0
:1001E000204600F0D1FC00283AD00228E6D104A82D
:1001F000009000230D220021404600F077FA049879
:100200002062E76204220598A06204F1580104F11B
:1002100028006062AFF300805CE005A80090002336
:100220000D220021404600F061FA206A05998842BB
:1002300004BFE16AB94213D13968490007EB610094
:100240000490002304A800900F220021404600F0F3
:1002500037FA04A8049400900023002200216EE0E5
:10026000083720E7D7F800A007982AF0004998BB84
:1002700005A800230F22A16C00908B44002140466A
:1002800000F034FA0598ABF1010B58455CD35D449E
:10029000A84259D20025B9F1000F07F1040B0CD088
:1002A0005BF8041B6B460022204600F06DFC10B981
:1002B0006D1C4D45F4D34D4546D104A80090002354
:1002C0000D220021404600F011FA04982062E762F6
:1002D000002060620620EFE105A8009000230D22B7
:1002E0000021404600F002FA206A0599884204BFC6
:1002F000E06AB84228D10020E062C4F828900420C7
:100300002063381DCA45606303D101208DF81100B8
:100310001CE0391D01EB8905002328680494400086
:1003200005EB600504A8009000220021404600F083
:10033000C7F9049504A8009000230F22002140462D
:1003400000F0BEF90720B7E1CA4501D1002000E066
:100350000420391D00EB89000F18A4E60198000C59
:100360008DF80D000221019800040190F7E6402E5F
:1003700040DA05A8009000230D220021284600F055
:10038000B5F9B600059806F0FC06361D3618059638
:1003900005A8009000230D220021284600F090F9C6
:1003A00001A8FFF753FE0646B02EE0D1B8F1000FCA
:1003B00019D1B9F1000F01D109207DE105A8009004
:1003C00000230E220021284600F090F9059806909F
:1003D00006A9009100230F220021284600F070F9A1
:1003E00001208DF810009DF81110002940F03B818C
:1003F000082061E17F2E0EDC05A8009000230D226D
:100400000021284600F072F9B600059806F0FC06B7
:10041000361D861BBBE7902E19DA01A83603FFF7BD
:1004200015FE06F4704656EA0016C5D00023324683
:100430000021284600F070F90028BDD1300448BFE3
:100440004FF001087004ABD54FF00109A8E7A02ECA
:1004500010DA06F00F060D2E18BF0F2EACD005A82F
:100460000090002332460021284600F03FF905980D
:1004700005908DE7B02E16DA06F007020120521C17
:1004800000FA02F2521E1201300744BF42F48042C9
:100490004FF0010900230021284600F03DF9002813
:1004A0003FF47EAF88E7B82E63DAB12E12D101A8EF
:1004B000FFF7CCFD00283FF47FAF0F283FF67CAF5D
:1004C000024600230021284600F026F900283FF4C8
:1004D00067AF71E7B22E35D10026002100E0C91DBB
:1004E0009DF80C0078B99DF80D0008B9B02014E013
:1004F000401E8DF80D00029850F8042B01920290D6
:1005000004228DF80C209DF80C00421E8DF80C2062
:10051000019A01981202000E019200F07F038B40B5
:100520001E430006DBD405A8009000230D22002105
:10053000284600F0DBF8059800EB860000F5017016
:10054000059025E7B32E7FF437AF01A8FFF77EFDB6
:10055000010300F00F0001F47021401C40EA010289
:1005600001230121284600F0D7F800283FF418AFF6
:1005700022E7C02E0DDA06F00706761C012346F4AA
:1005800000220121284600F0C7F800283FF408AFF8
:1005900012E7C82E38DAC72E12D101A8FFF756FD90
:1005A00000283FF409AF0F283FF606AF02460023AC
:1005B0000421284600F0B0F800283FF4F1AEFBE635
:1005C000C62E13D101A8FFF741FD010300F00F0073
:1005D00001F47021401C40EA010203230321284654
:1005E00000F09AF800283FF4DBAEE5E606F00706D7
:1005F000761C032346F420220321284600F08CF8C1
:1006000000283FF4CDAED7E618BFC92E17D101A8F8
:10061000FFF71CFD010300F00F0001F47021401CE6
:100620000843C82E08BF00F58010024605230121AB
:10063000284600F071F800283FF4B2AEBCE6D02E98
:10064000FFF6BAAED82EBFF6B7AE06F00706761C98
:10065000052346F400220121284600F05DF8002819
:100660003FF49EAEA8E605A8009005940023002262
:100670000021284600F024F89DF8100088B904A94C
:10068000009100230F220021284600F02FF8049843
:10069000059005A9009100230E220021284600F0B4
:1006A0000FF80448049004A9009100230F220021B0
:1006B000284645E60000000009B0BDE8F08F76004E
:1006C000042910D8DFE801F0030D0F0D0D0053B918
:1006D000102A08D20099096800EB820041600020CE
:1006E000704701207047022070470000042910D88D
:1006F000DFE801F0030D0F0D0D0053B9102A08D2E9
:1007000000EB8200009942680A60002070470120D7
:1007100070470220704700002DE9F0470429C0B05F
:100720000746164660D8DFE801F003165F6C6C00E0
:10073000002B59D1B86B391DB6B2320006E0F30771
:1007400044BF50F8043B0B60091D7608F7D19104B3
:1007500055D4B86353E04FEA164ABAF1100F1FFAA6
:1007600086F9AD41ED0F09EB0A00102894BF002473
:1007700001249846B8F1010F34D0B8F1050F33D1F8
:10078000212831D245B13978012905D100203870AE
:1007900007F1480000F0B2FA44B17878012805D199
:1007A0000021797007F1C80000F0ACFA15B1684675
:1007B00000F0A4FA14B120A800F0A4FAB96B300438
:1007C0000BD0684600EBCA064846D1E90023C6E9CB
:1007D000002308310836401EF7D1B8F1010F05D1CA
:1007E000091D03E0002CCDD002200BE0B96315B148
:1007F000684600F089FA14B120A800F089FA0020B8
:1008000000E0012040B0BDE8F087324A0068D2F82D
:1008100004C001F108036244934206D08B6801F1E1
:1008200008025B0002EB630201E04FF0FF320B684D
:100830005B0001EB6301884202D24FF0FF3070474A
:1008400090428041C043C00F704733B581B0044629
:100850002048016842680144024402981E4D0095F8
:10086000801E0290521AD210082302A800F090FABB
:1008700018B30168490000EB6102A26441680129D4
:100880001BD0002902D5001D012104E0001D4900F4
:1008900000EB610000212165E0640168002911D5A9
:1008A000C1F3036008B90D480FE0012808BF0C48E8
:1008B0000BD0022808BF0B4807D00020606103B0AE
:1008C000092030BD490000EB6100606103B00020E9
:1008D00030BD0000382000000B080000410000007F
:1008E00045000000490000002DE9F0410446D2B067
:1008F000E0680D4610B90121E1601DE0582000F0CC
:1009000067FA00284ED004F10C0292E8C85000F1BA
:100910000C0104F1200281E8C85092E8C85100F1AE
:10092000200104F1380281E8C85192E8C81000F1B2
:10093000380181E8C810E060291DE86B2864402276
:1009400001A800F0E5FA01208DF800008DF8010003
:1009500010992046FFF779FFB0B963696A462146CE
:100960009847062820D00828F2D000F012FB9DF806
:10097000000010B912A800F0C7F99DF8010088B96D
:1009800032A800F0C5F90DE09DF8000010B912A8DA
:1009900000F0BAF99DF8010010B932A800F0B8F9DA
:1009A00000F0F7FA09200FE09DF8000010B912A836
:1009B00000F0AAF99DF8010010B932A800F0A8F9DA
:1009C0002946204600F003F852B0BDE8F08138B562
:1009D00004460D4602E0281D00F0AAF9296C2046C5
:1009E000FFF733FF08B100F0E9FA286C6369206172
:1009F0002A462146012098470728ECD00828EDD048
:100A000000F0DCFAEAE738B504460D4620692864B0
:100A10002A466369214602209847072804D1281DE9
:100A2000BDE8324000F084B9082804D129462046A8
:100A3000BDE83440CBE7BDE8314000F0BFBAF8B5BF
:100A40000446E06808B900F0B9FAE068012802D16C
:100A50000020E060F1BD00F10C0292E8E81004F122
:100A60000C0100F1200281E8E81092E8E85004F15E
:100A7000200100F1380281E8E85004F1380192E8E1
:100A8000780081E87800BDE8F24000F09ABA0146AB
:100A90008A68002A1CBF01201047704738B50446F9
:100AA00000F09EFA0546204600F0D2FA022807D14F
:100AB000A869214600F0F0FA016A491C016201E0D0
:100AC000A4F12800016A012902D1AA69C261A861C2
:100AD000012032BD70B500F083FA0546AC690CB94F
:100AE00000F0F8FA04F12806304600F0B1FA0228C6
:100AF0000DD1206A6668012806D1E069A86104F179
:100B0000800000F0F6FA07E0401E206204E0206A50
:100B1000012804BFE169A961304670BD10B50C46DB
:100B200000F05EFAA4F12002116949B9116811B10F
:100B300004F15800884704F1580000F0DAFA10BDBB
:100B40009169491E91610268521E026010BD70B524
:100B500004460D46164600F007FAA4F180006049ED
:100B600001634560012186600162016000F038FA8E
:100B7000583C0168491C0160204600F0E7F8204617
:100B8000BDE8704000F0DCBA2DE9F04F85B0824638
:100B9000894616461F4600F05BFA022800F09C804A
:100BA000AAF1280B0024DBF8040001900AF1580593
:100BB000504600F04DFA012808BFDBF800500497BA
:100BC00002954FF0010847480090019F1BE099F8FB
:100BD0000820397A641C02F0030201F0030131EAB3
:100BE000020079D132EA010102D05FEA080073D035
:100BF000D007FF68D9F80C90029858BF4FF0000852
:100C000008B1006802904946384600F0ABFA002867
:100C10003ED1384600F0C0FA8246484600F0BCFAA1
:100C200083463149384600F09DFA58B1300009D169
:100C30000099584600F096FA50BB2C49584600F0EF
:100C400091FA28BB0099504600F08CFA20B900991F
:100C5000584600F087FA68B15946504600F08CFAC1
:100C6000002839D1300005D04946384600F084FAD2
:100C7000002831D10099504600F074FA0028A6D11E
:100C8000012C08D11A49484600F06CFA18B11EBB75
:100C9000049805601CE01CB1012C08BF002E1BD17C
:100CA0001449504600F05EFA20B91349504600F04E
:100CB00059FA88B10020019000904B463A4603A9AA
:100CC00002A800F08FFB38B10499039808600CB9B2
:100CD000012002E0022000E0002005B0BDE8F08F16
:100CE0001D0B0000B81F000028200000C41F0000DA
:100CF00018200000941F0000A01F000080EC200BB3
:100D0000704700007047000090EC200B7047000017
:100D1000704700004DF808ED0DF1080E4DF804ED98
:100D20002DE9FF1F002102B4694681B0FFF76BBEB9
:100D300085460D98DDF838E00F9B5DF8042B20E91F
:100D40000C009DE8FE1F854601BD00004DF808ED32
:100D50000DF1080E4DF804ED2DE9FF1F002102B43E
:100D6000694681B0FFF7C0FDDDF840E012B0704782
:100D7000FEB442464B4654465D463EB4FFF7AAFEDB
:100D80003EBC90469946A246AB46FEBCFFF7C2FF6A
:100D90002DE9F047089F81460E461546984600E02B
:100DA000254695B16C0804FB08F006EB000A514695
:100DB0004846B8470028F3D41EBF0AEB08062D1B8F
:100DC0006D1EEED15046BDE8F0870020BDE8F087EB
:100DD00010B50446AFF30080204600F005F8044645
:100DE000AFF30080204610BD7CB500F10F06F60879
:100DF000F600B04240D2082E04D2082602E00830A5
:100E000000F047F8DFF804512C68210005D10020DC
:100E100007E00268B24221D2011D08680028F8D11B
:100E20002068291D0A68824222D01368B34238BF65
:100E3000111DF7D312E093190B60801B54685C609E
:100E40000B6818601660096800291DBF48680028F3
:100E5000081D0020286002F1080076BD61B10A6813
:100E60001068A0F10803B342E5D250680860EAE7D1
:100E700000F0F2FA0028C2D1002076BD10B50400BF
:100E800006D0AFF30080204600F003F8AFF30080F7
:100E900010BD002800D1704750B4A0F108021368BB
:100EA000072B2BD913F0070F28D1184C616809B113
:100EB0008A4202D25160626013E0486800B39042F7
:100EC00038BF0146F9D31BE0964203D11B180B60D3
:100ED0000A4606E0486810B1134498420ED35060A9
:100EE0004A60506850B11368D118814206D1002180
:100EF00021600168CB1813604068506050BC704797
:100F000008680E18B242DFD250BC7047B80000200B
:100F1000103A07D330B4B1E83810103AA0E83810CE
:100F2000F9D230BC530724BFB1E80810A0E808107C
:100F300044BF51F8043B40F8043BD20724BF31F8CA
:100F4000022B20F8022B44BF0B7803707047083A3D
:100F500007D3B1E80810083A40F8043B40F804CB46
:100F6000F7D25307E4E763000F480078002800D168
:100F7000704700B5842189021820ABBE00BD0B4824
:100F80000078002800D1704700B509491820ABBE91
:100F900000BD08480078002800D1704700B5064918
:100FA0001820ABBE00BD0000CC000020CD0000200A
:100FB00001100200CE00002002100200012000F00B
:100FC00061BAFFF75BBFFEE780B500F065FA144930
:100FD0000844BDE80240883000F075BAFFF7EEBF64
:100FE00038B500F059FA0F4D0446605D60B90C4900
:100FF000214401F1880000F064FA0B4A0B480021FB
:1010000000F072FA01206055094A0A49A05C28B92B
:10101000034B60182344C3610120A054601832BD03
:1010200028000020D0000020C4000020C90F0000CC
:10103000D10000200800002002680B689A4202BF1D
:1010400040684968884201D10120704700207047FC
:101050000BA2136881B00168994201BF43685268CE
:10106000934200200AD000BF08A21368994202BF31
:101070004068516888420CBF0120022001B07047CF
:1010800049415200432B2B0000000000494152000F
:10109000432B2B010000000038B504000D4609D099
:1010A00004F12800FFF7C8FF20B16068A84201D111
:1010B000204632BD002000F05BFA8038D5E90023DD
:1010C00000F12801C1E90023002101628161416131
:1010D000456032BD80B5FFF783FF016919B1002279
:1010E0000261884701E080688047BDE80140FFF762
:1010F00065BF10B50446FFF773FF803CC069214609
:1011000000F071FA20B92046BDE81040FFF759BF42
:1011100010BD38B50446FFF763FF05460CB9A86853
:1011200007E02046FFF794FF02280CBFA86854F898
:10113000180C286101202873BDE83140FFF7CABFB1
:1011400010B5040018BF00F058FA2046BDE8104062
:10115000DFE7000000F079BA00F077BA00F075BA66
:1011600000F073BA88421EBF40684968884201D1C6
:10117000012070470020704788421EBF40684968C0
:10118000884201D0012070470020704740687047B6
:10119000704770477047704710B5040001D100F0E8
:1011A00059FA206850F8040C10BD00002DE9F04FEA
:1011B000834617468DB089469A464FF00008384658
:1011C000FFF7EAFF189C179E169DDFF88412FFF7C1
:1011D000C9FF00BB3846FFF7DFFFDFF87812FFF7E3
:1011E000C1FF002800F0FA80690801F0010181F0D8
:1011F00001010B9107F1100005F0010181F00101DF
:101200000A91CDF820B00C97CDF824A0169518942B
:1012100005461B9F84E0B868504508D0FFF7B6FF2D
:1012200000905046FFF7B2FF0099814218D1D9F8DB
:101230000000002818BF584540F0C5801A990A7868
:10124000022A00F0C0803068002840F0BC801A9864
:101250000121017088461B980460C9F800B0BDE008
:101260001B981A9905900491029401965346199877
:10127000039000954946BA685846FFF797FF01006A
:10128000306808BF002800F0A980002840F0A68040
:101290004FF00108A2E02CB102680B12D25800EB0B
:1012A000020A01E000EB212A189800281ABF481012
:1012B00000F0010B4FF0000B28680999884208D014
:1012C000FFF764FF00900998FFF760FF00998142E3
:1012D00037D1D9F80000002818BF824573D169685A
:1012E000C80703D51A9A1378012B6CD030680028F0
:1012F00069D1C9071A9954BF012002200870C7F8A4
:1013000000B0C9F800A04FF00108386838B1002CCF
:101310000CBF0A980B9810B160E000285ED1083528
:101320000C9800F11001C06801EBC0018D4255D24C
:1013300008986968002801F00104ACD14FF0000A58
:10134000B2E7002107918DF8181007AA16980392AA
:1013500006A905970491CDF808B001960090099B65
:101360002A6849465046FFF721FF002804BF30682D
:101370000028D4D0316879BB079820B92979C807EB
:1013800044BF286807901A99087858B19DF818103A
:10139000022908BF022805D019980068D0B1079922
:1013A000884217D11A999DF8180008704FF001086B
:1013B00019990798086038680028B0D0002C14BF2D
:1013C0000B980A98A9E7012030600020C9F80000B6
:1013D000804603E0012030604FF0000840460DB029
:1013E000BDE8F08F2DE9F0418AB0164600240122B5
:1013F0000D460994079200280CBF002707689846FD
:101400002C603046FFF7C8FE1249FFF7ABFE07A974
:1014100000280CBF0320B068059106AB08AA089409
:101420008DF818400493039201210291009009A9BC
:1014300001914346324629463846FFF7B7FE002859
:101440001EBF07980028012420460AB0BDE8F0819D
:10145000941F0000A01F00000749086808B1002081
:1014600070470648C008C00008600549C908C9009F
:10147000091A0160704700BFC800002067060020FD
:10148000600E002080B500F0E7F8024A1100182035
:10149000ABBEFBE72600020000207047044600F0C8
:1014A00019F902482060204610BD0000741E00009B
:1014B00010B5044600F018F92046BDE8104000F0D1
:1014C000C4B810B5EAE710B5044600F00DF920469F
:1014D00010BD000000A0704762616420616C6C6FF9
:1014E000636174696F6E0000F8B505460E461746D5
:1014F000AFF300801A49086800B91A481A4A9042A6
:101500002EBF002404460C300860AFF300800CB9F5
:101510000120F2BD26606560A7600020F2BD80B5A5
:101520000F49124800F001F801BDF8B50E46054616
:1015300037683C0004D1F1BD88470DE007463C46C2
:10154000AC42F8D00C3C61680800F9D00020606023
:1015500020680028F0D0884730688742F0D0EDE757
:10156000C0000020D400002060020020D400002031
:1015700070B50646FFF734FD054680363046FFF766
:1015800027FC040008D1E869314600F021F8040086
:1015900004BF0020FFF7BDFD0AA004F12801D0E937
:1015A0000023C1E90023002020636063A061606123
:1015B000E0612062A86820616868E06004F1800052
:1015C00070BD000049415200432B2B000000000079
:1015D000892902D208B1017809B10020704701229F
:1015E00000F8082B704718B100F10802914201D0B1
:1015F0000020704700210170704770B50446FFF766
:10160000BEFC656AFFF7ECFC06462046FFF720FDAE
:10161000022805D170692146FFF73EFD014607E02B
:10162000A4F12801086A401E08623268521E326026
:101630008869401C8861486910B972694A617161A2
:101640002046FFF7FCF9284670BD002818BFFFF7B9
:10165000B8BC704700F052B810B500F07CF802003A
:101660000023DB4300241068984203D011000220BD
:10167000ABBE14605068984203D0111D0220ABBE6F
:10168000546010BDF0B583B0040000F064F8A10010
:1016900047183D680026F643B54216D100F044F8DD
:1016A0003D68B5420FD100BF09A00090002C01D1C8
:1016B000002000E0042001900320029069460120F0
:1016C000ABBE05003D6000F03EF8280003B0F0BD61
:1016D0003A74740000E000BF0149016070470000E7
:1016E000881E0000FFF7B1BF704770470000000080
:1016F00000A07047756E6B6E6F776E001CB5684604
:1017000000F030F80420FFF733FF0446694600F08C
:1017100033F8034A03492046FFF719FA00BF0000D7
:1017200001200000E81F00000C480121BFF35F8F7B
:10173000D0E84F3FC0E8421F002AF9D1BFF35F8FC6
:10174000002BF3D170470548BFF35F8F0021017074
:10175000BFF35F8F7047024870470000CF00002042
:101760000000002010B50446FFF7B4FF01482060D8
:10177000204610BD9C1E000010B50446FFF7ABFFCD
:1017800001482060204610BD9C1E000070B51C0062
:101790000546164606D0084616F8011BA847641EE3
:1017A000FAD10146084670BD2DE9FC4383B081465D
:1017B000884617461D4607E001233A4641464846FB
:1017C000FFF7E4FF80467F1C3878E0B12528F3D18D
:1017D0007978BF1C252912D058295AD0632915D0F1
:1017E000642918BF692918D06F2952D0702956D0A2
:1017F00073295BD0752918BF78294AD0E4E74046A1
:10180000C8478046E0E705B0BDE8F0832868286057
:1018100050F8041B2860C9B2F1E72868286050F826
:10182000046B2860002E03D52D214046C847804612
:1018300064216F2908BF082205D041F020007828D4
:1018400014BF0A2210220B246429304602D1002E34
:1018500048BF4042B0FBF2FC02FB1C003030641E6B
:10186000C3B23A2BA4BFA1F1510318180DF804001C
:101870005FEA0C0001D0002CECDC0DEB0406D4F187
:101880000B044046BDD016F8011BC847641EFAD1B0
:10189000B7E72868286050F8046B2860C9E7286813
:1018A0002860782150F8046B2860C2E72868286017
:1018B00050F8046B2860304600F00AF804004046F7
:1018C0009FD016F8011BC847641EFAD199E70000A3
:1018D00000F10103810704D010F8011B89B18107D1
:1018E000FAD10268B2F10131914311F0803F04BF97
:1018F00050F8042FF6E710F8011B11B110F8011B86
:10190000FBE7C01A7047000015F2FF7F38050000A2
:101910003FF2FF7FB0B0AA8081F8FF7FB0B0A8800F
:101920008DF8FF7FA8050000BDFAFF7FB0AC0980ED
:10193000EFFBFF7F01000000F3FBFF7FA00400002E
:10194000BDFDFF7F9805000031000000B0AB0080B6
:10195000B300000001000000CD000000B0B0A8807E
:10196000F30000007003000075010000B0B0AA8011
:10197000A504000048050000F8B5FFF731FB044658
:1019800065690DB9FFF7A6FBA869401EA86128D1BB
:1019900005F128063046FFF75BFB07466869606182
:1019A000022F2C6A05D16E6805F18000FFF7A1FBBC
:1019B00001E000206861A4B947B1022F0CD010D219
:1019C00028460168A1F1800500F00CF805F18000BF
:1019D000BDE8F24000F015B83046BDE8F240FFF730
:1019E00056B8F1BD10B50446FFF7FAFA2146C069B2
:1019F000FFF7F9FD20B92046BDE81040FFF7E1BA36
:101A000010BD10B504000CD0A4F180010868401E80
:101A1000086006D1896809B1204688472046FFF74B
:101A200068FB10BD10B50400002C08D50420FFF79A
:101A30009FFD0D49016000220C49FFF788F8012C39
:101A400005DB601EFFF7EEFF4443200000E00120AD
:101A500010BD10B50A20FFF7E5FF0400210004487F
:101A600000F008F8FEE70000F41C0000EC1E000087
:101A7000581E00000EB4C0B5024603A80021019014
:101A8000009101AB0121044878440C30FFF78CFE33
:101A900006BC5DF810FB00BF9503000019E050F88C
:101AA000042BD30744BFA9F101039A18091F00238F
:101AB000042942F8043BF9D25FEA817C134604D53D
:101AC0004FF0000CA2F800C09B1CC90744BF0021C6
:101AD000197050F8041B0029E1D1704770B5FFF769
:101AE0007FFA05466C6914B90020FFF712FB206AE3
:101AF000401C206204F128063046FFF7A9FA0228AC
:101B00000FBF66682868401C28603046FFF71EF942
:101B10003046BDE87040FFF713BB30B501688468FC
:101B20004218416802EB5103C9070BD54C4409E048
:101B300012F9011B12F8015B002904F8015B05D5BD
:101B4000491CF9D19A42F3D10C3030BD491EF1D570
:101B5000F8E700004E31305F5F6378786162697644
:101B60003132395F5F706F696E7465725F746F5F79
:101B70006D656D6265725F747970655F696E666FC1
:101B8000450000004E31305F5F63787861626976AE
:101B90003132335F5F66756E64616D656E74616C62
:101BA0005F747970655F696E666F45004E31305FB6
:101BB0005F637878616269763132305F5F73695F45
:101BC000636C6173735F747970655F696E666F458E
:101BD000000000004E31305F5F63787861626976A3
:101BE0003132315F5F766D695F636C6173735F740F
:101BF0007970655F696E666F4500000010B5074932
:101C000079441831064C7C44163404E00A68081DF7
:101C1000114488470146A142F8D110BD9800000048
:101C2000B40000004E31305F5F637878616269769E
:101C30003131375F5F636C6173735F747970655FB7
:101C4000696E666F450000004E31305F5F637878E3
:101C5000616269763131375F5F70626173655F74AD
:101C60007970655F696E666F450000004E31305FC8
:101C70005F637878616269763131395F5F706F696F
:101C80006E7465725F747970655F696E666F45002A
:101C900018B583B0030014000093019102946946C3
:101CA0000520ABBE01221900201AAFF3008004B05A
:101CB00010BD0000E9FDFFFFAC000000280000207F
:101CC0000000000057FEFFFF980300001200000014
:101CD00000000020B0B0A8800F0008001D01000027
:101CE000EC1E00000F00080000000000FEFFFFFFD8
:101CF000000000004E656761746976652041726777
:101D0000756D656E7420746F20666163746F72699F
:101D1000616C0000666163746F7269616C20746845
:101D200072657720657863657074696F6E3A2025F7
:101D30007300000080B58DF8000001226946012083
:101D400000F008F8012802D19DF8000002BD4FF014
:101D5000FF3002BD80B5002802D400F003F802BDB8
:101D6000002002BD80B5002901D1002002BD01285C
:101D700001D0022802D100F004F802BDFFF788FF6D
:101D800002BD30B583B00C0015000120FFF77AFCCE
:101D900000900194029569460520ABBE281A03B055
:101DA00030BD000000F00DF8002801D0FFF726FF3D
:101DB000AFF300800020AFF30080FFF74AFE00F091
:101DC00002F80120704700F001B800000746FFF755
:101DD000A6FB3846FFF756FBFBE70000B0AB0080E0
:101DE000280010007102000029001000000000000F
:101DF000FEFFFFFF00000000FFF7FFFB046821006B
:101E00000348FFF737FEFFF7B7FDFFF72BFE000093
:101E1000141D0000FFF7F1FB04F15800FFF769F90A
:101E2000FFF75CFEFFF7A8FDFEF7A2FF38B50446FA
:101E30000D462846FFF77EFFA84218BF0024204623
:101E400032BD0000B0B0A88009001A00C9FFFF7FB2
:101E5000FFFFFFFF00000000666163746F7269613D
:101E60006C28313029203D2025640000000000004E
:101E7000D01F0000C7140000B1140000D5140000EA
:101E80000000000040200000EB160000E5160000F6
:101E9000F116000000000000E81F00000120000013
:101EA000A91E00004920000010B50446FFF71CFCE5
:101EB0002046BDE81040FFF7C8BB0000B0B0A880C6
:101EC0000E000C0061FFFF7F00000000B0AF0C802F
:101ED0007C00BE017D01000000000000B0A8018070
:101EE000040020002901000000000000141F000071
:101EF0005820000001000000202000000000000029
:101F00007C1F00009111000055110000000000002E
:101F1000B81F0000971100006111000000000000D0
:101F2000881F0000931100005911000000000000FC
:101F3000941F0000951100005D1100005374397466
:101F40007970655F696E666F0000000053743962D6
:101F500061645F616C6C6F630000000053743965ED
:101F60007863657074696F6E0000000053743130DF
:101F70006261645F7479706569640000341F0000F9
:101F8000841B000030200000341F0000241C0000CF
:101F900030200000341F0000AC1B0000881F000030
:101FA000341F0000D41B0000881F0000341F0000F5
:101FB000481C000030200000341F00006C1C000092
:101FC000AC1F0000341F0000541B0000AC1F0000B9
:101FD000341F00004C1F000040200000626164209C
:101FE0007479706569640000341F00006C1F000084
:101FF00040200000AFF30080AFF30080FFF7D2FE77
:1020000010B50446FFF770FB204610BD6846FFF789
:102010006BFBFEF7ADFE0000041F0000BE060000D3
:10202000041F0000660F0000041F00005C20000079
:10203000241F00003C1F0000D0F8FFFF40F9FFFF05
:10204000241F00005C1F000000487047DC1F0000D8
:10205000FEF78EFEFEF78CFE504B6300446E0000D0
:0C206000F8FFF80001DD0FEA00000000AE
:0400000500001FF5E3
:00000001FF
