:1000000000040020A9000000870000008700000015
:10001000870000008700000087000000000000004B
:100020000000000000000000000000008700000049
:10003000870000000000000087000000870000002B
:10004000704780B5FFF7FCFF01BD704780B5FFF733
:10005000FCFF01BD80B5FFF7F4FFFFF7F7FFFEE7F8
:1000600000F00DF8002801D0AFF30080AFF300805E
:100070000020AFF30080FFF7EDFF00F002F8012051
:10008000704700F001B8FEE70746384600F002F876
:10009000FBE7000080B5AFF30080024A1100182092
:1000A000ABBEFBE726000200AFF30080AFF3008099
:0400B000FFF7D6FF81
:04000005000000A94E
:00000001FF
