S01F000048617264776172654D65646961746F725061747465726E2E73726563C4
S113000045C0000061C000005FC000005DC000008A
S11300105BC0000059C0000057C0000055C000007C
S113002053C0000051C000004FC000004DC000008C
S11300304BC0000049C0000047C0000045C000009C
S113004043C0000041C000003FC000003DC00000AC
S11300503BC0000039C0000037C0000035C00000BC
S113006033C0000031C000002FC000002DC00000CC
S11300702BC0000029C0000027C0000025C00000DC
S113008023C0000021C000001FC0000011241FBEB7
S1130090CFEFD0E4DEBFCDBF11E0A0E0B1E0E0EEF1
S11300A0F2E100E00BBF02C007900D92A630B10749
S11300B0D9F721E0A6E0B1E001C01D92AA30B20751
S11300C0E1F77DD00C946E099BCFCF93DF9300D0E2
S11300D0CDB7DEB780E190E0E0D79A838983898148
S11300E09A810F900F90DF91CF910895CF93DF9372
S11300F000D0CDB7DEB79A83898389819A81892B11
S113010021F089819A810E94E50800000F900F90E8
S1130110DF91CF910895CF93DF9300D0CDB7DEB7B1
S11301209A83898380E090E00F900F90DF91CF91C4
S11301300895CF93DF9300D0CDB7DEB79A83898338
S113014080E090E00F900F90DF91CF910895CF93CE
S1130150DF9300D000D0CDB7DEB79A8389837C8348
S11301606B8389819A812B813C81FC0131832083BB
S113017089819A81FC01208131818B819C8128179E
S1130180390719F480E090E002C08FEF9FEF0F90E1
S11301900F900F900F90DF91CF910895CF93DF933D
S11301A000D0CDB7DEB79A83898389819A81FC0117
S11301B0808191810F900F90DF91CF9108950F93DB
S11301C01F93CF93DF93CDB7DEB76F970FB6F89435
S11301D0DEBF0FBECDBF55D69A8389839E012D5FA6
S11301E03F4F89819A81B90122D49E012A5F3F4FF2
S11301F089819A81B9011BD49E01275F3F4F898170
S11302009A81B90114D49E01245F3F4F89819A8158
S1130210B9010DD49E01215F3F4F89819A81B901B3
S1130220BAD49E012A5E3F4F89819A81B901B3D421
S11302309E01235E3F4F89819A81B901D0D3898180
S11302409A8104E010E023E030E042E050E061E015
S113025070E082D089819A8163D189819A8101E099
S113026010E022E030E043E050E064E070E0A0D22F
S1130270FFCFCF93DF9300D000D0CDB7DEB79C8300
S11302808B838B819C81FC01158214828B819C81E0
S1130290FC01118210821A82198211C02B813C81C7
S11302A089819A810996880F991F820F931FFC01F7
S11302B01182108289819A8101969A838983898126
S11302C09A818436910554F31A82198211C02B81C4
S11302D03C8189819A810396880F991F820F931F0D
S11302E0FC011182108289819A8101969A83898303
S11302F089819A8104975CF31A82198211C02B8137
S11303003C8189819A810796880F991F820F931FD8
S1130310FC011182108289819A8101969A838983D2
S113032089819A8102975CF300000F900F900F90DF
S11303300F90DF91CF910895CF93DF9300D0CDB785
S1130340DEB79A83898389819A81CAD500000F9088
S11303500F90DF91CF9108950F931F93CF93DF9365
S1130360CDB7DEB72C970FB6F894DEBF0FBECDBF66
S11303709C838B837E836D8358874F833A87298739
S11303801C870B871A8219828B819C81FC01138242
S113039012828B819C813FD598DE9A83898329813F
S11303A03A818B819C81B901AAD489819A8121E007
S11303B030E0FC013183208389819A8122E030E09E
S11303C0FC013383228389819A8123E030E0FC019C
S11303D03583248389819A8124E030E0FC013783CA
S11303E0268389819A812AE030E0FC0131872087C5
S11303F089819A8124E130E0FC0133872287898155
S11304009A81FC011586148689819A8121E030E065
S1130410FC013787268759DE9A83898329813A81AB
S11304208B819C81B9016BD489819A8121E030E070
S1130430FC013183208389819A8122E030E0FC0130
S11304403383228389819A8123E030E0FC01358360
S1130450248389819A8124E030E0FC013783268358
S113046089819A812AE030E0FC01318720878981E3
S11304709A8124E130E0FC013387228789819A81C3
S11304802AE030E0FC013587248789819A81FC01C8
S1130490178616861ADE9A83898329813A818B818D
S11304A09C81B9012CD489819A81FC01118210822A
S11304B089819A81FC011382128289819A81FC01CB
S11304C01582148289819A81FC011782168289819E
S11304D09A81FC011186108689819A81FC01138618
S11304E0128689819A812AE030E0FC0135872487CD
S11304F089819A81FC01178616868B819C8123E071
S113050030E0FC013383228300002C960FB6F8946C
S1130510DEBF0FBECDBFDF91CF911F910F91089524
S1130520CF93DF93CDB7DEB728970FB6F894DEBF2D
S11305300FBECDBF98878F831C821B828F819885C5
S1130540FC01808191819E838D831A8219822F817F
S113055038858D819E810996880F991F820F931F7C
S1130560FC0180819181892B09F417C12F81388581
S11305708D819E810996880F991F820F931FFC011C
S113058080819181FC01808191819C838B838F8107
S11305909885FC01868197812B813C81B901D1D456
S11305A09A83898389819A81892B19F089819A8117
S11305B0F6C02F8138858D819E810996880F991FF9
S11305C0820F931FFC0180819181FC0182819381C0
S11305D09C838B838F819885FC01808591852B81F9
S11305E03C81B901AED49A83898389819A81892B0C
S11305F019F089819A81D3C02F8138858D819E819C
S11306000996880F991F820F931FFC0180819181A5
S1130610FC01848195819C838B838F819885FC0167
S1130620828593852B813C81B9018BD49A838983FC
S113063089819A81892B19F089819A81B0C02F818F
S113064038858D819E810996880F991F820F931F8B
S1130650FC0180819181FC01868197819C838B833D
S11306608F819885FC01848595852B813C81B90116
S113067068D49A83898389819A81892B19F0898125
S11306809A818DC02F8138858D819E810996880F2E
S1130690991F820F931FFC0180819181FC01808549
S11306A091859C838B838F819885FC0186859785B2
S11306B02B813C81B901A3D49A83898389819A814E
S11306C0892B19F089819A816AC02F8138858D819F
S11306D09E810996880F991F820F931FFC018081C8
S11306E09181FC01828593859C838B838F8198857E
S11306F0FC01808991892B813C81B90180D49A8342
S1130700898389819A81892B19F089819A8147C0CB
S11307102F8138858D819E810996880F991F820FBC
S1130720931FFC0180819181FC01848595859C83C4
S11307308B838F819885FC01848195812B813C81F9
S1130740B90105DD9A83898389819A81892B19F0FE
S113075089819A8124C02F8138858D819E81099653
S1130760880F991F820F931FFC0180819181FC01E6
S113077086859785892B49F08F819885FC01848132
S11307809581C9DC9A83898308C08F819885FC018F
S113079084819581CEDC9A83898389819A81289684
S11307A00FB6F894DEBF0FBECDBFDF91CF91089591
S11307B00F931F93CF93DF93CDB7DEB72A970FB66E
S11307C0F894DEBF0FBECDBF9A8389837C836B838D
S11307D05E834D8338872F831A87098789819A819D
S11307E02FEF3FEFFC013183208389819A81FC0143
S11307F01382128289819A815DD0E985FA852F81DD
S113080038854D815E816B817C8189819A818F01DC
S1130810A3DD89819A81FC0182819381892B51F422
S113082089819A8186529F4F2FEF3FEFFC013183DC
S113083020832EC089819A81FC01808191819C0151
S11308402F5F3F4F89819A81FC0131832083898105
S11308509A8166DE9C0189819A8186529F4FFC01B0
S11308603183208389819A8186529F4FFC01808144
S11308709181892B69F489819A81FC0120813181DC
S113088089819A81FC01828193812817390790F22A
S113089089819A8186529F4FFC01808191812A9699
S11308A00FB6F894DEBF0FBECDBFDF91CF911F917D
S11308B00F910895CF93DF9300D000D0CDB7DEB76A
S11308C09C838B831A82198228C02B813C81898165
S11308D09A810396880F991F820F931FFC018081D0
S11308E09181892B19F48FEF9FEF61C02B813C819B
S11308F089819A810396880F991F820F931FFC01A7
S1130900808191814ED3892B19F08FEF9FEF4FC0D7
S113091089819A8101969A83898389819A8104972E
S1130920A4F21A82198228C02B813C8189819A8180
S11309300796880F991F820F931FFC018081918174
S1130940892B19F48FEF9FEF32C02B813C81898171
S11309509A810796880F991F820F931FFC0180814B
S113096091817ED3892B19F08FEF9FEF20C089816D
S11309709A8101969A83898389819A810297A4F244
S11309808B819C81FC0184819581892B19F48FEFE3
S11309909FEF0DC08B819C81FC0184819581BBDB21
S11309A0892B19F08FEF9FEF02C080E090E00F9049
S11309B00F900F900F90DF91CF910895CF93DF9315
S11309C000D0CDB7DEB79A83898389819A81FC01EF
S11309D0848195810F900F90DF91CF910895CF93EB
S11309E0DF9300D000D0CDB7DEB79A8389837C83B0
S11309F06B8389819A812B813C81FC01358324831B
S1130A0000000F900F900F900F90DF91CF910895F9
S1130A10CF93DF9300D0CDB7DEB79A8389838981E2
S1130A209A8106960F900F90DF91CF910895CF93FE
S1130A30DF9300D000D000D0CDB7DEB79C838B838A
S1130A407E836D831A82198222C02B813C81898125
S1130A509A810396880F991F820F931FFC0180814E
S1130A609181892B79F42B813C8189819A81039628
S1130A70880F991F820F931F2D813E81FC013183C2
S1130A80208309C089819A8101969A838983898107
S1130A909A810497D4F2000026960FB6F894DEBF2C
S1130AA00FBECDBFDF91CF910895CF93DF9300D0D8
S1130AB000D000D0CDB7DEB79C838B837E836D835B
S1130AC01A82198223C02B813C8189819A810396E1
S1130AD0880F991F820F931FFC01208131818D8122
S1130AE09E812817390769F42B813C8189819A8179
S1130AF00396880F991F820F931FFC0111821082A5
S1130B0009C089819A8101969A83898389819A810E
S1130B100497CCF2000026960FB6F894DEBF0FBE01
S1130B20CDBFDF91CF910895CF93DF9300D000D054
S1130B30CDB7DEB79C838B831A82198211C02B81B7
S1130B403C8189819A810396880F991F820F931F94
S1130B50FC011182108289819A8101969A8389838A
S1130B6089819A8104975CF300000F900F900F9095
S1130B700F90DF91CF910895CF93DF9300D0CDB73D
S1130B80DEB79A83898389819A810E960F900F909C
S1130B90DF91CF910895CF93DF9300D000D000D0A0
S1130BA0CDB7DEB79C838B837E836D831A821982D3
S1130BB022C02B813C8189819A810796880F991FD5
S1130BC0820F931FFC0180819181892B79F42B8101
S1130BD03C8189819A810796880F991F820F931F00
S1130BE02D813E81FC013183208309C089819A8152
S1130BF001969A83898389819A810297D4F20000AD
S1130C0026960FB6F894DEBF0FBECDBFDF91CF910D
S1130C100895CF93DF9300D000D000D0CDB7DEB7D6
S1130C209C838B837E836D831A82198223C02B81DC
S1130C303C8189819A810796880F991F820F931F9F
S1130C40FC01208131818D819E812817390769F447
S1130C502B813C8189819A810796880F991F820F85
S1130C60931FFC011182108209C089819A81019627
S1130C709A83898389819A810297CCF2000026960F
S1130C800FB6F894DEBF0FBECDBFDF91CF910895AC
S1130C90CF93DF9300D000D0CDB7DEB79C838B8396
S1130CA01A82198211C02B813C8189819A8107960D
S1130CB0880F991F820F931FFC0111821082898172
S1130CC09A8101969A83898389819A8102975CF338
S1130CD000000F900F900F900F90DF91CF91089527
S1130CE0CF93DF9300D0CDB7DEB79A838983898110
S1130CF09A8142960F900F90DF91CF910895CF93F0
S1130D00DF9300D000D000D0CDB7DEB79C838B83B7
S1130D107E836D831A82198222C02B813C81898152
S1130D209A810996880F991F820F931FFC01808175
S1130D309181892B79F42B813C8189819A8109964F
S1130D40880F991F820F931F2D813E81FC013183EF
S1130D5020830AC089819A8101969A838983898133
S1130D609A8184369105CCF2000026960FB6F89449
S1130D70DEBF0FBECDBFDF91CF910895CF93DF9338
S1130D8000D000D000D0CDB7DEB79C838B837E83A8
S1130D906D831A82198230C02B813C8189819A81AA
S1130DA00996880F991F820F931FFC0120813181BE
S1130DB08D819E8128173907D1F42B813C8189814B
S1130DC09A810996880F991F820F931FFC018081D5
S1130DD091818CD92B813C8189819A810996880FD4
S1130DE0991F820F931FFC01118210820AC089810E
S1130DF09A8101969A83898389819A81843691059F
S1130E005CF2000026960FB6F894DEBF0FBECDBF8D
S1130E10DF91CF910895CF93DF9300D000D0CDB769
S1130E20DEB79C838B831A8219821EC02B813C817E
S1130E3089819A810996880F991F820F931FFC015B
S1130E408081918153D92B813C8189819A81099632
S1130E50880F991F820F931FFC01118210828981D0
S1130E609A8101969A83898389819A81843691052E
S1130E70ECF200000F900F900F900F90DF91CF9144
S1130E800895CF93DF9300D0CDB7DEB78CED90E01B
S1130E9004D19A83898389819A81892B19F0898164
S1130EA09A81E7D989819A810F900F90DF91CF9130
S1130EB00895CF93DF9300D0CDB7DEB79A838983AB
S1130EC089819A81892B19F089819A8135DA8981FE
S1130ED09A817BD100000F900F90DF91CF910895FC
S1130EE0CF93DF9300D0CDB7DEB79A83898389810E
S1130EF09A81FC0184819581892B29F089819A81C9
S1130F00FC011582148200000F900F90DF91CF91A5
S1130F100895CF93DF9300D0CDB7DEB79A8389834A
S1130F2089819A81892B19F48FEF9FEF05C08981FC
S1130F309A81FC01808191810F900F90DF91CF9174
S1130F400895CF93DF9300D000D0CDB7DEB79A8356
S1130F5089837C836B8389819A81FC01208131811F
S1130F608B819C81820F931F883691408CF48981F8
S1130F709A81FC01208131818B819C81280F391F4A
S1130F8089819A81FC013183208380E090E002C052
S1130F908FEF9FEF0F900F900F900F90DF91CF91F5
S1130FA00895CF93DF9300D0CDB7DEB79A838983BA
S1130FB089819A81FC011182108289819A81FC01C4
S1130FC080819181892B19F480E090E002C08FEF39
S1130FD09FEF0F900F90DF91CF910895CF93DF9300
S1130FE000D0CDB7DEB79A83898389819A81FC01C9
S1130FF0808191810F900F90DF91CF910895CF93CD
S1131000DF9300D000D0CDB7DEB79A8389837C8389
S11310106B8389819A81FC01228133818B819C813C
S113102028173907A4F489819A81FC012481358128
S11310308B819C818217930754F489819A812B8137
S11310403C81FC013183208380E090E002C08FEF7B
S11310509FEF0F900F900F900F90DF91CF91089515
S1131060CF93DF9300D0CDB7DEB79A83898389818C
S11310709A81FC011182108289819A81FC0180810C
S11310809181892B19F080E090E002C08FEF9FEFEF
S11310900F900F90DF91CF9108950F931F93CF93EB
S11310A0DF938230910510F482E090E0E091080132
S11310B0F091090120E030E0A0E0B0E0309719F1B0
S11310C0408151810281138148175907C8F0841760
S11310D0950769F4109731F012960C9312971396B2
S11310E01C9327C0009308011093090122C0211505
S11310F0310519F04217530718F49A01BD01EF01A5
S1131100DF01F801DBCF21153105F9F0281B390B7C
S11311102430310580F48A819B816115710521F0A9
S1131120FB019383828304C0909309018093080197
S1131130FE01329644C0FE01E20FF31F81939193A6
S113114022503109398328833AC020910601309115
S11311500701232B41F420910201309103013093C4
S1131160070120930601209100013091010121150E
S1131170310541F42DB73EB740910401509105016A
S1131180241B350BE0910601F0910701E217F307E8
S1131190A0F42E1B3F0B2817390778F0AC014E5FE3
S11311A05F4F2417350748F04E0F5F1F5093070118
S11311B0409306018193919302C0E0E0F0E0CF01F7
S11311C0DF91CF911F910F910895CF93DF930097F3
S11311D009F481C0FC01329713821282A0910801A4
S11311E0B0910901109781F420813181820F931FFE
S11311F020910601309107012817390751F5F09322
S11312000701E093060167C0ED0120E030E0CE174E
S1131210DF0740F44A815B819E0141155105F1F0DD
S1131220EA01F5CFD383C28340815181840F951F96
S1131230C817D90759F488819981840F951F02969C
S1131240918380838A819B819383828321153105D5
S113125029F4F0930901E09308013DC0E901FB83FF
S1131260EA8349915991C40FD51FEC17FD0761F426
S113127080819181840F951F0296E9019983888367
S1131280828193819B838A83E0E0F0E012968D91C2
S11312909C911397009719F0FD01DC01F7CF8D9114
S11312A09C9111979D012E5F3F4F820F931F2091B8
S11312B00601309107012817390769F4309729F49A
S11312C0109209011092080102C013821282B09395
S11312D00701A0930601DF91CF910895F894FFCF01
S10912E000000A012000D9
S9030000FC
