S01600004170706C6552656D6F74654370702E737265638D
S113000075C0000046C600009AC0000098C00000F9
S11300108EC60000D0C6000092C0000090C0000050
S11300208EC000008CC000008AC0000088C00000A0
S113003086C0000084C0000082C0000080C00000B0
S11300407EC000007CC00000FAC6000078C000003A
S113005076C0000074C0000072C0000070C00000D0
S11300606EC000006CC000006AC0000068C00000E0
S113007066C0000064C0000062C0000060C00000F0
S11300805EC000005CC000005AC00000620D1B0E80
S1130090A60C0A0B66087309B30FB30FB30FB30FA3
S11300A0B30FB30FB30FB30FB30FB30FB30FB30F3C
S11300B0B30FB30FB30FB30FB30FB30FB30FB30F2C
S11300C0B30FB30FB30FB30FB30FB30FB30FB30F1C
S11300D0B30FB30FB30FB30FB30FB30FB30FB30F0C
S11300E0B30FB30FB30FB30FB30F0C1611241FBE0E
S11300F0CFEFD0E4DEBFCDBF11E0A0E0B1E0E8E394
S1130100F6E300E00BBF02C007900D92A635B107DD
S1130110D9F721E0A6E5B1E001C01D92A739B207E5
S1130120E1F710E0C6E7D0E004C02197FE010E9489
S1130130FD1AC537D107C9F7B6D60C941A1B60CF80
S1130140CF93DF9300D0CDB7DEB79A8389838981BB
S11301509A81FC01128A89819A81FC012289898110
S11301609A81FC01218B00000F900F90DF91CF91B9
S11301700895CF93DF9300D01F92CDB7DEB79A8353
S113018089836B8389819A81FC018189282F30E0DE
S113019089819A81FC018289882F90E0409641E10F
S11301A050E0BA010E94EA1A2817390711F480E0D6
S11301B01FC089819A81FC018189882F90E029815F
S11301C03A81820F931F2B81FC01208389819A81BC
S11301D0FC018189882F90E0019621E130E0B9018A
S11301E00E94EA1A282F89819A81FC01218B81E0DF
S11301F00F900F900F90DF91CF910895CF93DF93DD
S113020000D000D0CDB7DEB79A8389837C836B831B
S113021089819A81FC01218989819A81FC018289E1
S1130220281711F480E022C089819A81FC01828917
S1130230882F90E029813A81820F931FFC0120814D
S11302408B819C81FC01208389819A81FC018289B4
S1130250882F90E0019621E130E0B9010E94EA1A6A
S1130260282F89819A81FC01228B81E00F900F90C5
S11302700F900F90DF91CF910895CF93DF9300D02B
S1130280CDB7DEB79A8389838AE290E02AE230E030
S1130290F901308122E0232BFC0120838BE290E0E2
S11302A02BE230E0F901308122E0232BFC01208392
S11302B084E490E024E430E0F90120812C7FFC0107
S11302C0208385E490E025E430E0F9012081256075
S11302D0FC0120838EE690E02EE630E0F9012081D7
S11302E02160FC0120838AE290E02AE230E0F901F7
S11302F020812B7FFC0120838BE290E02BE230E015
S1130300F901308124E0232BFC01208389E690E06D
S113031029E630E0F90120812160FC01208389E68F
S113032090E029E630E0F90120812D7FFC01208353
S11303308DE390E02DE330E0F90120812160FC01A0
S113034020831092560189819A81FC018081282F93
S11303502E7F89819A81FC01208310925C01109286
S11303605D0186E490E0FC01108200000F900F9084
S1130370DF91CF910895CF93DF9300D0CDB7DEB74F
S11303809A83898385E490E025E430E0F9012081B3
S11303902A7FFC0120838EE690E02EE630E0F9010E
S11303A020812E7FFC0120838DE390E02DE330E05B
S11303B0F90120812E7FFC01208300000F900F9013
S11303C0DF91CF910895CF93DF9300D01F92CDB7E3
S11303D0DEB79B838A83F89489E290E0FC018081F4
S11303E08470898386E490E0FC01808180935E01BF
S11303F0789490915D0181E0992309F480E0882349
S113040049F010925D011092560186E490E0FC01DF
S1130410108224C380915601882F90E08230910588
S113042009F481C0833091052CF4009779F0019789
S113043059F114C38430910509F483C184309105C2
S11304400CF4F8C0059709F403C208C38981882312
S113045029F486E490E0FC011082EFC280915E01F1
S1130460823430F080915E01803510F481E001C067
S113047080E0882309F4E1C281E08093560186E498
S113048090E0FC011082D9C28981882309F048C018
S113049080915E018F3130F080915E01883210F4DA
S11304A081E001C080E08823A1F086E490E0FC01B3
S11304B0108282E080935601109257018A819B81B9
S11304C0FC018081282F2D7F8A819B81FC01208360
S11304D0C5C280915E01803130F080915E0184312B
S11304E010F481E001C080E08823D1F08A819B81EF
S11304F0FC018081882F90E084709927892B69F012
S11305008A819B81FC018081282F22608A819B81C2
S1130510FC01208385E080935C01109256019EC209
S1130520109256019BC289818823A9F080915E01B3
S1130530833030F080915E01873010F481E001C097
S113054080E0882329F086E490E0FC01108286C2D2
S11305501092560183C280915E01833030F0809105
S11305605E01873010F481E001C080E0882351F1FE
S11305708091570191E0980F90935701282F30E014
S113058081E090E002C0880F991F2A95E2F78095D8
S11305909095982F8091580189238093580186E47F
S11305A090E0FC0110829091570181E0983008F4AA
S11305B080E0882309F443C283E0809356011092BB
S11305C057013DC280915E018A3030F080915E0116
S11305D0833110F481E001C080E0882341F18091EF
S11305E0570191E0980F90935701282F30E081E054
S11305F090E002C0880F991F2A95E2F7982F809106
S11306005801892B8093580186E490E0FC01108204
S11306109091570181E0983008F480E0882309F430
S113062010C283E080935601109257010AC21092BF
S1130630560114C289818823A9F080915E01833018
S113064030F080915E01873010F481E001C080E0D9
S1130650882329F086E490E0FC011082FFC1109207
S11306605601FCC180915E01833030F080915E01BF
S1130670873010F481E001C080E0882351F180913B
S1130680570191E0980F90935701282F30E081E0B3
S113069090E002C0880F991F2A95E2F78095909503
S11306A0982F8091590189238093590186E490E021
S11306B0FC0110829091570181E0983008F480E0A9
S11306C0882309F4C0C184E0809356011092570135
S11306D0BAC180915E018A3030F080915E0183312D
S11306E010F481E001C080E0882341F1809157013A
S11306F091E0980F90935701282F30E081E090E02B
S113070002C0880F991F2A95E2F7982F809159010A
S1130710892B8093590186E490E0FC01108290912A
S1130720570181E0983008F480E0882309F48DC1F2
S113073084E0809356011092570187C110925601AC
S11307408DC189818823A9F080915E01833030F0C6
S113075080915E01873010F481E001C080E088233D
S113076029F086E490E0FC01108278C110925601D1
S113077075C180915E01833030F080915E018730D5
S113078010F481E001C080E0882351F18091570189
S113079091E0980F90935701282F30E081E090E08A
S11307A002C0880F991F2A95E2F780959095982F9B
S11307B080915B01892380935B0186E490E0FC01D6
S11307C010829091570181E0983008F480E08823EA
S11307D009F43DC185E0809356011092570137C159
S11307E080915E018A3030F080915E01833110F493
S11307F081E001C080E0882341F18091570191E0BC
S1130800980F90935701282F30E081E090E002C0C8
S1130810880F991F2A95E2F7982F80915B01892B05
S113082080935B0186E490E0FC0110829091570173
S113083081E0983008F480E0882309F40AC185E057
S1130840809356011092570104C11092560106C1BB
S113085089818823A9F080915E01833030F08091F2
S11308605E01873010F481E001C080E0882329F024
S113087086E490E0FC011082F1C010925601EEC0B3
S113088080915E01833030F080915E01873010F4F6
S113089081E001C080E0882309F460C080915701A1
S11308A091E0980F90935701282F30E081E090E079
S11308B002C0880F991F2A95E2F780959095982F8A
S11308C080915A01892380935A0186E490E0FC01C7
S11308D010829091570181E0983008F480E08823D9
S11308E009F4B9C0109256018A819B81FC01808170
S11308F0882F90E081709927892B69F52091580100
S11309008A819B81FC012183209159018A819B81E9
S1130910FC01228320915A018A819B81FC0123835B
S113092080915B01882F90E09595879580935B017A
S113093020915B018A819B81FC0124838A819B81B4
S1130940FC018081282F25608A819B81FC01208302
S113095085E080935C01109257017DC080915E0117
S11309608A3030F080915E01833110F481E001C05F
S113097080E0882309F45EC08091570191E0980FCC
S113098090935701282F30E081E090E002C0880F57
S1130990991F2A95E2F7982F80915A01892B809309
S11309A05A0186E490E0FC0110829091570181E0A5
S11309B0983008F480E0882309F44FC0109256015F
S11309C08A819B81FC018081882F90E08170992726
S11309D0892B69F5209158018A819B81FC0121832F
S11309E0209159018A819B81FC01228320915A0123
S11309F08A819B81FC01238380915B01882F90E095
S1130A009595879580935B0120915B018A819B81F9
S1130A10FC0124838A819B81FC018081282F25602D
S1130A208A819B81FC01208385E080935C01109284
S1130A30570113C01092560111C000000FC00000EE
S1130A400DC000000BC0000009C0000007C000007A
S1130A5005C0000003C0000001C000000F900F900B
S1130A600F90DF91CF910895CF93DF9300D0CDB74E
S1130A70DEB79A83898381E080935D0190915C0164
S1130A8081E0992309F480E08823B9F080915C0126
S1130A90815080935C0190915C0181E0992309F07D
S1130AA080E0882351F089819A81FC018081282F7C
S1130AB0297F89819A81FC01208300000F900F9087
S1130AC0DF91CF910895CF93DF9300D0CDB7DEB7F8
S1130AD09A83898389819A81FC0181810F900F9087
S1130AE0DF91CF910895CF93DF9300D0CDB7DEB7D8
S1130AF09A83898389819A81FC0182810F900F9066
S1130B00DF91CF910895CF93DF9300D0CDB7DEB7B7
S1130B109A83898389819A81FC0183810F900F9044
S1130B20DF91CF910895CF93DF9300D0CDB7DEB797
S1130B309A83898389819A81FC0184810F900F9023
S1130B40DF91CF910895CF93DF93CDB7DEB784E2E1
S1130B5090E024E230E0F90120812C7FFC01208325
S1130B6088E690E028E630E0F90120812260FC016B
S1130B7020838BE690E02BE630E0F90120812360AE
S1130B80FC0120830000DF91CF910895CF93DF9380
S1130B90CDB7DEB783E290E0FC01908182E0982338
S1130BA081E0992309F480E0DF91CF910895CF93F8
S1130BB0DF93CDB7DEB783E290E0FC01908181E062
S1130BC0982381E0992309F480E0DF91CF9108957F
S1130BD0CF93DF93CDB7DEB787E290E027E230E032
S1130BE0F90120812F60FC01208388E290E028E253
S1130BF030E0F9012081207FFC0120830000DF9197
S1130C00CF910895CF93DF93CDB7DEB781E290E023
S1130C1021E230E0F9012081207FFC01208388E675
S1130C2090E028E630E0F90120812160FC01208376
S1130C308BE690E02BE630E0F90120812F60FC0187
S1130C4020830000DF91CF910895CF93DF93CDB738
S1130C50DEB787E290E027E230E0F9012081206FDF
S1130C60FC01208388E290E028E230E0F901208151
S1130C702F72FC01208388E290E028E230E0F90141
S1130C80308120E2232BFC0120830000DF91CF91EF
S1130C9008951F920F9200905F000F92112400900C
S1130CA05B000F922F933F934F935F936F937F93C8
S1130CB08F939F93AF93BF93EF93FF93CF93DF9360
S1130CC0CDB7DEB780918F018823B1F083E590E042
S1130CD023E530E0F90120812E7FFC012083F89484
S1130CE089E690E029E630E0F90120812160FC01E9
S1130CF0208310928F01789480E691E064DB0000F9
S1130D00DF91CF91FF91EF91BF91AF919F918F911F
S1130D107F916F915F914F913F912F910F9000922E
S1130D205B000F9000925F000F901F9018951F9228
S1130D300F9200905F000F92112400905B000F92BD
S1130D402F933F934F935F936F937F938F939F93CF
S1130D50AF93BF93EF93FF93CF93DF93CDB7DEB7FA
S1130D6080918F01882369F083E590E023E530E0EA
S1130D70F90120812E7FFC012083F89410928F01C9
S1130D8078940E944F130000DF91CF91FF91EF916F
S1130D90BF91AF919F918F917F916F915F914F918F
S1130DA03F912F910F9000925B000F9000925F0093
S1130DB00F901F9018951F920F9200905F000F9252
S1130DC0112400905B000F922F933F934F935F93F6
S1130DD06F937F938F939F93AF93BF93EF93FF93FF
S1130DE0CF93DF93CDB7DEB780918F01882369F06D
S1130DF083E590E023E530E0F90120812E7FFC01BA
S1130E002083F89410928F0178940E942C1400008F
S1130E10DF91CF91FF91EF91BF91AF919F918F910E
S1130E207F916F915F914F913F912F910F9000921D
S1130E305B000F9000925F000F901F9018951F9217
S1130E400F9200905F000F92112400905B000F92AC
S1130E502F933F934F935F936F937F938F939F93BE
S1130E60AF93BF93EF93FF93CF93DF93CDB7DEB7E9
S1130E7080E691E0F9DD0000DF91CF91FF91EF91E1
S1130E80BF91AF919F918F917F916F915F914F919E
S1130E903F912F910F9000925B000F9000925F00A2
S1130EA00F901F901895CF93DF9300D0CDB7DEB786
S1130EB019821A8248DE8CDEC8DEA4DE60E070E0AF
S1130EC08EE891E00E94AA19898361E070E08EE8BF
S1130ED091E00E94AA198A838A81882F90E0803445
S1130EE0910541F08038910541F0809749F40E94C2
S1130EF0511509C00E947B1506C00E94B11503C09C
S1130F000E94B115000080916001882F90E08170EB
S1130F109927892B41F1F89480E691E0D4DD8E3E47
S1130F2039F480E691E0DFDD873811F481E001C017
S1130F3080E0882391F080E691E0E5DD282F81E0D0
S1130F409981291709F080E0882339F080E691E03F
S1130F50EADD682F8BE791E00CD9809160018E7FE8
S1130F608093600122C080916001882F90E082709C
S1130F709927892BC9F040916001509161016091DA
S1130F80620170916301809164010E94D50F60E059
S1130F9070E08EE891E00E94AA1989838091600133
S1130FA08C7F8093600101C059D08091930190910E
S1130FB09401A0919501B09196010196A11DB11DD6
S1130FC08093930190939401A0939501B09396011B
S1130FD08091930190919401A0919501B091960113
S1130FE021E0803A9648A140B10508F420E022238C
S1130FF049F010929301109294011092950110926D
S1131000960102D078947FCFCF93DF93CDB7DEB72C
S1131010F89483E590E023E530E0F9012081217F15
S11310202460FC01208383E590E023E530E0F901AE
S113103020812160FC01208389E690E029E630E0EC
S1131040F90120812C7FFC01208381E080938F01B2
S1131050789488950000DF91CF9108950F931F93A2
S1131060CF93DF93CDB7DEB7CE58D1090FB6F8943E
S1131070DEBF0FBECDBFCE0182579F4FFC01108251
S1131080CE0182579F4FBC018BE791E0B7D889838B
S11310908981882309F47CC7CE0182579F4FFC01C4
S11310A08081882F90E0092E000CAA0BBB0B41E035
S11310B050E02EE230E0841B950B2817390708F422
S11310C052C78A5B9F4FFC010C94FD1A88E290E0A2
S11310D028E230E0F90120812E7FFC01208388E2A0
S11310E090E028E230E0F90120812F7EFC0120838A
S11310F085E691E00E949F168BE290E02BE230E0BF
S1131100F90120812D7FFC01208380E090E0A6E19D
S1131110B3E48E839F83A887B98720E030E04AEF49
S113112054E46E817F81888599850E945F1ADC0171
S1131130CB018CAB9DABAEABBFAB20E030E040E865
S11311405FE36CA97DA98EA99FA90E94DE1988235B
S11311502CF481E090E099AF88AF3EC020E03FEFEF
S11311604FE757E46CA97DA98EA99FA90E945B1A39
S1131170181644F520E030E040E251E46E817F81AE
S1131180888599850E945F1ADC01CB01BC01CD01E1
S11311900E94E219DC01CB0199AF88AF88AD99AD0B
S11311A0892B21F188EC90E09BAF8AAF8AAD9BAD8F
S11311B00197F1F79BAF8AAF88AD99AD019799AFCD
S11311C088AFECCF6CA97DA98EA99FA90E94E219D2
S11311D0DC01CB0199AF88AF88AD99AD9DAF8CAFE1
S11311E08CAD9DAD0197F1F79DAF8CAF8BE290E094
S11311F02BE230E0F901308122E0232BFC01208333
S113120080E090E0A8ECB2E48EA39FA3A8A7B9A7BE
S113121020E030E04AEF54E46EA17FA188A599A5AF
S11312200E945F1ADC01CB018AA79BA7ACA7BDA7CC
S113123020E030E040E85FE36AA57BA58CA59DA58E
S11312400E94DE1988232CF481E090E09FA78EA7EA
S11312503FC020E03FEF4FE757E46AA57BA58CA58C
S11312609DA50E945B1A18164CF520E030E040E280
S113127051E46EA17FA188A599A50E945F1ADC01A3
S1131280CB01BC01CD010E94E219DC01CB019FA777
S11312908EA78EA59FA5892B09F467C688EC90E0DC
S11312A099AB88AB88A999A90197F1F799AB88AB59
S11312B08EA59FA501979FA78EA7EBCF6AA57BA5B7
S11312C08CA59DA50E94E219DC01CB019FA78EA7E6
S11312D08EA59FA59BAB8AAB8AA99BA90197F1F721
S11312E09BAB8AAB42C688E290E028E230E0F90189
S11312F020812E7FFC01208388E290E028E230E008
S1131300F90120812F7EFC01208385E691E00E9473
S1131310FB178BE290E02BE230E0F90120812D7F76
S1131320FC01208380E090E0A6E1B3E48E879F87F0
S1131330A88BB98B8E01085B1F4F20E030E04AEF89
S113134054E46E857F85888999890E945F1ADC013F
S1131350CB01F80180839183A283B383CE01885BA0
S11313609F4F20E030E040E85FE3FC016081718141
S1131370828193810E94DE1988234CF4CE01845B20
S11313809F4F21E030E0FC013183208369C0CE010E
S1131390885B9F4F20E03FEF4FE757E4FC016081FB
S11313A07181828193810E945B1A18160CF046C0E9
S11313B020E030E040E251E46E857F858889998998
S11313C00E945F1ADC01CB018E01045B1F4FBC013C
S11313D0CD010E94E219DC01CB01F80191838083E5
S11313E0CE01845B9F4FFC0180819181892B09F49C
S11313F051C0CE01825B9F4F28EC30E0FC01318369
S11314002083CE01825B9F4FFC01808191810197F3
S1131410F1F79E01225B3F4FF90191838083CE0156
S1131420845B9F4F9E01245B3F4FF90120813181F2
S113143021503109FC0131832083D2CF8E01045B1A
S11314401F4FCE01885B9F4FFC01608171818281B7
S113145093810E94E219DC01CB01F801918380831E
S1131460CE01805B9F4F9E01245B3F4FF901208199
S11314703181FC0131832083CE01805B9F4FFC01CD
S1131480808191810197F1F79E01205B3F4FF90123
S1131490918380838BE290E02BE230E0F90130818C
S11314A022E0232BFC01208380E090E0A8ECB2E44E
S11314B08A839B83AC83BD838E01025C1F4F20E033
S11314C030E04AEF54E46A817B818C819D810E94E3
S11314D05F1ADC01CB01F80180839183A283B3837B
S11314E0CE01CE9620E030E040E85FE3FC0160816D
S11314F07181828193810E94DE1988234CF4CE018C
S11315008E5B9F4F21E030E0FC013183208367C074
S1131510CE01CE9620E03FEF4FE757E4FC01608117
S11315207181828193810E945B1A18160CF046C067
S113153020E030E040E251E46A817B818C819D812E
S11315400E945F1ADC01CB018E010E5B1F4FBC01B0
S1131550CD010E94E219DC01CB01F8019183808363
S1131560CE018E5B9F4FFC0180819181892B09F410
S1131570FEC4CE018C5B9F4F28EC30E0FC0131832C
S11315802083CE018C5B9F4FFC0180819181019768
S1131590F1F79E012C5B3F4FF90191838083CE01CB
S11315A08E5B9F4F9E012E5B3F4FF901208131815D
S11315B021503109FC0131832083D2CF8E010E5B8F
S11315C01F4FCE01CE96FC0160817181828193818F
S11315D00E94E219DC01CB01F80191838083CE01E2
S11315E08A5B9F4F9E012E5B3F4FF9012081318121
S11315F0FC0131832083CE018A5B9F4FFC018081F3
S113160091810197F1F79E012A5B3F4FF901918384
S11316108083ADC486E290E0FC018081882F90E055
S1131620807E99278034910549F08038910549F0EE
S1131630809709F007C00E947B1504C00E94B11571
S113164001C000008BE290E02BE230E0F901208140
S11316502D7FFC01208380E090E0A6E1B3E48E8B33
S11316609F8BA88FB98F8E01045A1F4F20E030E062
S11316704AEF54E46E897F89888D998D0E945F1AA0
S1131680DC01CB01F80180839183A283B383CE0173
S1131690845A9F4F20E030E040E85FE3FC01608122
S11316A07181828193810E94DE1988234CF4CE01DA
S11316B0805A9F4F21E030E0FC013183208369C0D0
S11316C0CE01845A9F4F20E03FEF4FE757E4FC01DF
S11316D060817181828193810E945B1A18160CF0DB
S11316E046C020E030E040E251E46E897F89888D75
S11316F0998D0E945F1ADC01CB018E01005A1F4FA5
S1131700BC01CD010E94E219DC01CB01F8019183F7
S11317108083CE01805A9F4FFC0180819181892B67
S113172009F451C0CE018E599F4F28EC30E0FC01E2
S113173031832083CE018E599F4FFC01808191819A
S11317400197F1F79E012E593F4FF9019183808350
S1131750CE01805A9F4F9E01205A3F4FF9012081AC
S1131760318121503109FC0131832083D2CF8E0194
S1131770005A1F4FCE01845A9F4FFC016081718132
S1131780828193810E94E219DC01CB01F8019183EB
S11317908083CE018C599F4F9E01205A3F4FF901FF
S11317A020813181FC0131832083CE018C599F4FEC
S11317B0FC01808191810197F1F79E012C593F4FE3
S11317C0F901918380838BE290E02BE230E0F90110
S11317D0308122E0232BFC01208380E090E0A8EC00
S11317E0B2E48A879B87AC87BD878E010E5A1F4F50
S11317F020E030E04AEF54E46A857B858C859D8542
S11318000E945F1ADC01CB01F80180839183A283DB
S1131810B383CE018E5A9F4F20E030E040E85FE36F
S1131820FC0160817181828193810E94DE19882389
S11318304CF4CE018A5A9F4F21E030E0FC01318301
S1131840208369C0CE018E5A9F4F20E03FEF4FE7BF
S113185057E4FC0160817181828193810E945B1A4B
S113186018160CF046C020E030E040E251E46A85EE
S11318707B858C859D850E945F1ADC01CB018E01DE
S11318800A5A1F4FBC01CD010E94E219DC01CB01B1
S1131890F80191838083CE018A5A9F4FFC01808195
S11318A09181892B09F465C3CE01885A9F4F28EC96
S11318B030E0FC0131832083CE01885A9F4FFC0124
S11318C0808191810197F1F79E01285A3F4FF901D8
S11318D091838083CE018A5A9F4F9E012A5A3F4F9B
S11318E0F9012081318121503109FC0131832083A8
S11318F0D2CF8E010A5A1F4FCE018E5A9F4FFC0140
S113190060817181828193810E94E219DC01CB01A3
S1131910F80191838083CE01865A9F4F9E012A5AF3
S11319203F4FF90120813181FC0131832083CE01B5
S1131930865A9F4FFC01808191810197F1F79E01A6
S1131940265A3F4FF9019183808313C380E090E0CE
S1131950AAEFB3E48A8B9B8BAC8BBD8B8E010A59A7
S11319601F4F20E030E04AEF54E46A897B898C8978
S11319709D890E945F1ADC01CB01F8018083918369
S1131980A283B383CE018A599F4F20E030E040E820
S11319905FE3FC0160817181828193810E94DE1981
S11319A088234CF4CE0186599F4F21E030E0FC019E
S11319B03183208369C0CE018A599F4F20E03FEFD5
S11319C04FE757E4FC0160817181828193810E9419
S11319D05B1A18160CF046C020E030E040E251E4F7
S11319E06A897B898C899D890E945F1ADC01CB01FD
S11319F08E0106591F4FBC01CD010E94E219DC0182
S1131A00CB01F80191838083CE0186599F4FFC015D
S1131A1080819181892B09F451C0CE0184599F4F53
S1131A2028EC30E0FC0131832083CE0184599F4FA0
S1131A30FC01808191810197F1F79E0124593F4F68
S1131A40F90191838083CE0186599F4F9E012659C7
S1131A503F4FF9012081318121503109FC0131834B
S1131A602083D2CF8E0106591F4FCE018A599F4F32
S1131A70FC0160817181828193810E94E219DC0101
S1131A80CB01F80191838083CE0182599F4F9E013F
S1131A9026593F4FF90120813181FC013183208394
S1131AA0CE0182599F4FFC01808191810197F1F70A
S1131AB09E0122593F4FF9019183808381E08093F5
S1131AC090015CC280E090E0AAEFB3E48A8F9B8F20
S1131AD0AC8FBD8F8E0100591F4F20E030E04AEFDC
S1131AE054E46A8D7B8D8C8D9D8D0E945F1ADC0180
S1131AF0CB01F80180839183A283B383CE01805903
S1131B009F4F20E030E040E85FE3FC016081718199
S1131B10828193810E94DE1988234CF4CE018C5873
S1131B209F4F21E030E0FC013183208369C0CE0166
S1131B3080599F4F20E03FEF4FE757E4FC0160815D
S1131B407181828193810E945B1A18160CF046C041
S1131B5020E030E040E251E46A8D7B8D8C8D9D8DD8
S1131B600E945F1ADC01CB018E010C581F4FBC018F
S1131B70CD010E94E219DC01CB01F801918380833D
S1131B80CE018C589F4FFC0180819181892B09F4EF
S1131B90F2C1CE018A589F4F28EC30E0FC0131831A
S1131BA02083CE018A589F4FFC0180819181019747
S1131BB0F1F79E012A583F4FF90191838083CE01AA
S1131BC08C589F4F9E012C583F4FF9012081318141
S1131BD021503109FC0131832083D2CF8E010C586E
S1131BE01F4FCE0180599F4FFC016081718182811A
S1131BF093810E94E219DC01CB01F8019183808377
S1131C00CE0188589F4F9E012C583F4FF9012081E7
S1131C103181FC0131832083CE0188589F4FFC0120
S1131C20808191810197F1F79E0128583F4FF90176
S1131C3091838083A0C188E290E028E230E0F9013A
S1131C40308121E02327FC01208388E290E028E210
S1131C5030E0F901308120E12327FC0120838BE26D
S1131C6090E02BE230E0F90120812D7FFC012083FC
S1131C7080E090E0A6E1B3E48AA39BA3ACA3BDA358
S1131C808E010C571F4F20E030E04AEF54E46AA164
S1131C907BA18CA19DA10E945F1ADC01CB01F801FC
S1131CA080839183A283B383CE018C579F4F20E01E
S1131CB030E040E85FE3FC016081718182819381BF
S1131CC00E94DE1988234CF4CE0188579F4F21E0EF
S1131CD030E0FC013183208369C0CE018C579F4FD3
S1131CE020E03FEF4FE757E4FC016081718182817E
S1131CF093810E945B1A18160CF046C020E030E075
S1131D0040E251E46AA17BA18CA19DA10E945F1ACB
S1131D10DC01CB018E0108571F4FBC01CD010E948D
S1131D20E219DC01CB01F80191838083CE0188574D
S1131D309F4FFC0180819181892B09F451C0CE0110
S1131D4086579F4F28EC30E0FC0131832083CE017D
S1131D5086579F4FFC01808191810197F1F79E0185
S1131D6026573F4FF90191838083CE0188579F4FB7
S1131D709E0128573F4FF9012081318121503109BB
S1131D80FC0131832083D2CF8E0108571F4FCE012F
S1131D908C579F4FFC0160817181828193810E94E5
S1131DA0E219DC01CB01F80191838083CE018457D1
S1131DB09F4F9E0128573F4FF90120813181FC013B
S1131DC031832083CE0184579F4FFC018081918110
S1131DD00197F1F79E0124573F4FF90191838083C6
S1131DE08BE290E02BE230E0F901308122E0232BFA
S1131DF0FC01208380E090E0A8ECB2E48E8F9F8FFA
S1131E00A8A3B9A38E0106581F4F20E030E04AEF83
S1131E1054E46E8D7F8D88A199A10E945F1ADC0124
S1131E20CB01F80180839183A283B383CE018658CA
S1131E309F4F20E030E040E85FE3FC016081718166
S1131E40828193810E94DE1988234CF4CE0182584A
S1131E509F4F21E030E0FC013183208369C0CE0133
S1131E6086589F4F20E03FEF4FE757E4FC01608125
S1131E707181828193810E945B1A18160CF046C00E
S1131E8020E030E040E251E46E8D7F8D88A199A17D
S1131E900E945F1ADC01CB018E0102581F4FBC0166
S1131EA0CD010E94E219DC01CB01F801918380830A
S1131EB0CE0182589F4FFC0180819181892B09F4C6
S1131EC05CC0CE0180589F4F28EC30E0FC01318388
S1131ED02083CE0180589F4FFC018081918101971E
S1131EE0F1F79E0120583F4FF90191838083CE0181
S1131EF082589F4F9E0122583F4FF9012081318122
S1131F0021503109FC0131832083D2CF8E01025844
S1131F101F4FCE0186589F4FFC01608171818281E1
S1131F2093810E94E219DC01CB01F8019183808343
S1131F30CE018E579F4F9E0122583F4FF9012081B9
S1131F403181FC0131832083CE018E579F4FFC01E8
S1131F50808191810197F1F79E012E573F4FF9013E
S1131F60918380830AC0000009C0000007C00000FC
S1131F7005C0000003C0000001C00000CE0182576C
S1131F809F4FBC018BE791E00E94FE00898380C8CB
S1131F900000C257DF4F0FB6F894DEBF0FBECDBFAF
S1131FA0DF91CF911F910F9108950F931F93CF93BA
S1131FB0DF93CDB7DEB7CC54D1090FB6F894DEBFAA
S1131FC00FBECDBF9E01285B3F4FF9014083F9014D
S1131FD05183F9016283F9017383F9018483CE018A
S1131FE0885B9F4F0E949305882F90E08330910572
S1131FF009F461C2843091053CF48130910561F0AB
S1132000029709F43AC33EC38530910509F412C11D
S1132010069709F4B1C136C3CE01885B9F4F0E9475
S11320208305482F60E070E08EE891E00E94681913
S1132030882309F424C3198219828981823008F023
S11320401EC38BE290E02BE230E0F90120812D7F6A
S1132050FC01208380E090E0AAEFB3E48E839F83A9
S1132060A887B98720E030E04AEF54E46E817F818D
S1132070888599850E945F1ADC01CB0188A399A306
S1132080AAA3BBA320E030E040E85FE368A179A104
S11320908AA19BA10E94DE1988232CF481E090E0A0
S11320A09DA38CA33EC020E03FEF4FE757E468A117
S11320B079A18AA19BA10E945B1A181644F520E01D
S11320C030E040E251E46E817F81888599850E94E9
S11320D05F1ADC01CB01BC01CD010E94E219DC01D5
S11320E0CB019DA38CA38CA19DA1892B21F188EC0C
S11320F090E09FA38EA38EA19FA10197F1F79FA3C8
S11321008EA38CA19DA101979DA38CA3ECCF68A164
S113211079A18AA19BA10E94E219DC01CB019DA3B4
S11321208CA38CA19DA199A788A788A599A501979F
S1132130F1F799A788A78BE290E02BE230E0F90150
S1132140308122E0232BFC01208380E090E0AAEF81
S1132150B3E48A8B9B8BAC8BBD8B20E030E04AEFE1
S113216054E46A897B898C899D890E945F1ADC0109
S1132170CB018E8B9F8BA88FB98F20E030E040E895
S11321805FE36E897F89888D998D0E94DE1988238B
S11321902CF481E090E09B8F8A8F3EC020E03FEFDB
S11321A04FE757E46E897F89888D998D0E945B1A69
S11321B0181644F520E030E040E251E46A897B8956
S11321C08C899D890E945F1ADC01CB01BC01CD0181
S11321D00E94E219DC01CB019B8F8A8F8A8D9B8D33
S11321E0892B21F188EC90E09D8F8C8F8C8D9D8DB7
S11321F00197F1F79D8F8C8F8A8D9B8D01979B8F13
S11322008A8FECCF6E897F89888D998D0E94E2191F
S1132210DC01CB019B8F8A8F8A8D9B8D9F8F8E8F44
S11322208E8D9F8D0197F1F79F8F8E8F89818F5FA0
S1132230898303CF88E290E028E230E0F90120812D
S11322402E7FFC01208388E290E028E230E0F9014F
S113225020812F7EFC0120838BE290E02BE230E092
S1132260F90120812D7FFC01208385E691E067D56B
S113227080E090E0A8ECB2E48A839B83AC83BD83C6
S113228020E030E04AEF54E46A817B818C819D81B7
S11322900E945F1ADC01CB018AA79BA7ACA7BDA74C
S11322A020E030E040E85FE36AA57BA58CA59DA50E
S11322B00E94DE1988232CF481E090E09FA78EA76A
S11322C03EC020E03FEF4FE757E46AA57BA58CA50D
S11322D09DA50E945B1A181644F520E030E040E208
S11322E051E46A817B818C819D810E945F1ADC01AB
S11322F0CB01BC01CD010E94E219DC01CB019FA7F7
S11323008EA78EA59FA5892B21F188EC90E099AB2F
S113231088AB88A999A90197F1F799AB88AB8EA5E9
S11323209FA501979FA78EA7ECCF6AA57BA58CA537
S11323309DA50E94E219DC01CB019FA78EA78EA563
S11323409FA59BAB8AAB8AA99BA90197F1F79BAB8D
S11323508AAB1092930110929401109295011092FD
S113236096018BE290E02BE230E0F901308122E02B
S1132370232BFC01208386C188E290E028E230E030
S1132380F90120812E7FFC01208388E290E028E27D
S113239030E0F90120812F7EFC0120838BE290E064
S11323A02BE230E0F90120812D7FFC01208385E6BA
S11323B091E021D680E090E0A8ECB2E48A879B8784
S11323C0AC87BD8720E030E04AEF54E46A857B8522
S11323D08C859D850E945F1ADC01CB018CAB9DAB83
S11323E0AEABBFAB20E030E040E85FE36CA97DA971
S11323F08EA99FA9E3D788232CF481E090E099AFBC
S113240088AF3CC020E03FEF4FE757E46CA97DA9BB
S11324108EA99FA90E945B1A18163CF520E030E0B3
S113242040E251E46A857B858C859D850E945F1A14
S1132430DC01CB01BC01CD01C5D7DC01CB0199AFD7
S113244088AF88AD99AD892B19F188EC90E09BAFEA
S11324508AAF8AAD9BAD0197F1F79BAF8AAF88AD88
S113246099AD019799AF88AFECCF6CA97DA98EA9DE
S11324709FA9A8D7DC01CB0199AF88AF88AD99ADEE
S11324809DAF8CAF8CAD9DAD0197F1F79DAF8CAF37
S1132490109293011092940110929501109296015A
S11324A08BE290E02BE230E0F901308122E0232B33
S11324B0FC012083E7C09091900181E08927882363
S11324C009F0DFC086E290E0FC018081882F90E073
S11324D0807E99278034910531F08038910529F068
S11324E0809729F005C0DDD203C005D301C00000E8
S11324F08BE290E02BE230E0F90120812D7FFC019A
S1132500208380E090E0A6E1B3E48E879F87A88BC8
S1132510B98B8E01025C1F4F20E030E04AEF54E497
S11325206E857F8588899989CAD7DC01CB01F8013A
S113253080839183A283B383CE01CE9620E030E0E2
S113254040E85FE3FC01608171818281938136D729
S113255088234CF4CE018E5B9F4F21E030E0FC01D8
S11325603183208363C0CE01CE9620E03FEF4FE756
S113257057E4FC0160817181828193819CD7181694
S11325800CF044C020E030E040E251E46E857F85E9
S11325908889998994D7DC01CB018E010E5B1F4F8A
S11325A0BC01CD010FD7DC01CB01F80191838083FD
S11325B0CE018E5B9F4FFC0180819181892B09F4B0
S11325C04FC0CE018C5B9F4F28EC30E0FC0131837F
S11325D02083CE018C5B9F4FFC0180819181019708
S11325E0F1F79E012C5B3F4FF90191838083CE016B
S11325F08E5B9F4F9E012E5B3F4FF90120813181FD
S113260021503109FC0131832083D2CF8E010E5B2E
S11326101F4FCE01CE96FC0160817181828193812E
S1132620D1D6DC01CB01F80191838083CE018A5B92
S11326309F4F9E012E5B3F4FF90120813181FC01A8
S113264031832083CE018A5B9F4FFC01808191817D
S11326500197F1F79E012A5B3F4FF9019183808333
S11326608BE290E02BE230E0F901308122E0232B71
S1132670FC0120831092900105C0000003C00000FB
S113268001C000000000C45BDF4F0FB6F894DEBF4A
S11326900FBECDBFDF91CF911F910F910895CF93BE
S11326A0DF93CDB7DEB72E970FB6F894DEBF0FBE1B
S11326B0CDBFF89488E690E028E630E0F901208167
S11326C02E7FFC01208380E090E0A8ECB2E48983B3
S11326D09A83AB83BC8320E030E04AEF54E4698101
S11326E07A818B819C81EBD6DC01CB018D839E8327
S11326F0AF83B88720E030E040E85FE36D817E81FE
S11327008F8198855BD688232CF481E090E09A87AA
S113271089873AC020E03FEF4FE757E46D817E811F
S11327208F819885C8D6181634F520E030E040E251
S113273051E469817A818B819C81C1D6DC01CB0112
S1132740BC01CD013FD6DC01CB019A8789878985FD
S11327509A85892B19F188EC90E09C878B878B856F
S11327609C850197F1F79C878B8789859A850197CA
S11327709A878987ECCF6D817E818F81988522D657
S1132780DC01CB019A87898789859A859E878D8705
S11327908D859E850197F1F79E878D8780E290E075
S11327A0FC01908181E0982381E0992309F080E085
S11327B08823A9F088E290E028E230E0F901308132
S11327C021E02327FC01208388E290E028E230E026
S11327D0F901308120E12327FC01208329C080E214
S11327E090E0FC01908182E0982381E0992309F034
S11327F080E0882311F055D11BC080E290E0FC01F9
S1132800908184E0982381E0992309F080E0882373
S113281011F071D10DC080E290E0FC01908188E05C
S1132820982381E0992309F080E0882309F099D165
S113283088E690E028E630E0F90120812160FC017F
S11328402083789400002E960FB6F894DEBF0FBE56
S1132850CDBFDF91CF910895CF93DF93CDB7DEB78E
S1132860F89488E690E028E630E0F90120812D7F95
S1132870FC0120830E94C605882341F080919101C8
S11328808093920182E0809391010BC00E94D7054E
S1132890882339F0809191018093920181E08093A3
S11328A0910180919101823069F480919201882391
S11328B049F40E94C605982F81E08927882311F0E6
S11328C081E001C080E0882329F0109292011092E7
S11328D0910118C080919101813069F48091920135
S11328E0882349F40E94D705982F81E089278823FB
S11328F011F081E001C080E0882321F01092920160
S11329001092910180919101813081F48091920122
S1132910823061F486E290E0FC018081882F90E0AF
S1132920807E9927809711F081E001C080E08823A0
S113293031F02FD010929201109291011DC080911C
S11329409101823089F480919201813069F486E2A8
S113295090E0FC018081882F90E0807E9927803868
S1132960910511F081E001C080E0882329F055D061
S1132970109292011092910188E690E028E630E0EE
S1132980F90120812260FC0120830000DF91CF91B6
S11329900895CF93DF93CDB7DEB788E290E028E2C5
S11329A030E0F901308121E0232BFC01208388E20F
S11329B090E028E230E0F901308120E1232BFC0192
S11329C0208385E691E0BBD186E290E0FC01808122
S11329D0882F90E0807E99278034910521F08038FB
S11329E0910519F004C05DD002C085D0000088E2D2
S11329F090E028E230E0F90120812E7FFC01208361
S1132A0088E290E028E230E0F90120812F7EFC0189
S1132A1020830000DF91CF910895CF93DF93CDB74A
S1132A20DEB788E290E028E230E0F901308121E06D
S1132A30232BFC01208388E290E028E230E0F901B6
S1132A40308120E1232BFC01208385E691E0D3D261
S1132A5086E290E0FC018081882F90E0807E9927B7
S1132A608032910521F08034910519F004C043D0DF
S1132A7002C077D0000088E290E028E230E0F9015B
S1132A8020812E7FFC01208388E290E028E230E060
S1132A90F90120812F7EFC0120830000DF91CF917A
S1132AA00895CF93DF93CDB7DEB788E290E028E2B4
S1132AB030E0F9012081217FFC01208388E290E04D
S1132AC028E230E0F90120812F73FC01208388E2A1
S1132AD090E028E230E0F901308120E2232BFC0170
S1132AE0208340E261E070E08EE891E0F1D30000E1
S1132AF0DF91CF910895CF93DF93CDB7DEB788E20E
S1132B0090E028E230E0F9012081322F28E020957E
S1132B102323FC01208388E290E028E230E0F901DD
S1132B2020812660FC01208388E290E028E230E0E6
S1132B30F90120812F75FC01208388E290E028E2CE
S1132B4030E0F901308120E4232BFC01208340E4B0
S1132B5061E070E08EE891E0BBD30000DF91CF919B
S1132B600895CF93DF93CDB7DEB788E290E028E2F3
S1132B7030E0F90120812B7FFC01208388E290E082
S1132B8028E230E0F90120812A60FC01208388E2F8
S1132B9090E028E230E0F90120812F79FC012083C4
S1132BA088E290E028E230E0F901308120E8232B2C
S1132BB0FC01208340E861E070E08EE891E088D376
S1132BC00000DF91CF910895CF93DF9300D000D020
S1132BD0CDB7DEB79A8389837C836B8389819A819D
S1132BE0019791F48B819C81019671F480E691E0C8
S1132BF00E943D0185E691E01BD08BE791E00E94A5
S1132C00A0008EE891E053D300000F900F900F9036
S1132C100F90DF91CF910895CF93DF93CDB7DEB7B7
S1132C206FEF7FEF81E090E0CFDFDF91CF910895E8
S1132C30CF93DF9300D0CDB7DEB79A8389838981A0
S1132C409A8126E0FC01208389819A819C012B5F73
S1132C503F4F89819A81FC013283218389819A8142
S1132C609C01215F3F4F89819A81FC013483238336
S1132C7089819A8125E0FC01258389819A819C01BF
S1132C80265F3F4F89819A81FC01378326832981FE
S1132C903A8189819A81FC013187208789819A81CF
S1132CA029E0FC01228789819A819C01215F3F4FA1
S1132CB089819A81FC013487238789819A819C01C7
S1132CC02B5F3F4F89819A81FC0136872587898153
S1132CD09A812AE0FC01278729813A8189819A8196
S1132CE0FC01318B208B89819A819C01265F3F4FA7
S1132CF089819A81FC01338B228B84E290E024E267
S1132D0030E0F90120812C63FC01208385E290E00E
S1132D1025E230E0F9012081237CFC0120838981B4
S1132D209A819C01215F3F4F89819A81FC01358BF7
S1132D30248B00000F900F90DF91CF910895CF93D3
S1132D40DF93CDB7DEB76E970FB6F894DEBF0FBE34
S1132D50CDBF9E8F8D8F8D8D9E8DFC01848995892D
S1132D60FC01238134818D8D9E8DFC01358B248B58
S1132D708D8D9E8DFC0184899589FC018081882F2D
S1132D8090E0AC01440F551F440F551F85E290E0BD
S1132D9025E230E0F9012081322F242F232BFC017E
S1132DA0208380E090E0A0EAB1E489839A83AB8336
S1132DB0BC8320E030E04AEF54E469817A818B815E
S1132DC09C817DD3DC01CB018B8B9C8BAD8BBE8B2B
S1132DD020E030E040E85FE36B897C898D899E893F
S1132DE0EDD288232CF481E090E0988F8F8B3AC049
S1132DF020E03FEF4FE757E46B897C898D899E89FA
S1132E005AD3181634F520E030E040E251E46981E9
S1132E107A818B819C8153D3DC01CB01BC01CD0130
S1132E20D1D2DC01CB01988F8F8B8F89988D892B20
S1132E3019F188EC90E09A8F898F898D9A8D01978A
S1132E40F1F79A8F898F8F89988D0197988F8F8B3F
S1132E50ECCF6B897C898D899E89B4D2DC01CB014E
S1132E60988F8F8B8F89988D9C8F8B8F8B8D9C8D5A
S1132E700197F1F79C8F8B8F8D8D9E8DFC0184893A
S1132E809589FC018081882F90E0880F991F880F15
S1132E90991FAC014095509585E290E025E230E021
S1132EA0F9012081322F242F2323FC0120838D8DCF
S1132EB09E8DFC0184899589FC01238134818D8D4B
S1132EC09E8DFC01358B248B8D8D9E8DFC01848918
S1132ED09589FC018081882F90E0AC01440F551F37
S1132EE0440F551F85E290E025E230E0F90120818E
S1132EF0322F242F232BFC01208380E090E0A0EAD2
S1132F00B1E48D839E83AF83B88720E030E04AEF3D
S1132F1054E46D817E818F819885D1D2DC01CB010F
S1132F2089879A87AB87BC8720E030E040E85FE37D
S1132F3069857A858B859C8541D288232CF481E030
S1132F4090E09E878D873AC020E03FEF4FE757E43B
S1132F5069857A858B859C85AED2181634F520E078
S1132F6030E040E251E46D817E818F819885A7D263
S1132F70DC01CB01BC01CD0125D2DC01CB019E8754
S1132F808D878D859E85892B19F188EC90E0988B2F
S1132F908F878F8598890197F1F7988B8F878D8517
S1132FA09E8501979E878D87ECCF69857A858B8571
S1132FB09C8508D2DC01CB019E878D878D859E85FB
S1132FC09A8B898B89899A890197F1F79A8B898BD6
S1132FD085E290E025E230E0F9012081237CFC01C8
S1132FE0208300006E960FB6F894DEBF0FBECDBFEF
S1132FF0DF91CF910895CF93DF93CDB7DEB76E976E
S11330000FB6F894DEBF0FBECDBF9E8F8D8F8D8D12
S11330109E8DFC0184899589FC01218132818D8DED
S11330209E8DFC01358B248B8D8D9E8DFC018489B6
S11330309589FC018081882F90E0AC01440F551FD5
S1133040440F551F85E290E025E230E0F90120812C
S1133050322F242F232BFC01208380E090E0A0EA70
S1133060B1E489839A83AB83BC8320E030E04AEFE8
S113307054E469817A818B819C8121D2DC01CB016A
S11330808B8B9C8BAD8BBE8B20E030E040E85FE304
S11330906B897C898D899E8991D188232CF481E068
S11330A090E0988F8F8B3AC020E03FEF4FE757E4D2
S11330B06B897C898D899E89FED1181634F520E0B0
S11330C030E040E251E469817A818B819C81F7D1BF
S11330D0DC01CB01BC01CD0175D1DC01CB01988FA2
S11330E08F8B8F89988D892B19F188EC90E09A8FBA
S11330F0898F898D9A8D0197F1F79A8F898F8F899E
S1133100988D0197988F8F8BECCF6B897C898D89F3
S11331109E8958D1DC01CB01988F8F8B8F89988D34
S11331209C8F8B8F8B8D9C8D0197F1F79C8F8B8F50
S11331308D8D9E8DFC0184899589FC018081882F69
S113314090E0880F991F880F991FAC014095509506
S113315085E290E025E230E0F9012081322F242F2E
S11331602323FC0120838D8D9E8DFC018489958908
S1133170FC01218132818D8D9E8DFC01358B248B48
S11331808D8D9E8DFC0184899589FC018081882F19
S113319090E0AC01440F551F440F551F85E290E0A9
S11331A025E230E0F9012081322F242F232BFC016A
S11331B0208380E090E0A0EAB1E48D839E83AF8316
S11331C0B88720E030E04AEF54E46D817E818F813E
S11331D0988575D1DC01CB0189879A87AB87BC8739
S11331E020E030E040E85FE369857A858B859C8543
S11331F0E5D088232CF481E090E09E878D873AC047
S113320020E03FEF4FE757E469857A858B859C85FD
S113321052D1181634F520E030E040E251E46D81DB
S11332207E818F8198854BD1DC01CB01BC01CD011E
S1133230C9D0DC01CB019E878D878D859E85892B26
S113324019F188EC90E0988B8F878F859889019786
S1133250F1F7988B8F878D859E8501979E878D8743
S1133260ECCF69857A858B859C85ACD0DC01CB015C
S11332709E878D878D859E859A8B898B89899A896E
S11332800197F1F79A8B898B85E290E025E230E093
S1133290F9012081237CFC01208300006E960FB687
S11332A0F894DEBF0FBECDBFDF91CF910895CF93C9
S11332B0DF9300D0CDB7DEB79A8389838FE390E0A4
S11332C0FC01108200000F900F90DF91CF910895C0
S11332D0CF93DF9300D000D01F92CDB7DEB79A838F
S11332E089837C836B834D838FE390E0FC01808131
S11332F0882F90E08270992721E0892B09F420E03F
S1133300222309F0F1CF81E490E02B813C81FC0180
S11333103183208380E490E02D81FC0120838FE3BE
S113332090E02FE330E0F90120812460FC01208348
S11333308FE390E02FE330E0F90120812260FC016B
S1133340208381E00F900F900F900F900F90DF91EA
S1133350CF910895CF93DF9300D000D0CDB7DEB7DF
S11333609A8389837C836B838FE390E0FC01808163
S1133370882F90E08270992721E0892B09F420E0BE
S1133380222309F0F1CF81E490E02B813C81FC0100
S1133390318320838FE390E02FE330E0F901208133
S11333A02160FC01208380E490E0FC0180810F9087
S11333B00F900F900F90DF91CF9108952FD008F4C4
S11333C081E0089557D088F09F5790F0B92F99273E
S11333D0B751A0F0D1F0660F771F881F991F1AF01C
S11333E0BA95C9F712C0B13081F05ED0B1E008954A
S11333F05BC0672F782F8827B85F39F0B93FCCF3CB
S1133400869577956795B395D9F73EF49095809511
S1133410709561957F4F8F4F9F4F0895990F0008C6
S1133420550FAA0BE0E8FEEF16161706E807F90792
S1133430C0F012161306E407F50798F0621B730B2D
S1133440840B950B39F40A2661F0232B242B252BAE
S113345021F408950A2609F4A140A6958FEF811D51
S1133460811D089557FD9058440F551F59F05F3F33
S113347071F04795880F97FB991F61F09F3F79F092
S113348087950895121613061406551FF2CF469514
S1133490F1DF08C0161617061806991FF1CF869596
S11334A07105610508940895E894BB27662777277A
S11334B0CB0197F90895B2DF08F48FEF08950BD08C
S11334C078C069D028F06ED018F0952309F05AC05E
S11334D05FC01124EACFC6DFA0F3959FD1F3950F07
S11334E050E0551F629FF001729FBB27F00DB11D84
S11334F0639FAA27F00DB11DAA1F649F6627B00D14
S1133500A11D661F829F2227B00DA11D621F739FFC
S1133510B00DA11D621F839FA00D611D221F749F0A
S11335203327A00D611D231F849F600D211D822F51
S1133530762F6A2F11249F5750408AF0E1F0882398
S11335404AF0EE0FFF1FBB1F661F771F881F9150A5
S11335505040A9F79E3F510570F014C0A6CF5F3FBD
S1133560ECF3983EDCF3869577956795B795F795D8
S1133570E7959F5FC1F7FE2B880F911D9695879560
S113358097F9089597F99F6780E870E060E00895DF
S11335909FEF80EC089500240A9416161706180667
S11335A00906089500240A94121613061406050643
S11335B00895092E0394000C11F4882352F0BB0FD4
S11335C040F4BF2B11F460FF04C06F5F7F4F8F4F37
S11335D09F4F089597FB072E16F4009406D077FDAD
S11335E008D014D007FC05D03EF4909581959F4FE8
S11335F00895709561957F4F0895EE0FFF1F002485
S1133600001C0BBE0790F691E02D0994AA1BBB1B6E
S113361051E107C0AA1FBB1FA617B70710F0A61BCE
S1133620B70B881F991F5A95A9F780959095BC01EF
S10B3630CD010895F894FFCFC9
S1133638101141501E280F14020702070913000134
S113364802020405012F0203040506010200415089
S11336581E280F14020702070913000102020405B9
S113366810110001010201020408010204081020DB
S11336784080A08601006400F40196006400F4010F
S1093688FA000100141811
S9030000FC
