:100000000806002005150000BF0F0000BF0F00000C
:10001000BF0F0000BF0F0000BF0F00000000000076
:10002000000000000000000000000000BF0F000002
:10003000BF0F000000000000BF0F0000BF0F000056
:1000400081B000F5E0700268914203D343681A441E
:10005000914202D380680028F5D101B07047DFF8E3
:100060000017086890B94FF4805048604FF4803210
:100070004FF0FF308A60C86008610420DFF8E42692
:10008000DFF8E4364861C2F8BC010B60012070471C
:1000900001F1080313F0070F0EBF0023C3F108039B
:1000A00003F007031944D21A8161C26042F00103D0
:1000B0004B60091D28238B50DFF8A4160A69C26122
:1000C00070472DE9FC4B074601F1080010F0070FBF
:1000D0000FBF8946C0F1080000F0070001EB0009DE
:1000E00002F1080111F0070F06D002F10800C0F17B
:1000F000080000F0070002441546A5EB090009EBD3
:100100000306A0EB030B43F00303C9F80430AE422F
:1001100028BF00F051FF2879C10758BF00F04CFFFD
:10012000BBF1100F38BF00F047FFB869854207D117
:10013000F8685844F860BE6140F00100706050E11A
:10014000786985420AD1B8688344C7F808B07E61EF
:100150004BF00100706046F80BB042E1686800F0B7
:100160000301012940F0AB80C008C0000190C00825
:100170001F2839D8AC68D5F80C800090454508BFD9
:1001800000F01AFFA54208BF00F016FF686800994A
:10019000C008C000B0EBC10F18BF00F00DFF009900
:1001A00007F1280000EBC100844206D03A6994426E
:1001B000C0F08080E168A9427CD1A04506D10098BA
:1001C0003968012282409143396075E0804506D04C
:1001D000386980456ED3D8F80800A8426AD1C4F8BF
:1001E0000C80C8F8084067E0EC68D5F81880AC428D
:1001F0000CD0A8683969884222D3C168A94204BFDB
:10020000A168A9421CD1C460A0601BE005F11402E2
:10021000146834B905F1100214689CB101E01A4663
:10022000146804F114031968002902BF04F11003D3
:1002300018680028F3D139698A4228BF106001D2BA
:1002400000F0BAFEB8F1000F36D0E96907F59870F2
:1002500000EB81000268954208D10460A4B9E86906
:100260007968012282409143796025E038698045B0
:1002700008D3D8F81000A84214BFC8F81440C8F832
:10028000104001E000F098FEB4B139698C4211D3FE
:10029000C4F81880286928B1884226BF206184618B
:1002A00000F08AFE686938B13969884202D360611A
:1002B000846101E000F080FE01982D188344686895
:1002C0004008400068604BF0010171604FEADB04B8
:1002D00046F80BB01F2C23D807F1280000EBC40808
:1002E0004546BBF1100F38BF00F066FE386820FAB3
:1002F00004F1C90705D4012101FA04F404433C6068
:1003000007E0D8F80800396988422CBF054600F09C
:1003100053FEC8F80860EE60B560C6F80C8060E077
:100320005FEA1B2008BF002123D0B0F5803F28BF23
:100330001F211ED2A0F58072120C02F0080290401C
:10034000A0F58051090C01F004018840A0F580431C
:100350001B0CC2F10E0203F00203521AD21A98408B
:1003600002EBD032D01D2BFA00F101F0010101EBBC
:10037000420107F5987202EB8100F161002272617F
:1003800032617A6822FA01F3DB0707D4012303FA0A
:1003900001F1114379600660B0611DE002681F2918
:1003A0001DBF4908C1F119010BFA01F1594600E0DE
:1003B00002465068C008C000584516D002F110032C
:1003C000CC0F03EB8403490018680028F0D138698A
:1003D000834204D31E60B261F660B66001E000F0B3
:1003E000EBFD09F10800BDE8F68B396990688A4297
:1003F00028BF8842F3D3C6609660B060F2600020E8
:10040000B061EEE72DE9FE4F04468B46A5692E4606
:10041000904699463146FFF713FEA8F1280201687D
:10042000406801EB000AAAF1270111F007000EBF96
:100430000021C1F1080101F007010AEB0100A0F160
:100440002F0706F11000874238BF374607F1180022
:1004500001905946002000902046FFF719FE07F151
:10046000080010F0070F18BF00F0A6FD1B207860F1
:1004700007F1080104F5E07090E80C5081E80C5099
:10048000C0F800B0C0F80480C0F80C9081600198FA
:10049000009900E0001D07224260491C00F108029B
:1004A0005245F7D30129D8BF00F086FDB74200F0CE
:1004B0009580BF1B301D311DC05940084000C851F8
:1004C00047F0010171604FEAD70BF751BBF11F0FE5
:1004D00021D804EBCB0000F12805A846102F38BF27
:1004E00000F06AFD206820FA0BF1C90705D401214C
:1004F00001FA0BF10843206006E0A86821698842F0
:100500002CBF804600F058FDAE60C8F80C60C6F8FD
:100510000880F5606FE0380A08BF002123D0B0F5ED
:10052000803F28BF1F211ED2A0F58072120C02F05E
:1005300008029040A0F58051090C01F004018840A8
:10054000A0F580431B0CC2F10E0203F00203521A05
:10055000D21A984002EBD032D01D27FA00F101F0F8
:10056000010101EB420104EB8102002302F59870C6
:10057000F16173613361626822FA01F3DB0707D42A
:10058000012303FA01F1114361600660B0611DE0CF
:1005900002681F291DBF4908C1F1190107FA01F1BD
:1005A000394600E002465068C008C000B84216D084
:1005B00002F11003C80F03EB8003490018680028FC
:1005C000F0D12069834204D31E60B261F660B56049
:1005D00011E003B0BDE8F04F00F0EEBC0BE0216984
:1005E00090688A4228BF8842F3D3C6609560B060A5
:1005F000F2600020B06103B0BDE8F08F2DE9F0415A
:10060000574F05463868884608B9FFF728FDB9688E
:1006100001EB08002F30491E20EA010188457DD2F8
:1006200005F5D876B06828B1326889188A4275D243
:10063000884273D300F0C4FC01001CBF0C6811F1A8
:10064000010F6BD03068201805F5D8723060536800
:10065000984238BF18467060A86960BB286908B125
:10066000814200D22961316174610020F06105F19D
:100670002802386868624FF0FF3028620020D2609C
:10068000926002F1080353611361801C103220282C
:10069000F5D33448854208BFA4F1280228D055F884
:1006A000040CC00805EBC002A2F108000A19121AD6
:1006B000283A01461CE005F5E070024600E0926829
:1006C0007AB3136857683B449942F8D1137B1F07EC
:1006D00027D4AB691768BB4223D3D2F804C0674460
:1006E000BB421ED2A444C2F804C0E868A96922181B
:1006F0002846FFF7CDFC1FE08068C0B10368934235
:10070000FAD1027B130712D4026801604368E4182F
:10071000446043462846BDE8F041D2E40020BDE8ED
:10072000F0812A69914238BF29610A19E5E700235F
:1007300022462846FFF766FEE8688045EED2A0EB29
:100740000800A969E86001EB0802AA6140F0010015
:10075000506048F00300486001F10800BDE8F081F6
:10076000E0010020080000206859883C2DE9F84F7E
:1007700000258946090AC9F1000B08BF002323D0D0
:10078000B1F5803F28BF1F231ED2A1F58072120C45
:1007900002F008029140A1F580531B0C03F0040302
:1007A0009940A1F58044240CC2F10E0204F0020429
:1007B000D21A121BA14002EBD132D11D29FA01F34A
:1007C00003F0010303EB4203074607F5987858F856
:1007D000230030B31F2B0FBF4C465C08C4F1190433
:1007E00009FA04F4AC46594600E064004268D208B5
:1007F000D200A2EB09028A4203D21100054600F0A2
:100800006881426910304FEAD47B50F82B00002AEF
:100810001CBF824294460028E7D18B466046B0BB9D
:10082000BDBB012000FA03F35B0058420343786824
:10083000034000F04D81584203405B1E180B00F04E
:100840001000C340590901F00801CB409A0802F09A
:100850000402D3405C0804F002040818E3401018B6
:10086000C3F3400620183044F3401B1858F8230007
:100870000DE008464168C908C900A1EB09015945C6
:100880003CBF8B46054601690029F2D1406900282A
:10089000F0D1002D00F01C81B868A0EB0900834561
:1008A00080F0168138698542C0F010816868C00800
:1008B000C00009EB0B01884218BF00F07DFB05EB7F
:1008C0000906B54280F00281EC68D5F818A0AC4268
:1008D0000CD0A8683969884222D3C168A94204BFF4
:1008E000A168A9421CD1C460A0601BE005F11402FC
:1008F000146834B905F1100214689CB101E01A467D
:10090000146804F114031968002902BF04F11003EC
:1009100018680028F3D139698A4228BF106001D2D3
:1009200000F04AFBBAF1000F36D0E96908EB81000C
:100930000268954209D10460200014D1E869796801
:10094000012282409143796026E03869824508D3CC
:10095000DAF81000A84214BFCAF81440CAF81040D0
:1009600001E000F029FBBCB13869844212D3C4F81D
:1009700018A0286930B13969884226BF2061846196
:1009800000F01AFB686938B13969884202D36061A6
:10099000846101E000F010FBBBF1100F0CD2D944D0
:1009A00049F003006860291D281D50F8090040F037
:1009B000010041F8090088E049F0030068604BF04D
:1009C000010070604FEADB0046F80BB01F281DD80D
:1009D00007EBC00101F12804396821FA00F2D207BF
:1009E000A34605D4012202FA00F00843386006E06D
:1009F000A068396988422CBF834600F0DDFAA66002
:100A0000CBF80C60C6F808B0F4605EE05FEA1B202B
:100A100008BF002123D0B0F5803F28BF1F211ED280
:100A2000A0F58072120C02F008029040A0F58051EF
:100A3000090C01F004018840A0F580431B0CC2F1B1
:100A40000E0203F00203521AD21A984002EBD0327F
:100A5000D01D2BFA00F101F0010101EB4201F1611F
:100A600000227261326108EB81007A6822FA01F398
:100A7000DB0707D4012303FA01F111437960066013
:100A8000B0611DE002681F291DBF4908C1F11901AD
:100A90000BFA01F1594600E002465068C008C00058
:100AA000584518D002F11003CC0F03EB8403490022
:100AB00018680028F0D13869834204D31E60B261FF
:100AC000F660B66001E000F077FA13E100F074FA26
:100AD0000DE18B46A3E6396990688A4228BF8842B7
:100AE000F1D3C6609660B060F2600020B061ECE7C0
:100AF0002DE9F84F06468846716848420140491E74
:100B0000080B00F01000C1404A0902F00802D14071
:100B10008B0803F00403D9404D0805F002051018B6
:100B2000E9401818C1F34004281806F5987A2044C3
:100B3000E14009185AF821104868C008C0000D4665
:100B4000A0EB080909E001464868C008C000A0EB16
:100B5000080048453CBF81460D4608690028F2D18F
:100B600049690029F0D130698542C0F0BE806868CB
:100B7000C00808EB090BC000584518BF00F01CFA6C
:100B800005EB08008542009080F0AF80EF68AC690B
:100B9000AF420CD0A8683169884222D3C168A9420B
:100BA00004BFB968A9421CD1C760B8601BE005F159
:100BB0001402176837B905F1100217689FB101E0F8
:100BC0001A46176807F114031968002902BF07F1D4
:100BD000100318680028F3D131698A4228BF1060D9
:100BE00001D200F0E9F9002C31D0E9690AEB81006B
:100BF0000268954208D107608FB9E86971680122DF
:100C000082409143716022E03069844205D32069BB
:100C1000A84214BF6761276101E000F0CDF9B7B1C8
:100C20003069874211D3BC61286930B1316988428B
:100C300026BF3861876100F0BFF9686938B1316952
:100C4000884202D37861876101E000F0B5F9B9F11B
:100C5000100F0BD24BF003006860291D281D50F8BF
:100C60000B0040F0010041F80B003DE048F00301AB
:100C7000696049F00100291D41F80800009840F81A
:100C80000990D6F808804FEAD80BBBF1200F28BF97
:100C900000F092F9B8F1000F22D006EBCB00776993
:100CA00000F12804A246B8F1100F38BF00F084F913
:100CB000306820FA0BF1C90705D4012101FA0BF1C4
:100CC0000843306006E0A068316988422CBF824644
:100CD00000F072F9A760CAF80C70C7F808A0FC60B1
:100CE000C6F808900098706104E000F065F90020F3
:100CF000BDE8F28F05F10800BDE8F28F2DE9FE4F47
:100D00000546AFF30080F52DDFF8A86280F004817E
:100D10000B2D31BF10250B35ED08ED003068EC08C8
:100D2000E04010F0030F46D0C04300F0010004196A
:100D300006F1280000EBC408E700D8F808506868FE
:100D4000C008C000B84218BF00F036F9D5F80890C6
:100D5000454508BF00F030F94D4508BF00F02CF9BB
:100D60006868C008C000B84218BF00F025F9C8453F
:100D700007D13168012000FA04F421EA0404346048
:100D80000DE03069814508D3D9F80C00A84204D1A0
:100D9000C8F80890C9F80C8001E000F00DF947F0A0
:100DA00003006860291D281D05F10804C05940F0A2
:100DB0000100C851F8E0B168A94280F0BE80002867
:100DC00000F0A1804FF0010808FA04F1490000FA90
:100DD00004F4484201430C4060420440641E200B6E
:100DE00000F01000C440610901F00801CC40A208E5
:100DF00002F00402D440630803F002030818DC4048
:100E00001018C4F3400718183818FC40241806F1CD
:100E1000280000EBC40AE700DAF80890D9F80400CB
:100E2000C008C000B84218BF00F0C6F8D9F808B032
:100E3000D14508BF00F0C0F8D94508BF00F0BCF8A4
:100E4000D9F80400C008C000B84218BF00F0B4F8D8
:100E5000DA4506D1316808FA04F421EA0404346062
:100E60000DE03069834508D3DBF80C00484504D118
:100E7000CAF808B0CBF80CA001E000F09DF845F0EE
:100E80000300C9F804007F1B09F1040147F00100C9
:100E9000485109EB05000190C751B4684FEAD40AE4
:100EA000BAF1200F28BF00F087F834B3CDF800A0C6
:100EB00006F12800756900EBCA0AD346102C38BF2A
:100EC00000F07AF83168009821FA00F2D30704D4D0
:100ED00008FA00F00843306007E0DAF808003169EA
:100EE00088422CBF834600F067F8CAF80850CBF858
:100EF0000C50C5F808B0C5F80CA0B76009F108049B
:100F00000198706150E07068C0B329463046FFF721
:100F1000EFFD040011D047E015F1400F28BF4FF05E
:100F2000FF350AD20B35ED087068ED0028B129466F
:100F30003046FFF71BFC040036D1B068A8421DD331
:100F4000411B726910290AD350197061B16041F0D8
:100F500001034360415045F0030555600BE000215B
:100F6000B1607161131D40F003015160111D0958FA
:100F700041F00101195002F1080415E0F0688542C2
:100F80000DD2401BB169F0604A19B26140F0010016
:100F9000506045F003054D6001F1080404E0294666
:100FA0003046FFF72BFB0446AFF300802046FFF7E7
:100FB00022BB000008000020012000F017B8FEE767
:100FC0000749086808B1002070470648C008C000FB
:100FD00008600549C908C900091A0160704700BFC7
:100FE000FC0100200F060020080E002080B500F054
:100FF00007F8024A11001820ABBEFBE726000200EA
:1010000010B500F052F802000023DB430024106802
:10101000984203D011000220ABBE14605068984281
:1010200003D0111D0220ABBE546010BDF0B583B0DB
:10103000040000F03AF8A10047183D680026F64386
:10104000B54216D100F01AF83D68B5420FD100BF85
:1010500009A00090002C01D1002000E004200190A4
:101060000320029069460120ABBE05003D6000F000
:1010700014F8280003B0F0BD3A7474000C48012144
:10108000BFF35F8FD0E84F3FC0E8421F002AF9D17D
:10109000BFF35F8F002BF3D170470548BFF35F8F1D
:1010A00000210170BFF35F8F704702487047000056
:1010B000000200200000002070B51C000546164606
:1010C00006D0084616F8011BA847641EFAD101464F
:1010D000084670BD2DE9FC4383B08146884617461B
:1010E0001D4607E001233A4641464846FFF7E4FF24
:1010F00080467F1C3878E0B12528F3D17978BF1C71
:10110000252912D058295AD0632915D0642918BF2F
:10111000692918D06F2952D0702956D073295BD015
:10112000752918BF78294AD0E4E74046C847804669
:10113000E0E705B0BDE8F0832868286050F8041B9C
:101140002860C9B2F1E72868286050F8046B28606D
:10115000002E03D52D214046C847804664216F29C3
:1011600008BF082205D041F02000782814BF0A22C9
:1011700010220B246429304602D1002E48BF404281
:10118000B0FBF2FC02FB1C003030641EC3B23A2BF1
:10119000A4BFA1F1510318180DF804005FEA0C0078
:1011A00001D0002CECDC0DEB0406D4F10B0440461E
:1011B000BDD016F8011BC847641EFAD1B7E72868EE
:1011C000286050F8046B2860C9E7286828607821F7
:1011D00050F8046B2860C2E72868286050F8046B58
:1011E0002860304600F00AF8040040469FD016F808
:1011F000011BC847641EFAD199E7000000F1010302
:10120000810704D010F8011B89B18107FAD1026867
:10121000B2F10131914311F0803F04BF50F8042F27
:10122000F6E710F8011B11B110F8011BFBE7C01A1B
:1012300070470000103A07D330B4B1E83810103AC4
:10124000A0E83810F9D230BC530724BFB1E8081029
:10125000A0E8081044BF51F8043B40F8043BD20713
:1012600024BF31F8022B20F8022B44BF0B78037007
:101270007047083A07D3B1E80810083A40F8043B31
:1012800040F804CBF7D25307E4E719E050F8042BF9
:10129000D30744BFA9F101039A18091F00230429A9
:1012A00042F8043BF9D25FEA817C134604D54FF043
:1012B000000CA2F800C09B1CC90744BF0021197094
:1012C00050F8041B0029E1D1704770B504000D00EF
:1012D0001600B00000F015F820602068002801D149
:1012E000002000E03000606000206168884206D283
:1012F00055F82010226842F82010401CF5E7200025
:1013000070BD00F001B8000010B5044601E000F027
:101310000DF82046FFF7F2FC28B9034800680028C2
:10132000F5D08047F5E710BDF8010020FFF744BE77
:1013300080B586B002A809491022FFF77BFF04227E
:1013400002A96846FFF7C1FF022100F009F8010079
:1013500001A000F011F8FEE725640000F41400007D
:10136000002906D44268914203D2006850F8210057
:1013700000E00020704700000EB4C0B5024603A88C
:1013800000210190009101AB0121044878440C3008
:10139000FFF7A0FE06BC5DF810FB00BF4301000094
:1013A00010B450F8041B79B1026843680244083055
:1013B000DC0744BFA9F10104E31852F8044B43F8D9
:1013C000044B091FF9D1ECE710BC704710B5074971
:1013D00079441831064C7C44163404E00A68081D30
:1013E000114488470146A142F8D110BD2C000000ED
:1013F0004C00000018B583B0030014000093019165
:10140000029469460520ABBE01221900201AAFF3F1
:10141000008004B010BD000073FEFFFFFC0100005F
:10142000080000200000000079FFFFFF0800000016
:10143000E0000000000000200000000080B58DF8F2
:10144000000001226946012000F008F8012802D1BD
:101450009DF8000002BD4FF0FF3002BD80B50028AE
:1014600002D400F003F802BD002002BD80B50029BF
:1014700001D1002002BD012801D0022802D100F0D4
:1014800004F802BDFFF7B6FF02BD30B583B00C0013
:1014900015000120FFF7CAFD0090019402956946EE
:1014A0000520ABBE281A03B030BD000000F00DF8D7
:1014B000002801D0FFF78AFFAFF300800020AFF3D0
:1014C0000080FFF735FF00F002F80120704700F0C0
:1014D00001B8000007463846FFF788FDFBE738B53E
:1014E00004460D462846FFF7A9FFA84218BF00246E
:1014F000204632BD00000000010000000200000094
:1015000003000000AFF30080AFF30080FFF7CEFFD1
:08151000FFFFFFFFFFFFFFFFDB
:0400000500001505DD
:00000001FF
