:1000000000040020F50000009300000093000000B1
:100010009300000093000000930000000000000027
:10002000000000000000000000000000930000003D
:100030009300000000000000930000009300000007
:1000400010B50400200000F001F810BD084901605F
:1000500000214160704701000020704710B5040086
:100060002000FFF7EDFF03482060200010BD0000D6
:10007000E4000000F00000000100012070471CB502
:100080006846FFF7EBFF6C46200021680968884747
:10009000FEE7FEE700F00DF8002801D0AFF3008086
:1000A000AFF300800020AFF30080FFF7E8FF00F01F
:1000B00002F80120704700F001B8000007463846FA
:1000C00000F002F8FBE7000080B5AFF30080024AC1
:1000D00011001820ABBEFBE7260002000000000064
:1000E00000000000570000000000000000000000B9
:1000F00079000000AFF30080AFF30080FFF7CAFF84
:04000005000000F502
:00000001FF
